{
  "address": "0xc34daF7D05C7aeF2727B369D2B87a8175B425c97",
  "abi": [
    {
      "inputs": [
        {
          "internalType": "contract VigorStoneStake",
          "name": "_vigorStoneStake",
          "type": "address"
        },
        {
          "internalType": "contract VigorStone",
          "name": "_vigorStone",
          "type": "address"
        },
        {
          "internalType": "contract OPAIStake",
          "name": "_opaiStake",
          "type": "address"
        },
        {
          "internalType": "contract IERC20",
          "name": "_opai",
          "type": "address"
        }
      ],
      "stateMutability": "nonpayable",
      "type": "constructor"
    },
    {
      "inputs": [],
      "name": "TOKENID",
      "outputs": [
        {
          "internalType": "uint256",
          "name": "",
          "type": "uint256"
        }
      ],
      "stateMutability": "view",
      "type": "function"
    },
    {
      "inputs": [],
      "name": "opai",
      "outputs": [
        {
          "internalType": "contract IERC20",
          "name": "",
          "type": "address"
        }
      ],
      "stateMutability": "view",
      "type": "function"
    },
    {
      "inputs": [
        {
          "internalType": "address",
          "name": "account",
          "type": "address"
        },
        {
          "internalType": "uint256",
          "name": "start",
          "type": "uint256"
        },
        {
          "internalType": "uint256",
          "name": "amount",
          "type": "uint256"
        }
      ],
      "name": "opaiApplyList",
      "outputs": [
        {
          "internalType": "uint256[]",
          "name": "ids",
          "type": "uint256[]"
        },
        {
          "components": [
            {
              "internalType": "uint256",
              "name": "amount",
              "type": "uint256"
            },
            {
              "internalType": "uint256",
              "name": "applyTime",
              "type": "uint256"
            }
          ],
          "internalType": "struct EnumerableApply.ApplyInfo[]",
          "name": "infos",
          "type": "tuple[]"
        }
      ],
      "stateMutability": "view",
      "type": "function"
    },
    {
      "inputs": [],
      "name": "opaiStake",
      "outputs": [
        {
          "internalType": "contract OPAIStake",
          "name": "",
          "type": "address"
        }
      ],
      "stateMutability": "view",
      "type": "function"
    },
    {
      "inputs": [
        {
          "internalType": "address",
          "name": "account",
          "type": "address"
        }
      ],
      "name": "stateOf",
      "outputs": [
        {
          "components": [
            {
              "internalType": "uint256",
              "name": "vigorStoneBalance",
              "type": "uint256"
            },
            {
              "internalType": "uint256",
              "name": "vigorStoneStake",
              "type": "uint256"
            },
            {
              "internalType": "uint256",
              "name": "vigorStoneApplyLength",
              "type": "uint256"
            },
            {
              "internalType": "uint256",
              "name": "opaiBalance",
              "type": "uint256"
            },
            {
              "internalType": "uint256",
              "name": "opaiStake",
              "type": "uint256"
            },
            {
              "internalType": "uint256",
              "name": "opaiApplyLength",
              "type": "uint256"
            }
          ],
          "internalType": "struct Helpers.State",
          "name": "state",
          "type": "tuple"
        }
      ],
      "stateMutability": "view",
      "type": "function"
    },
    {
      "inputs": [],
      "name": "vigorStone",
      "outputs": [
        {
          "internalType": "contract VigorStone",
          "name": "",
          "type": "address"
        }
      ],
      "stateMutability": "view",
      "type": "function"
    },
    {
      "inputs": [],
      "name": "vigorStoneStake",
      "outputs": [
        {
          "internalType": "contract VigorStoneStake",
          "name": "",
          "type": "address"
        }
      ],
      "stateMutability": "view",
      "type": "function"
    },
    {
      "inputs": [
        {
          "internalType": "address",
          "name": "account",
          "type": "address"
        },
        {
          "internalType": "uint256",
          "name": "start",
          "type": "uint256"
        },
        {
          "internalType": "uint256",
          "name": "amount",
          "type": "uint256"
        }
      ],
      "name": "vigoreStoneApplyList",
      "outputs": [
        {
          "internalType": "uint256[]",
          "name": "ids",
          "type": "uint256[]"
        },
        {
          "components": [
            {
              "internalType": "uint256",
              "name": "amount",
              "type": "uint256"
            },
            {
              "internalType": "uint256",
              "name": "applyTime",
              "type": "uint256"
            }
          ],
          "internalType": "struct EnumerableApply.ApplyInfo[]",
          "name": "infos",
          "type": "tuple[]"
        }
      ],
      "stateMutability": "view",
      "type": "function"
    }
  ],
  "transactionHash": "0x97a3eed845d68245e2cc51d64e7673a56bc735c299c19bfbee02a7cf5c8a11cf",
  "args": [
    "0x7be3034ad9EA0383A96D6dce61Cf06B567A8eA0E",
    "0x6BF1C797159c4B6eE07a4A263732C2e4Cf69Ca2b",
    "0x655c9b0f91DCa3d00A687c1661E528f18523B24c",
    "0xF4C3a4d9568672FB4A8174EfD29dDAB6255E8729"
  ],
  "numDeployments": 1,
  "solcInputHash": "0ce90167975332f8a8f150d5e2fed69e",
  "bytecode": "0x60806040523480156200001157600080fd5b50604051620013bc380380620013bc833981810160405281019062000037919062000291565b836000806101000a81548173ffffffffffffffffffffffffffffffffffffffff021916908373ffffffffffffffffffffffffffffffffffffffff16021790555082600160006101000a81548173ffffffffffffffffffffffffffffffffffffffff021916908373ffffffffffffffffffffffffffffffffffffffff16021790555081600260006101000a81548173ffffffffffffffffffffffffffffffffffffffff021916908373ffffffffffffffffffffffffffffffffffffffff16021790555080600360006101000a81548173ffffffffffffffffffffffffffffffffffffffff021916908373ffffffffffffffffffffffffffffffffffffffff1602179055505050505062000303565b600080fd5b600073ffffffffffffffffffffffffffffffffffffffff82169050919050565b6000620001768262000149565b9050919050565b60006200018a8262000169565b9050919050565b6200019c816200017d565b8114620001a857600080fd5b50565b600081519050620001bc8162000191565b92915050565b6000620001cf8262000169565b9050919050565b620001e181620001c2565b8114620001ed57600080fd5b50565b6000815190506200020181620001d6565b92915050565b6000620002148262000169565b9050919050565b620002268162000207565b81146200023257600080fd5b50565b60008151905062000246816200021b565b92915050565b6000620002598262000169565b9050919050565b6200026b816200024c565b81146200027757600080fd5b50565b6000815190506200028b8162000260565b92915050565b60008060008060808587031215620002ae57620002ad62000144565b5b6000620002be87828801620001ab565b9450506020620002d187828801620001f0565b9350506040620002e48782880162000235565b9250506060620002f7878288016200027a565b91505092959194509250565b6110a980620003136000396000f3fe608060405234801561001057600080fd5b50600436106100885760003560e01c806345b4903a1161005b57806345b4903a146101055780638a51a10d14610135578063c52c4e7f14610166578063fea47c491461019757610088565b806305f22fe21461008d5780630839d221146100ab5780632a3ac2df146100c957806344c65ea9146100e7575b600080fd5b6100956101b5565b6040516100a29190610854565b60405180910390f35b6100b36101db565b6040516100c09190610890565b60405180910390f35b6100d1610201565b6040516100de91906108cc565b60405180910390f35b6100ef610227565b6040516100fc9190610908565b60405180910390f35b61011f600480360381019061011a9190610975565b61024b565b60405161012c9190610a36565b60405180910390f35b61014f600480360381019061014a9190610a7d565b610634565b60405161015d929190610c5d565b60405180910390f35b610180600480360381019061017b9190610a7d565b6106e6565b60405161018e929190610c5d565b60405180910390f35b61019f61079a565b6040516101ac9190610ca3565b60405180910390f35b600260009054906101000a900473ffffffffffffffffffffffffffffffffffffffff1681565b600360009054906101000a900473ffffffffffffffffffffffffffffffffffffffff1681565b600160009054906101000a900473ffffffffffffffffffffffffffffffffffffffff1681565b60008054906101000a900473ffffffffffffffffffffffffffffffffffffffff1681565b61025361079f565b600160009054906101000a900473ffffffffffffffffffffffffffffffffffffffff1673ffffffffffffffffffffffffffffffffffffffff1662fdd58e8360006040518363ffffffff1660e01b81526004016102b0929190610ccd565b602060405180830381865afa1580156102cd573d6000803e3d6000fd5b505050506040513d601f19601f820116820180604052508101906102f19190610d0b565b81600001818152505060008054906101000a900473ffffffffffffffffffffffffffffffffffffffff1673ffffffffffffffffffffffffffffffffffffffff16637a766460836040518263ffffffff1660e01b81526004016103539190610d38565b602060405180830381865afa158015610370573d6000803e3d6000fd5b505050506040513d601f19601f820116820180604052508101906103949190610d0b565b81602001818152505060008054906101000a900473ffffffffffffffffffffffffffffffffffffffff1673ffffffffffffffffffffffffffffffffffffffff1663f155c6bf836040518263ffffffff1660e01b81526004016103f69190610d38565b602060405180830381865afa158015610413573d6000803e3d6000fd5b505050506040513d601f19601f820116820180604052508101906104379190610d0b565b816040018181525050600260009054906101000a900473ffffffffffffffffffffffffffffffffffffffff1673ffffffffffffffffffffffffffffffffffffffff16637a766460836040518263ffffffff1660e01b815260040161049b9190610d38565b602060405180830381865afa1580156104b8573d6000803e3d6000fd5b505050506040513d601f19601f820116820180604052508101906104dc9190610d0b565b816080018181525050600260009054906101000a900473ffffffffffffffffffffffffffffffffffffffff1673ffffffffffffffffffffffffffffffffffffffff1663f155c6bf836040518263ffffffff1660e01b81526004016105409190610d38565b602060405180830381865afa15801561055d573d6000803e3d6000fd5b505050506040513d601f19601f820116820180604052508101906105819190610d0b565b8160a0018181525050600360009054906101000a900473ffffffffffffffffffffffffffffffffffffffff1673ffffffffffffffffffffffffffffffffffffffff166370a08231836040518263ffffffff1660e01b81526004016105e59190610d38565b602060405180830381865afa158015610602573d6000803e3d6000fd5b505050506040513d601f19601f820116820180604052508101906106269190610d0b565b816060018181525050919050565b60608060008054906101000a900473ffffffffffffffffffffffffffffffffffffffff1673ffffffffffffffffffffffffffffffffffffffff1663f9a64cc08686866040518463ffffffff1660e01b815260040161069493929190610d53565b600060405180830381865afa1580156106b1573d6000803e3d6000fd5b505050506040513d6000823e3d601f19601f820116820180604052508101906106da9190610ffb565b91509150935093915050565b606080600260009054906101000a900473ffffffffffffffffffffffffffffffffffffffff1673ffffffffffffffffffffffffffffffffffffffff1663f9a64cc08686866040518463ffffffff1660e01b815260040161074893929190610d53565b600060405180830381865afa158015610765573d6000803e3d6000fd5b505050506040513d6000823e3d601f19601f8201168201806040525081019061078e9190610ffb565b91509150935093915050565b600081565b6040518060c001604052806000815260200160008152602001600081526020016000815260200160008152602001600081525090565b600073ffffffffffffffffffffffffffffffffffffffff82169050919050565b6000819050919050565b600061081a610815610810846107d5565b6107f5565b6107d5565b9050919050565b600061082c826107ff565b9050919050565b600061083e82610821565b9050919050565b61084e81610833565b82525050565b60006020820190506108696000830184610845565b92915050565b600061087a82610821565b9050919050565b61088a8161086f565b82525050565b60006020820190506108a56000830184610881565b92915050565b60006108b682610821565b9050919050565b6108c6816108ab565b82525050565b60006020820190506108e160008301846108bd565b92915050565b60006108f282610821565b9050919050565b610902816108e7565b82525050565b600060208201905061091d60008301846108f9565b92915050565b6000604051905090565b600080fd5b600080fd5b6000610942826107d5565b9050919050565b61095281610937565b811461095d57600080fd5b50565b60008135905061096f81610949565b92915050565b60006020828403121561098b5761098a61092d565b5b600061099984828501610960565b91505092915050565b6000819050919050565b6109b5816109a2565b82525050565b60c0820160008201516109d160008501826109ac565b5060208201516109e460208501826109ac565b5060408201516109f760408501826109ac565b506060820151610a0a60608501826109ac565b506080820151610a1d60808501826109ac565b5060a0820151610a3060a08501826109ac565b50505050565b600060c082019050610a4b60008301846109bb565b92915050565b610a5a816109a2565b8114610a6557600080fd5b50565b600081359050610a7781610a51565b92915050565b600080600060608486031215610a9657610a9561092d565b5b6000610aa486828701610960565b9350506020610ab586828701610a68565b9250506040610ac686828701610a68565b9150509250925092565b600081519050919050565b600082825260208201905092915050565b6000819050602082019050919050565b6000610b0883836109ac565b60208301905092915050565b6000602082019050919050565b6000610b2c82610ad0565b610b368185610adb565b9350610b4183610aec565b8060005b83811015610b72578151610b598882610afc565b9750610b6483610b14565b925050600181019050610b45565b5085935050505092915050565b600081519050919050565b600082825260208201905092915050565b6000819050602082019050919050565b604082016000820151610bc160008501826109ac565b506020820151610bd460208501826109ac565b50505050565b6000610be68383610bab565b60408301905092915050565b6000602082019050919050565b6000610c0a82610b7f565b610c148185610b8a565b9350610c1f83610b9b565b8060005b83811015610c50578151610c378882610bda565b9750610c4283610bf2565b925050600181019050610c23565b5085935050505092915050565b60006040820190508181036000830152610c778185610b21565b90508181036020830152610c8b8184610bff565b90509392505050565b610c9d816109a2565b82525050565b6000602082019050610cb86000830184610c94565b92915050565b610cc781610937565b82525050565b6000604082019050610ce26000830185610cbe565b610cef6020830184610c94565b9392505050565b600081519050610d0581610a51565b92915050565b600060208284031215610d2157610d2061092d565b5b6000610d2f84828501610cf6565b91505092915050565b6000602082019050610d4d6000830184610cbe565b92915050565b6000606082019050610d686000830186610cbe565b610d756020830185610c94565b610d826040830184610c94565b949350505050565b600080fd5b6000601f19601f8301169050919050565b7f4e487b7100000000000000000000000000000000000000000000000000000000600052604160045260246000fd5b610dd882610d8f565b810181811067ffffffffffffffff82111715610df757610df6610da0565b5b80604052505050565b6000610e0a610923565b9050610e168282610dcf565b919050565b600067ffffffffffffffff821115610e3657610e35610da0565b5b602082029050602081019050919050565b600080fd5b6000610e5f610e5a84610e1b565b610e00565b90508083825260208201905060208402830185811115610e8257610e81610e47565b5b835b81811015610eab5780610e978882610cf6565b845260208401935050602081019050610e84565b5050509392505050565b600082601f830112610eca57610ec9610d8a565b5b8151610eda848260208601610e4c565b91505092915050565b600067ffffffffffffffff821115610efe57610efd610da0565b5b602082029050602081019050919050565b600080fd5b600060408284031215610f2a57610f29610f0f565b5b610f346040610e00565b90506000610f4484828501610cf6565b6000830152506020610f5884828501610cf6565b60208301525092915050565b6000610f77610f7284610ee3565b610e00565b90508083825260208201905060408402830185811115610f9a57610f99610e47565b5b835b81811015610fc35780610faf8882610f14565b845260208401935050604081019050610f9c565b5050509392505050565b600082601f830112610fe257610fe1610d8a565b5b8151610ff2848260208601610f64565b91505092915050565b600080604083850312156110125761101161092d565b5b600083015167ffffffffffffffff8111156110305761102f610932565b5b61103c85828601610eb5565b925050602083015167ffffffffffffffff81111561105d5761105c610932565b5b61106985828601610fcd565b915050925092905056fea264697066735822122098682aa637bce589e5077bc1b91160b0a7db6a56813b3a49a70f9fc6109f8be064736f6c63430008140033",
  "devdoc": {
    "kind": "dev",
    "methods": {},
    "version": 1
  },
  "userdoc": {
    "kind": "user",
    "methods": {},
    "version": 1
  },
  "storageLayout": {
    "storage": [
      {
        "astId": 7388,
        "contract": "contracts/core/Helpers.sol:Helpers",
        "label": "vigorStoneStake",
        "offset": 0,
        "slot": "0",
        "type": "t_contract(VigorStoneStake)8941"
      },
      {
        "astId": 7391,
        "contract": "contracts/core/Helpers.sol:Helpers",
        "label": "vigorStone",
        "offset": 0,
        "slot": "1",
        "type": "t_contract(VigorStone)8401"
      },
      {
        "astId": 7394,
        "contract": "contracts/core/Helpers.sol:Helpers",
        "label": "opaiStake",
        "offset": 0,
        "slot": "2",
        "type": "t_contract(OPAIStake)7571"
      },
      {
        "astId": 7397,
        "contract": "contracts/core/Helpers.sol:Helpers",
        "label": "opai",
        "offset": 0,
        "slot": "3",
        "type": "t_contract(IERC20)3655"
      }
    ],
    "types": {
      "t_contract(IERC20)3655": {
        "encoding": "inplace",
        "label": "contract IERC20",
        "numberOfBytes": "20"
      },
      "t_contract(OPAIStake)7571": {
        "encoding": "inplace",
        "label": "contract OPAIStake",
        "numberOfBytes": "20"
      },
      "t_contract(VigorStone)8401": {
        "encoding": "inplace",
        "label": "contract VigorStone",
        "numberOfBytes": "20"
      },
      "t_contract(VigorStoneStake)8941": {
        "encoding": "inplace",
        "label": "contract VigorStoneStake",
        "numberOfBytes": "20"
      }
    }
  }
}