{
  "address": "0x5D98880B4cBEB2ce1C03893930D2015298cd1106",
  "abi": [
    {
      "inputs": [
        {
          "internalType": "contract IERC20",
          "name": "token",
          "type": "address"
        }
      ],
      "stateMutability": "nonpayable",
      "type": "constructor"
    },
    {
      "inputs": [
        {
          "internalType": "address",
          "name": "target",
          "type": "address"
        }
      ],
      "name": "AddressEmptyCode",
      "type": "error"
    },
    {
      "inputs": [
        {
          "internalType": "address",
          "name": "account",
          "type": "address"
        }
      ],
      "name": "AddressInsufficientBalance",
      "type": "error"
    },
    {
      "inputs": [
        {
          "internalType": "bytes32",
          "name": "key",
          "type": "bytes32"
        }
      ],
      "name": "EnumerableMapNonexistentKey",
      "type": "error"
    },
    {
      "inputs": [
        {
          "internalType": "uint256",
          "name": "key",
          "type": "uint256"
        }
      ],
      "name": "EnumerableMapNonexistentKey",
      "type": "error"
    },
    {
      "inputs": [],
      "name": "FailedInnerCall",
      "type": "error"
    },
    {
      "inputs": [
        {
          "internalType": "address",
          "name": "token",
          "type": "address"
        }
      ],
      "name": "SafeERC20FailedOperation",
      "type": "error"
    },
    {
      "anonymous": false,
      "inputs": [
        {
          "indexed": false,
          "internalType": "address",
          "name": "account",
          "type": "address"
        },
        {
          "indexed": false,
          "internalType": "uint256",
          "name": "applyId",
          "type": "uint256"
        },
        {
          "indexed": false,
          "internalType": "uint256",
          "name": "amount",
          "type": "uint256"
        },
        {
          "indexed": false,
          "internalType": "uint256",
          "name": "applyTime",
          "type": "uint256"
        }
      ],
      "name": "ApplyUnstaked",
      "type": "event"
    },
    {
      "anonymous": false,
      "inputs": [
        {
          "indexed": false,
          "internalType": "address",
          "name": "account",
          "type": "address"
        },
        {
          "indexed": false,
          "internalType": "uint256",
          "name": "amount",
          "type": "uint256"
        }
      ],
      "name": "Staked",
      "type": "event"
    },
    {
      "anonymous": false,
      "inputs": [
        {
          "indexed": false,
          "internalType": "address",
          "name": "account",
          "type": "address"
        },
        {
          "indexed": false,
          "internalType": "uint256",
          "name": "applyId",
          "type": "uint256"
        },
        {
          "indexed": false,
          "internalType": "uint256",
          "name": "amount",
          "type": "uint256"
        }
      ],
      "name": "Unstaked",
      "type": "event"
    },
    {
      "inputs": [],
      "name": "LOCKTIME",
      "outputs": [
        {
          "internalType": "uint64",
          "name": "",
          "type": "uint64"
        }
      ],
      "stateMutability": "view",
      "type": "function"
    },
    {
      "inputs": [],
      "name": "TOKEN",
      "outputs": [
        {
          "internalType": "contract IERC20",
          "name": "",
          "type": "address"
        }
      ],
      "stateMutability": "view",
      "type": "function"
    },
    {
      "inputs": [
        {
          "internalType": "address",
          "name": "account",
          "type": "address"
        }
      ],
      "name": "applyLength",
      "outputs": [
        {
          "internalType": "uint256",
          "name": "",
          "type": "uint256"
        }
      ],
      "stateMutability": "view",
      "type": "function"
    },
    {
      "inputs": [
        {
          "internalType": "address",
          "name": "account",
          "type": "address"
        },
        {
          "internalType": "uint256",
          "name": "start",
          "type": "uint256"
        },
        {
          "internalType": "uint256",
          "name": "amount",
          "type": "uint256"
        }
      ],
      "name": "applyOf",
      "outputs": [
        {
          "internalType": "uint256[]",
          "name": "ids",
          "type": "uint256[]"
        },
        {
          "components": [
            {
              "internalType": "uint256",
              "name": "amount",
              "type": "uint256"
            },
            {
              "internalType": "uint256",
              "name": "applyTime",
              "type": "uint256"
            }
          ],
          "internalType": "struct EnumerableApply.ApplyInfo[]",
          "name": "infos",
          "type": "tuple[]"
        }
      ],
      "stateMutability": "view",
      "type": "function"
    },
    {
      "inputs": [
        {
          "internalType": "uint256",
          "name": "amount",
          "type": "uint256"
        }
      ],
      "name": "applyUnstake",
      "outputs": [],
      "stateMutability": "nonpayable",
      "type": "function"
    },
    {
      "inputs": [
        {
          "internalType": "address",
          "name": "account",
          "type": "address"
        },
        {
          "internalType": "uint256",
          "name": "applyId",
          "type": "uint256"
        }
      ],
      "name": "getApply",
      "outputs": [
        {
          "components": [
            {
              "internalType": "uint256",
              "name": "amount",
              "type": "uint256"
            },
            {
              "internalType": "uint256",
              "name": "applyTime",
              "type": "uint256"
            }
          ],
          "internalType": "struct EnumerableApply.ApplyInfo",
          "name": "info",
          "type": "tuple"
        }
      ],
      "stateMutability": "view",
      "type": "function"
    },
    {
      "inputs": [
        {
          "internalType": "address",
          "name": "account",
          "type": "address"
        }
      ],
      "name": "getStake",
      "outputs": [
        {
          "internalType": "uint256",
          "name": "",
          "type": "uint256"
        }
      ],
      "stateMutability": "view",
      "type": "function"
    },
    {
      "inputs": [
        {
          "internalType": "uint256",
          "name": "amount",
          "type": "uint256"
        }
      ],
      "name": "stake",
      "outputs": [],
      "stateMutability": "nonpayable",
      "type": "function"
    },
    {
      "inputs": [],
      "name": "stakeLength",
      "outputs": [
        {
          "internalType": "uint256",
          "name": "",
          "type": "uint256"
        }
      ],
      "stateMutability": "view",
      "type": "function"
    },
    {
      "inputs": [
        {
          "internalType": "uint256",
          "name": "start",
          "type": "uint256"
        },
        {
          "internalType": "uint256",
          "name": "amount",
          "type": "uint256"
        }
      ],
      "name": "stakesOf",
      "outputs": [
        {
          "internalType": "address[]",
          "name": "stakers",
          "type": "address[]"
        },
        {
          "internalType": "uint256[]",
          "name": "amounts",
          "type": "uint256[]"
        }
      ],
      "stateMutability": "view",
      "type": "function"
    },
    {
      "inputs": [
        {
          "internalType": "address",
          "name": "to",
          "type": "address"
        },
        {
          "internalType": "uint256",
          "name": "applyId",
          "type": "uint256"
        }
      ],
      "name": "unstake",
      "outputs": [],
      "stateMutability": "nonpayable",
      "type": "function"
    }
  ],
  "transactionHash": "0x8a60e2bd1e3ff508f645cbb272990941e7213f44bd4623dd39633952cdf123b4",
  "args": [
    "0xF4C3a4d9568672FB4A8174EfD29dDAB6255E8729"
  ],
  "numDeployments": 1,
  "solcInputHash": "f0976c4acfbfc9a011299e2f9a98b7ef",
  "bytecode": "0x60c060405261012c67ffffffffffffffff1660809067ffffffffffffffff168152503480156200002e57600080fd5b50604051620023343803806200233483398181016040528101906200005491906200010f565b808073ffffffffffffffffffffffffffffffffffffffff1660a08173ffffffffffffffffffffffffffffffffffffffff1681525050505062000141565b600080fd5b600073ffffffffffffffffffffffffffffffffffffffff82169050919050565b6000620000c38262000096565b9050919050565b6000620000d782620000b6565b9050919050565b620000e981620000ca565b8114620000f557600080fd5b50565b6000815190506200010981620000de565b92915050565b60006020828403121562000128576200012762000091565b5b60006200013884828501620000f8565b91505092915050565b60805160a0516121b86200017c6000396000818161044a015281816104b7015261068d015260008181610250015261060901526121b86000f3fe608060405234801561001057600080fd5b50600436106100a95760003560e01c8063c2a672e011610071578063c2a672e014610167578063c3b44ef414610183578063ce5ba450146101b3578063d4967282146101cf578063f155c6bf146101ed578063f9a64cc01461021d576100a9565b8063242c8e69146100ae57806371bdf9ea146100cc5780637a766460146100fd57806382bfefc81461012d578063a694fc3a1461014b575b600080fd5b6100b661024e565b6040516100c3919061162b565b60405180910390f35b6100e660048036038101906100e19190611681565b610272565b6040516100f492919061186f565b60405180910390f35b610117600480360381019061011291906118d2565b61042b565b604051610124919061190e565b60405180910390f35b610135610448565b6040516101429190611988565b60405180910390f35b610165600480360381019061016091906119a3565b61046c565b005b610181600480360381019061017c91906119d0565b610568565b005b61019d600480360381019061019891906119d0565b610767565b6040516101aa9190611a3f565b60405180910390f35b6101cd60048036038101906101c891906119a3565b6107c8565b005b6101d76109e9565b6040516101e4919061190e565b60405180910390f35b610207600480360381019061020291906118d2565b6109fa565b604051610214919061190e565b60405180910390f35b61023760048036038101906102329190611a5a565b610a4a565b604051610245929190611b8b565b60405180910390f35b7f000000000000000000000000000000000000000000000000000000000000000081565b606080600061027f6109e9565b90508085106102c3576040517f08c379a00000000000000000000000000000000000000000000000000000000081526004016102ba90611c1f565b60405180910390fd5b8084866102d09190611c6e565b11156102e55784816102e29190611ca2565b93505b8367ffffffffffffffff8111156102ff576102fe611cd6565b5b60405190808252806020026020018201604052801561032d5781602001602082028036833780820191505090505b5092508367ffffffffffffffff81111561034a57610349611cd6565b5b6040519080825280602002602001820160405280156103785781602001602082028036833780820191505090505b50915060005b84811015610422576103a581876103959190611c6e565b6000610c2090919063ffffffff16565b8583815181106103b8576103b7611d05565b5b602002602001018584815181106103d2576103d1611d05565b5b60200260200101828152508273ffffffffffffffffffffffffffffffffffffffff1673ffffffffffffffffffffffffffffffffffffffff168152505050808061041a90611d34565b91505061037e565b50509250929050565b6000610441826000610c4c90919063ffffffff16565b9050919050565b7f000000000000000000000000000000000000000000000000000000000000000081565b600081116104af576040517f08c379a00000000000000000000000000000000000000000000000000000000081526004016104a690611dc8565b60405180910390fd5b6104fc3330837f000000000000000000000000000000000000000000000000000000000000000073ffffffffffffffffffffffffffffffffffffffff16610c7f909392919063ffffffff16565b60006105073361042b565b905061052a3383836105199190611c6e565b6000610d019092919063ffffffff16565b507f9e71bc8eea02a63969f509818f2dafb9254532904319f9dbda79b67bd34a5f3d338360405161055c929190611df7565b60405180910390a15050565b6105b981600460003373ffffffffffffffffffffffffffffffffffffffff1673ffffffffffffffffffffffffffffffffffffffff168152602001908152602001600020610d3690919063ffffffff16565b6105f8576040517f08c379a00000000000000000000000000000000000000000000000000000000081526004016105ef90611e6c565b60405180910390fd5b60006106043383610767565b9050427f000000000000000000000000000000000000000000000000000000000000000067ffffffffffffffff1682602001516106419190611c6e565b1115610682576040517f08c379a000000000000000000000000000000000000000000000000000000000815260040161067990611ed8565b60405180910390fd5b6106d18382600001517f000000000000000000000000000000000000000000000000000000000000000073ffffffffffffffffffffffffffffffffffffffff16610d599092919063ffffffff16565b61072282600460003373ffffffffffffffffffffffffffffffffffffffff1673ffffffffffffffffffffffffffffffffffffffff168152602001908152602001600020610dd890919063ffffffff16565b507f7fc4727e062e336010f2c282598ef5f14facb3de68cf8195c2f23e1454b2b74e3383836000015160405161075a93929190611ef8565b60405180910390a1505050565b61076f6115ee565b6107c082600460008673ffffffffffffffffffffffffffffffffffffffff1673ffffffffffffffffffffffffffffffffffffffff168152602001908152602001600020610e2390919063ffffffff16565b905092915050565b6000811161080b576040517f08c379a000000000000000000000000000000000000000000000000000000000815260040161080290611dc8565b60405180910390fd5b60006108163361042b565b90508082111561085b576040517f08c379a000000000000000000000000000000000000000000000000000000000815260040161085290611f7b565b60405180910390fd5b6000600360003373ffffffffffffffffffffffffffffffffffffffff1673ffffffffffffffffffffffffffffffffffffffff168152602001908152602001600020549050600083836108ad9190611ca2565b9050600081036108d1576108cb336000610eca90919063ffffffff16565b506108e9565b6108e733826000610d019092919063ffffffff16565b505b61095082604051806040016040528085815260200142815250600460003373ffffffffffffffffffffffffffffffffffffffff1673ffffffffffffffffffffffffffffffffffffffff168152602001908152602001600020610efa9092919063ffffffff16565b50600360003373ffffffffffffffffffffffffffffffffffffffff1673ffffffffffffffffffffffffffffffffffffffff16815260200190815260200160002060008154809291906109a190611d34565b91905055507fb3a097b9b09df137b8d0b2cd75a0006fdbeb32e0cc39366c7fa0929d1ce9fc21338386426040516109db9493929190611f9b565b60405180910390a150505050565b60006109f56000610f4b565b905090565b6000610a43600460008473ffffffffffffffffffffffffffffffffffffffff1673ffffffffffffffffffffffffffffffffffffffff168152602001908152602001600020610f60565b9050919050565b6060806000610a58866109fa565b9050808510610a9c576040517f08c379a0000000000000000000000000000000000000000000000000000000008152600401610a9390611c1f565b60405180910390fd5b808486610aa99190611c6e565b1115610abe578481610abb9190611ca2565b93505b8367ffffffffffffffff811115610ad857610ad7611cd6565b5b604051908082528060200260200182016040528015610b065781602001602082028036833780820191505090505b5092508367ffffffffffffffff811115610b2357610b22611cd6565b5b604051908082528060200260200182016040528015610b5c57816020015b610b496115ee565b815260200190600190039081610b415790505b50915060005b84811015610c1657610bc68187610b799190611c6e565b600460008a73ffffffffffffffffffffffffffffffffffffffff1673ffffffffffffffffffffffffffffffffffffffff168152602001908152602001600020610f7590919063ffffffff16565b858381518110610bd957610bd8611d05565b5b60200260200101858481518110610bf357610bf2611d05565b5b602002602001018290528281525050508080610c0e90611d34565b915050610b62565b5050935093915050565b600080600080610c338660000186610fe3565b915091508160001c8160001c9350935050509250929050565b6000610c74836000018373ffffffffffffffffffffffffffffffffffffffff1660001b611023565b60001c905092915050565b610cfb848573ffffffffffffffffffffffffffffffffffffffff166323b872dd868686604051602401610cb493929190611fe0565b604051602081830303815290604052915060e01b6020820180517bffffffffffffffffffffffffffffffffffffffffffffffffffffffff83818316178352505050506110a3565b50505050565b6000610d2d846000018473ffffffffffffffffffffffffffffffffffffffff1660001b8460001b61113a565b90509392505050565b6000610d518260001b8460000161117590919063ffffffff16565b905092915050565b610dd3838473ffffffffffffffffffffffffffffffffffffffff1663a9059cbb8585604051602401610d8c929190611df7565b604051602081830303815290604052915060e01b6020820180517bffffffffffffffffffffffffffffffffffffffffffffffffffffffff83818316178352505050506110a3565b505050565b600082600201600083815260200190815260200160002060008082016000905560018201600090555050610e1b8260001b8460000161118c90919063ffffffff16565b905092915050565b610e2b6115ee565b600083600201600084815260200190815260200160002060405180604001604052908160008201548152602001600182015481525050905060008160200151148015610e7e5750610e7c8484610d36565b155b15610ec057826040517f3a054bd4000000000000000000000000000000000000000000000000000000008152600401610eb7919061190e565b60405180910390fd5b8091505092915050565b6000610ef2836000018373ffffffffffffffffffffffffffffffffffffffff1660001b6111a3565b905092915050565b6000818460020160008581526020019081526020016000206000820151816000015560208201518160010155905050610f428360001b856000016111dc90919063ffffffff16565b90509392505050565b6000610f59826000016111f3565b9050919050565b6000610f6e82600001611208565b9050919050565b6000610f7f6115ee565b6000610f97848660000161121d90919063ffffffff16565b90508060001c8560020160008360001c81526020019081526020016000208060405180604001604052908160008201548152602001600182015481525050905092509250509250929050565b6000806000610ffe848660000161121d90919063ffffffff16565b9050808560020160008381526020019081526020016000205492509250509250929050565b6000808360020160008481526020019081526020016000205490506000801b8114801561105757506110558484611234565b155b1561109957826040517f02b566860000000000000000000000000000000000000000000000000000000081526004016110909190612030565b60405180910390fd5b8091505092915050565b60006110ce828473ffffffffffffffffffffffffffffffffffffffff1661125490919063ffffffff16565b905060008151141580156110f35750808060200190518101906110f19190612083565b155b1561113557826040517f5274afe700000000000000000000000000000000000000000000000000000000815260040161112c91906120b0565b60405180910390fd5b505050565b6000818460020160008581526020019081526020016000208190555061116c83856000016111dc90919063ffffffff16565b90509392505050565b6000611184836000018361126a565b905092915050565b600061119b836000018361128d565b905092915050565b6000826002016000838152602001908152602001600020600090556111d4828460000161118c90919063ffffffff16565b905092915050565b60006111eb83600001836113a1565b905092915050565b600061120182600001611208565b9050919050565b600061121682600001611411565b9050919050565b600061122c8360000183611422565b905092915050565b600061124c828460000161117590919063ffffffff16565b905092915050565b60606112628383600061144d565b905092915050565b600080836001016000848152602001908152602001600020541415905092915050565b600080836001016000848152602001908152602001600020549050600081146113955760006001826112bf9190611ca2565b90506000600186600001805490506112d79190611ca2565b90508082146113465760008660000182815481106112f8576112f7611d05565b5b906000526020600020015490508087600001848154811061131c5761131b611d05565b5b90600052602060002001819055508387600101600083815260200190815260200160002081905550505b8560000180548061135a576113596120cb565b5b60019003818190600052602060002001600090559055856001016000868152602001908152602001600020600090556001935050505061139b565b60009150505b92915050565b60006113ad838361126a565b61140657826000018290806001815401808255809150506001900390600052602060002001600090919091909150558260000180549050836001016000848152602001908152602001600020819055506001905061140b565b600090505b92915050565b600081600001805490509050919050565b600082600001828154811061143a57611439611d05565b5b9060005260206000200154905092915050565b60608147101561149457306040517fcd78605900000000000000000000000000000000000000000000000000000000815260040161148b91906120b0565b60405180910390fd5b6000808573ffffffffffffffffffffffffffffffffffffffff1684866040516114bd919061216b565b60006040518083038185875af1925050503d80600081146114fa576040519150601f19603f3d011682016040523d82523d6000602084013e6114ff565b606091505b509150915061150f86838361151a565b925050509392505050565b60608261152f5761152a826115a9565b6115a1565b60008251148015611557575060008473ffffffffffffffffffffffffffffffffffffffff163b145b1561159957836040517f9996b31500000000000000000000000000000000000000000000000000000000815260040161159091906120b0565b60405180910390fd5b8190506115a2565b5b9392505050565b6000815111156115bc5780518082602001fd5b6040517f1425ea4200000000000000000000000000000000000000000000000000000000815260040160405180910390fd5b604051806040016040528060008152602001600081525090565b600067ffffffffffffffff82169050919050565b61162581611608565b82525050565b6000602082019050611640600083018461161c565b92915050565b600080fd5b6000819050919050565b61165e8161164b565b811461166957600080fd5b50565b60008135905061167b81611655565b92915050565b6000806040838503121561169857611697611646565b5b60006116a68582860161166c565b92505060206116b78582860161166c565b9150509250929050565b600081519050919050565b600082825260208201905092915050565b6000819050602082019050919050565b600073ffffffffffffffffffffffffffffffffffffffff82169050919050565b6000611718826116ed565b9050919050565b6117288161170d565b82525050565b600061173a838361171f565b60208301905092915050565b6000602082019050919050565b600061175e826116c1565b61176881856116cc565b9350611773836116dd565b8060005b838110156117a457815161178b888261172e565b975061179683611746565b925050600181019050611777565b5085935050505092915050565b600081519050919050565b600082825260208201905092915050565b6000819050602082019050919050565b6117e68161164b565b82525050565b60006117f883836117dd565b60208301905092915050565b6000602082019050919050565b600061181c826117b1565b61182681856117bc565b9350611831836117cd565b8060005b8381101561186257815161184988826117ec565b975061185483611804565b925050600181019050611835565b5085935050505092915050565b600060408201905081810360008301526118898185611753565b9050818103602083015261189d8184611811565b90509392505050565b6118af8161170d565b81146118ba57600080fd5b50565b6000813590506118cc816118a6565b92915050565b6000602082840312156118e8576118e7611646565b5b60006118f6848285016118bd565b91505092915050565b6119088161164b565b82525050565b600060208201905061192360008301846118ff565b92915050565b6000819050919050565b600061194e611949611944846116ed565b611929565b6116ed565b9050919050565b600061196082611933565b9050919050565b600061197282611955565b9050919050565b61198281611967565b82525050565b600060208201905061199d6000830184611979565b92915050565b6000602082840312156119b9576119b8611646565b5b60006119c78482850161166c565b91505092915050565b600080604083850312156119e7576119e6611646565b5b60006119f5858286016118bd565b9250506020611a068582860161166c565b9150509250929050565b604082016000820151611a2660008501826117dd565b506020820151611a3960208501826117dd565b50505050565b6000604082019050611a546000830184611a10565b92915050565b600080600060608486031215611a7357611a72611646565b5b6000611a81868287016118bd565b9350506020611a928682870161166c565b9250506040611aa38682870161166c565b9150509250925092565b600081519050919050565b600082825260208201905092915050565b6000819050602082019050919050565b604082016000820151611aef60008501826117dd565b506020820151611b0260208501826117dd565b50505050565b6000611b148383611ad9565b60408301905092915050565b6000602082019050919050565b6000611b3882611aad565b611b428185611ab8565b9350611b4d83611ac9565b8060005b83811015611b7e578151611b658882611b08565b9750611b7083611b20565b925050600181019050611b51565b5085935050505092915050565b60006040820190508181036000830152611ba58185611811565b90508181036020830152611bb98184611b2d565b90509392505050565b600082825260208201905092915050565b7f696e76616c696420737461727400000000000000000000000000000000000000600082015250565b6000611c09600d83611bc2565b9150611c1482611bd3565b602082019050919050565b60006020820190508181036000830152611c3881611bfc565b9050919050565b7f4e487b7100000000000000000000000000000000000000000000000000000000600052601160045260246000fd5b6000611c798261164b565b9150611c848361164b565b9250828201905080821115611c9c57611c9b611c3f565b5b92915050565b6000611cad8261164b565b9150611cb88361164b565b9250828203905081811115611cd057611ccf611c3f565b5b92915050565b7f4e487b7100000000000000000000000000000000000000000000000000000000600052604160045260246000fd5b7f4e487b7100000000000000000000000000000000000000000000000000000000600052603260045260246000fd5b6000611d3f8261164b565b91507fffffffffffffffffffffffffffffffffffffffffffffffffffffffffffffffff8203611d7157611d70611c3f565b5b600182019050919050565b7f616d6f756e74206d7573742062652067726561746572207468616e2030000000600082015250565b6000611db2601d83611bc2565b9150611dbd82611d7c565b602082019050919050565b60006020820190508181036000830152611de181611da5565b9050919050565b611df18161170d565b82525050565b6000604082019050611e0c6000830185611de8565b611e1960208301846118ff565b9392505050565b7f6e6f6e6578697374656e74206170706c79000000000000000000000000000000600082015250565b6000611e56601183611bc2565b9150611e6182611e20565b602082019050919050565b60006020820190508181036000830152611e8581611e49565b9050919050565b7f756e7374616b65206c6f636b74696d65206e6f74206578706972656400000000600082015250565b6000611ec2601c83611bc2565b9150611ecd82611e8c565b602082019050919050565b60006020820190508181036000830152611ef181611eb5565b9050919050565b6000606082019050611f0d6000830186611de8565b611f1a60208301856118ff565b611f2760408301846118ff565b949350505050565b7f616d6f756e74206d757374206265206c657373207468616e207374616b657300600082015250565b6000611f65601f83611bc2565b9150611f7082611f2f565b602082019050919050565b60006020820190508181036000830152611f9481611f58565b9050919050565b6000608082019050611fb06000830187611de8565b611fbd60208301866118ff565b611fca60408301856118ff565b611fd760608301846118ff565b95945050505050565b6000606082019050611ff56000830186611de8565b6120026020830185611de8565b61200f60408301846118ff565b949350505050565b6000819050919050565b61202a81612017565b82525050565b60006020820190506120456000830184612021565b92915050565b60008115159050919050565b6120608161204b565b811461206b57600080fd5b50565b60008151905061207d81612057565b92915050565b60006020828403121561209957612098611646565b5b60006120a78482850161206e565b91505092915050565b60006020820190506120c56000830184611de8565b92915050565b7f4e487b7100000000000000000000000000000000000000000000000000000000600052603160045260246000fd5b600081519050919050565b600081905092915050565b60005b8381101561212e578082015181840152602081019050612113565b60008484015250505050565b6000612145826120fa565b61214f8185612105565b935061215f818560208601612110565b80840191505092915050565b6000612177828461213a565b91508190509291505056fea2646970667358221220f153d6bac3b1befdbaa6f818765514d94dbb852e924f9877236b50aa5695134564736f6c63430008140033",
  "devdoc": {
    "errors": {
      "AddressEmptyCode(address)": [
        {
          "details": "There's no code at `target` (it is not a contract)."
        }
      ],
      "AddressInsufficientBalance(address)": [
        {
          "details": "The ETH balance of the account is not enough to perform the operation."
        }
      ],
      "EnumerableMapNonexistentKey(bytes32)": [
        {
          "details": "Query for a nonexistent map key."
        }
      ],
      "FailedInnerCall()": [
        {
          "details": "A call to an address target failed. The target may have reverted."
        }
      ],
      "SafeERC20FailedOperation(address)": [
        {
          "details": "An operation with an ERC20 token failed."
        }
      ]
    },
    "kind": "dev",
    "methods": {},
    "version": 1
  },
  "userdoc": {
    "kind": "user",
    "methods": {},
    "version": 1
  },
  "storageLayout": {
    "storage": [
      {
        "astId": 2709,
        "contract": "contracts/core/OPAIStake.sol:OPAIStake",
        "label": "stakes",
        "offset": 0,
        "slot": "0",
        "type": "t_struct(AddressToUintMap)1618_storage"
      },
      {
        "astId": 2713,
        "contract": "contracts/core/OPAIStake.sol:OPAIStake",
        "label": "applyIds",
        "offset": 0,
        "slot": "3",
        "type": "t_mapping(t_address,t_uint256)"
      },
      {
        "astId": 2718,
        "contract": "contracts/core/OPAIStake.sol:OPAIStake",
        "label": "applies",
        "offset": 0,
        "slot": "4",
        "type": "t_mapping(t_address,t_struct(UintToApply)3733_storage)"
      }
    ],
    "types": {
      "t_address": {
        "encoding": "inplace",
        "label": "address",
        "numberOfBytes": "20"
      },
      "t_array(t_bytes32)dyn_storage": {
        "base": "t_bytes32",
        "encoding": "dynamic_array",
        "label": "bytes32[]",
        "numberOfBytes": "32"
      },
      "t_bytes32": {
        "encoding": "inplace",
        "label": "bytes32",
        "numberOfBytes": "32"
      },
      "t_mapping(t_address,t_struct(UintToApply)3733_storage)": {
        "encoding": "mapping",
        "key": "t_address",
        "label": "mapping(address => struct EnumerableApply.UintToApply)",
        "numberOfBytes": "32",
        "value": "t_struct(UintToApply)3733_storage"
      },
      "t_mapping(t_address,t_uint256)": {
        "encoding": "mapping",
        "key": "t_address",
        "label": "mapping(address => uint256)",
        "numberOfBytes": "32",
        "value": "t_uint256"
      },
      "t_mapping(t_bytes32,t_bytes32)": {
        "encoding": "mapping",
        "key": "t_bytes32",
        "label": "mapping(bytes32 => bytes32)",
        "numberOfBytes": "32",
        "value": "t_bytes32"
      },
      "t_mapping(t_bytes32,t_uint256)": {
        "encoding": "mapping",
        "key": "t_bytes32",
        "label": "mapping(bytes32 => uint256)",
        "numberOfBytes": "32",
        "value": "t_uint256"
      },
      "t_mapping(t_uint256,t_struct(ApplyInfo)3724_storage)": {
        "encoding": "mapping",
        "key": "t_uint256",
        "label": "mapping(uint256 => struct EnumerableApply.ApplyInfo)",
        "numberOfBytes": "32",
        "value": "t_struct(ApplyInfo)3724_storage"
      },
      "t_struct(AddressToUintMap)1618_storage": {
        "encoding": "inplace",
        "label": "struct EnumerableMap.AddressToUintMap",
        "members": [
          {
            "astId": 1617,
            "contract": "contracts/core/OPAIStake.sol:OPAIStake",
            "label": "_inner",
            "offset": 0,
            "slot": "0",
            "type": "t_struct(Bytes32ToBytes32Map)960_storage"
          }
        ],
        "numberOfBytes": "96"
      },
      "t_struct(ApplyInfo)3724_storage": {
        "encoding": "inplace",
        "label": "struct EnumerableApply.ApplyInfo",
        "members": [
          {
            "astId": 3721,
            "contract": "contracts/core/OPAIStake.sol:OPAIStake",
            "label": "amount",
            "offset": 0,
            "slot": "0",
            "type": "t_uint256"
          },
          {
            "astId": 3723,
            "contract": "contracts/core/OPAIStake.sol:OPAIStake",
            "label": "applyTime",
            "offset": 0,
            "slot": "1",
            "type": "t_uint256"
          }
        ],
        "numberOfBytes": "64"
      },
      "t_struct(Bytes32Set)2258_storage": {
        "encoding": "inplace",
        "label": "struct EnumerableSet.Bytes32Set",
        "members": [
          {
            "astId": 2257,
            "contract": "contracts/core/OPAIStake.sol:OPAIStake",
            "label": "_inner",
            "offset": 0,
            "slot": "0",
            "type": "t_struct(Set)2064_storage"
          }
        ],
        "numberOfBytes": "64"
      },
      "t_struct(Bytes32ToBytes32Map)960_storage": {
        "encoding": "inplace",
        "label": "struct EnumerableMap.Bytes32ToBytes32Map",
        "members": [
          {
            "astId": 955,
            "contract": "contracts/core/OPAIStake.sol:OPAIStake",
            "label": "_keys",
            "offset": 0,
            "slot": "0",
            "type": "t_struct(Bytes32Set)2258_storage"
          },
          {
            "astId": 959,
            "contract": "contracts/core/OPAIStake.sol:OPAIStake",
            "label": "_values",
            "offset": 0,
            "slot": "2",
            "type": "t_mapping(t_bytes32,t_bytes32)"
          }
        ],
        "numberOfBytes": "96"
      },
      "t_struct(Set)2064_storage": {
        "encoding": "inplace",
        "label": "struct EnumerableSet.Set",
        "members": [
          {
            "astId": 2059,
            "contract": "contracts/core/OPAIStake.sol:OPAIStake",
            "label": "_values",
            "offset": 0,
            "slot": "0",
            "type": "t_array(t_bytes32)dyn_storage"
          },
          {
            "astId": 2063,
            "contract": "contracts/core/OPAIStake.sol:OPAIStake",
            "label": "_positions",
            "offset": 0,
            "slot": "1",
            "type": "t_mapping(t_bytes32,t_uint256)"
          }
        ],
        "numberOfBytes": "64"
      },
      "t_struct(UintToApply)3733_storage": {
        "encoding": "inplace",
        "label": "struct EnumerableApply.UintToApply",
        "members": [
          {
            "astId": 3727,
            "contract": "contracts/core/OPAIStake.sol:OPAIStake",
            "label": "_keys",
            "offset": 0,
            "slot": "0",
            "type": "t_struct(Bytes32Set)2258_storage"
          },
          {
            "astId": 3732,
            "contract": "contracts/core/OPAIStake.sol:OPAIStake",
            "label": "_values",
            "offset": 0,
            "slot": "2",
            "type": "t_mapping(t_uint256,t_struct(ApplyInfo)3724_storage)"
          }
        ],
        "numberOfBytes": "96"
      },
      "t_uint256": {
        "encoding": "inplace",
        "label": "uint256",
        "numberOfBytes": "32"
      }
    }
  }
}