{
  "address": "0x392f8c6A8561ccc3ED33B37393e40F0B98f84286",
  "abi": [
    {
      "inputs": [
        {
          "internalType": "contract IERC20",
          "name": "token",
          "type": "address"
        }
      ],
      "stateMutability": "nonpayable",
      "type": "constructor"
    },
    {
      "inputs": [
        {
          "internalType": "uint256",
          "name": "key",
          "type": "uint256"
        }
      ],
      "name": "EnumerableMapNonexistentKey",
      "type": "error"
    },
    {
      "anonymous": false,
      "inputs": [
        {
          "indexed": false,
          "internalType": "address",
          "name": "account",
          "type": "address"
        },
        {
          "indexed": false,
          "internalType": "uint256",
          "name": "applyId",
          "type": "uint256"
        },
        {
          "indexed": false,
          "internalType": "uint256",
          "name": "amount",
          "type": "uint256"
        },
        {
          "indexed": false,
          "internalType": "uint256",
          "name": "applyTime",
          "type": "uint256"
        }
      ],
      "name": "ApplyUnstaked",
      "type": "event"
    },
    {
      "anonymous": false,
      "inputs": [
        {
          "indexed": false,
          "internalType": "address",
          "name": "account",
          "type": "address"
        },
        {
          "indexed": false,
          "internalType": "uint256",
          "name": "amount",
          "type": "uint256"
        }
      ],
      "name": "Staked",
      "type": "event"
    },
    {
      "anonymous": false,
      "inputs": [
        {
          "indexed": false,
          "internalType": "address",
          "name": "account",
          "type": "address"
        },
        {
          "indexed": false,
          "internalType": "uint256",
          "name": "applyId",
          "type": "uint256"
        },
        {
          "indexed": false,
          "internalType": "uint256",
          "name": "amount",
          "type": "uint256"
        }
      ],
      "name": "Unstaked",
      "type": "event"
    },
    {
      "inputs": [],
      "name": "LOCKTIME",
      "outputs": [
        {
          "internalType": "uint64",
          "name": "",
          "type": "uint64"
        }
      ],
      "stateMutability": "view",
      "type": "function"
    },
    {
      "inputs": [],
      "name": "TOKEN",
      "outputs": [
        {
          "internalType": "contract IERC20",
          "name": "",
          "type": "address"
        }
      ],
      "stateMutability": "view",
      "type": "function"
    },
    {
      "inputs": [
        {
          "internalType": "address",
          "name": "account",
          "type": "address"
        }
      ],
      "name": "applyLength",
      "outputs": [
        {
          "internalType": "uint256",
          "name": "",
          "type": "uint256"
        }
      ],
      "stateMutability": "view",
      "type": "function"
    },
    {
      "inputs": [
        {
          "internalType": "address",
          "name": "account",
          "type": "address"
        },
        {
          "internalType": "uint256",
          "name": "start",
          "type": "uint256"
        },
        {
          "internalType": "uint256",
          "name": "amount",
          "type": "uint256"
        }
      ],
      "name": "applyOf",
      "outputs": [
        {
          "internalType": "uint256[]",
          "name": "ids",
          "type": "uint256[]"
        },
        {
          "components": [
            {
              "internalType": "uint256",
              "name": "amount",
              "type": "uint256"
            },
            {
              "internalType": "uint256",
              "name": "applyTime",
              "type": "uint256"
            }
          ],
          "internalType": "struct EnumerableApply.ApplyInfo[]",
          "name": "infos",
          "type": "tuple[]"
        }
      ],
      "stateMutability": "view",
      "type": "function"
    },
    {
      "inputs": [
        {
          "internalType": "uint256",
          "name": "amount",
          "type": "uint256"
        }
      ],
      "name": "applyUnstake",
      "outputs": [],
      "stateMutability": "nonpayable",
      "type": "function"
    },
    {
      "inputs": [
        {
          "internalType": "address",
          "name": "account",
          "type": "address"
        },
        {
          "internalType": "uint256",
          "name": "applyId",
          "type": "uint256"
        }
      ],
      "name": "getApply",
      "outputs": [
        {
          "components": [
            {
              "internalType": "uint256",
              "name": "amount",
              "type": "uint256"
            },
            {
              "internalType": "uint256",
              "name": "applyTime",
              "type": "uint256"
            }
          ],
          "internalType": "struct EnumerableApply.ApplyInfo",
          "name": "info",
          "type": "tuple"
        }
      ],
      "stateMutability": "view",
      "type": "function"
    },
    {
      "inputs": [
        {
          "internalType": "address",
          "name": "account",
          "type": "address"
        }
      ],
      "name": "getStake",
      "outputs": [
        {
          "internalType": "uint256",
          "name": "",
          "type": "uint256"
        }
      ],
      "stateMutability": "view",
      "type": "function"
    },
    {
      "inputs": [
        {
          "internalType": "uint256",
          "name": "amount",
          "type": "uint256"
        }
      ],
      "name": "stake",
      "outputs": [],
      "stateMutability": "nonpayable",
      "type": "function"
    },
    {
      "inputs": [],
      "name": "stakeLength",
      "outputs": [
        {
          "internalType": "uint256",
          "name": "",
          "type": "uint256"
        }
      ],
      "stateMutability": "view",
      "type": "function"
    },
    {
      "inputs": [
        {
          "internalType": "uint256",
          "name": "start",
          "type": "uint256"
        },
        {
          "internalType": "uint256",
          "name": "amount",
          "type": "uint256"
        }
      ],
      "name": "stakesOf",
      "outputs": [
        {
          "internalType": "address[]",
          "name": "stakers",
          "type": "address[]"
        },
        {
          "internalType": "uint256[]",
          "name": "amounts",
          "type": "uint256[]"
        }
      ],
      "stateMutability": "view",
      "type": "function"
    },
    {
      "inputs": [
        {
          "internalType": "address",
          "name": "to",
          "type": "address"
        },
        {
          "internalType": "uint256",
          "name": "applyId",
          "type": "uint256"
        }
      ],
      "name": "unstake",
      "outputs": [],
      "stateMutability": "nonpayable",
      "type": "function"
    }
  ],
  "transactionHash": "0x0049b0cb695a3f6be4140dc61f3627bde658ea8caec3d7033df8d54a996ff8fa",
  "args": [
    "0xF4C3a4d9568672FB4A8174EfD29dDAB6255E8729"
  ],
  "numDeployments": 2,
  "solcInputHash": "85fe67a83e625234a2fa36ee6301bbae",
  "bytecode": "0x60c060405262093a8067ffffffffffffffff1660809067ffffffffffffffff168152503480156200002f57600080fd5b506040516200253038038062002530833981810160405281019062000055919062000110565b808073ffffffffffffffffffffffffffffffffffffffff1660a08173ffffffffffffffffffffffffffffffffffffffff1681525050505062000142565b600080fd5b600073ffffffffffffffffffffffffffffffffffffffff82169050919050565b6000620000c48262000097565b9050919050565b6000620000d882620000b7565b9050919050565b620000ea81620000cb565b8114620000f657600080fd5b50565b6000815190506200010a81620000df565b92915050565b60006020828403121562000129576200012862000092565b5b60006200013984828501620000f9565b91505092915050565b60805160a0516123b36200017d6000396000818161043c015281816104a9015261067f01526000818161025001526105fb01526123b36000f3fe608060405234801561001057600080fd5b50600436106100a95760003560e01c8063c2a672e011610071578063c2a672e014610167578063c3b44ef414610183578063ce5ba450146101b3578063d4967282146101cf578063f155c6bf146101ed578063f9a64cc01461021d576100a9565b8063242c8e69146100ae57806371bdf9ea146100cc5780637a766460146100fd57806382bfefc81461012d578063a694fc3a1461014b575b600080fd5b6100b661024e565b6040516100c3919061166e565b60405180910390f35b6100e660048036038101906100e191906116c4565b610272565b6040516100f49291906118b2565b60405180910390f35b61011760048036038101906101129190611915565b6103fb565b6040516101249190611951565b60405180910390f35b61013561043a565b60405161014291906119cb565b60405180910390f35b610165600480360381019061016091906119e6565b61045e565b005b610181600480360381019061017c9190611a13565b61055a565b005b61019d60048036038101906101989190611a13565b610759565b6040516101aa9190611a82565b60405180910390f35b6101cd60048036038101906101c891906119e6565b6107ba565b005b6101d76109db565b6040516101e49190611951565b60405180910390f35b61020760048036038101906102029190611915565b6109ec565b6040516102149190611951565b60405180910390f35b61023760048036038101906102329190611a9d565b610a3c565b604051610245929190611bce565b60405180910390f35b7f000000000000000000000000000000000000000000000000000000000000000081565b606080600061027f6109db565b9050600081146103f357808510156103f25780848661029e9190611c34565b11156102b35784816102b09190611c68565b93505b8367ffffffffffffffff8111156102cd576102cc611c9c565b5b6040519080825280602002602001820160405280156102fb5781602001602082028036833780820191505090505b5092508367ffffffffffffffff81111561031857610317611c9c565b5b6040519080825280602002602001820160405280156103465781602001602082028036833780820191505090505b50915060005b848110156103f05761037381876103639190611c34565b6000610be290919063ffffffff16565b85838151811061038657610385611ccb565b5b602002602001018584815181106103a05761039f611ccb565b5b60200260200101828152508273ffffffffffffffffffffffffffffffffffffffff1673ffffffffffffffffffffffffffffffffffffffff16815250505080806103e890611cfa565b91505061034c565b505b5b509250929050565b6000610411826000610c0e90919063ffffffff16565b61041e5760009050610435565b610432826000610c3e90919063ffffffff16565b90505b919050565b7f000000000000000000000000000000000000000000000000000000000000000081565b600081116104a1576040517f08c379a000000000000000000000000000000000000000000000000000000000815260040161049890611d9f565b60405180910390fd5b6104ee3330837f000000000000000000000000000000000000000000000000000000000000000073ffffffffffffffffffffffffffffffffffffffff16610c71909392919063ffffffff16565b60006104f9336103fb565b905061051c33838361050b9190611c34565b6000610cfa9092919063ffffffff16565b507f9e71bc8eea02a63969f509818f2dafb9254532904319f9dbda79b67bd34a5f3d338360405161054e929190611dce565b60405180910390a15050565b6105ab81600460003373ffffffffffffffffffffffffffffffffffffffff1673ffffffffffffffffffffffffffffffffffffffff168152602001908152602001600020610d2f90919063ffffffff16565b6105ea576040517f08c379a00000000000000000000000000000000000000000000000000000000081526004016105e190611e43565b60405180910390fd5b60006105f63383610759565b9050427f000000000000000000000000000000000000000000000000000000000000000067ffffffffffffffff1682602001516106339190611c34565b1115610674576040517f08c379a000000000000000000000000000000000000000000000000000000000815260040161066b90611eaf565b60405180910390fd5b6106c38382600001517f000000000000000000000000000000000000000000000000000000000000000073ffffffffffffffffffffffffffffffffffffffff16610d529092919063ffffffff16565b61071482600460003373ffffffffffffffffffffffffffffffffffffffff1673ffffffffffffffffffffffffffffffffffffffff168152602001908152602001600020610dd890919063ffffffff16565b507f7fc4727e062e336010f2c282598ef5f14facb3de68cf8195c2f23e1454b2b74e3383836000015160405161074c93929190611ecf565b60405180910390a1505050565b610761611631565b6107b282600460008673ffffffffffffffffffffffffffffffffffffffff1673ffffffffffffffffffffffffffffffffffffffff168152602001908152602001600020610e2390919063ffffffff16565b905092915050565b600081116107fd576040517f08c379a00000000000000000000000000000000000000000000000000000000081526004016107f490611d9f565b60405180910390fd5b6000610808336103fb565b90508082111561084d576040517f08c379a000000000000000000000000000000000000000000000000000000000815260040161084490611f52565b60405180910390fd5b6000600360003373ffffffffffffffffffffffffffffffffffffffff1673ffffffffffffffffffffffffffffffffffffffff1681526020019081526020016000205490506000838361089f9190611c68565b9050600081036108c3576108bd336000610eca90919063ffffffff16565b506108db565b6108d933826000610cfa9092919063ffffffff16565b505b61094282604051806040016040528087815260200142815250600460003373ffffffffffffffffffffffffffffffffffffffff1673ffffffffffffffffffffffffffffffffffffffff168152602001908152602001600020610efa9092919063ffffffff16565b50600360003373ffffffffffffffffffffffffffffffffffffffff1673ffffffffffffffffffffffffffffffffffffffff168152602001908152602001600020600081548092919061099390611cfa565b91905055507fb3a097b9b09df137b8d0b2cd75a0006fdbeb32e0cc39366c7fa0929d1ce9fc21338386426040516109cd9493929190611f72565b60405180910390a150505050565b60006109e76000610f4b565b905090565b6000610a35600460008473ffffffffffffffffffffffffffffffffffffffff1673ffffffffffffffffffffffffffffffffffffffff168152602001908152602001600020610f60565b9050919050565b6060806000610a4a866109ec565b905060008114610bd95780851015610bd857808486610a699190611c34565b1115610a7e578481610a7b9190611c68565b93505b8367ffffffffffffffff811115610a9857610a97611c9c565b5b604051908082528060200260200182016040528015610ac65781602001602082028036833780820191505090505b5092508367ffffffffffffffff811115610ae357610ae2611c9c565b5b604051908082528060200260200182016040528015610b1c57816020015b610b09611631565b815260200190600190039081610b015790505b50915060005b84811015610bd657610b868187610b399190611c34565b600460008a73ffffffffffffffffffffffffffffffffffffffff1673ffffffffffffffffffffffffffffffffffffffff168152602001908152602001600020610f7590919063ffffffff16565b858381518110610b9957610b98611ccb565b5b60200260200101858481518110610bb357610bb2611ccb565b5b602002602001018290528281525050508080610bce90611cfa565b915050610b22565b505b5b50935093915050565b600080600080610bf58660000186610fe3565b915091508160001c8160001c9350935050509250929050565b6000610c36836000018373ffffffffffffffffffffffffffffffffffffffff1660001b611023565b905092915050565b6000610c66836000018373ffffffffffffffffffffffffffffffffffffffff1660001b611043565b60001c905092915050565b610cf4846323b872dd60e01b858585604051602401610c9293929190611fb7565b604051602081830303815290604052907bffffffffffffffffffffffffffffffffffffffffffffffffffffffff19166020820180517bffffffffffffffffffffffffffffffffffffffffffffffffffffffff83818316178352505050506110bf565b50505050565b6000610d26846000018473ffffffffffffffffffffffffffffffffffffffff1660001b8460001b611187565b90509392505050565b6000610d4a8260001b846000016111c290919063ffffffff16565b905092915050565b610dd38363a9059cbb60e01b8484604051602401610d71929190611dce565b604051602081830303815290604052907bffffffffffffffffffffffffffffffffffffffffffffffffffffffff19166020820180517bffffffffffffffffffffffffffffffffffffffffffffffffffffffff83818316178352505050506110bf565b505050565b600082600201600083815260200190815260200160002060008082016000905560018201600090555050610e1b8260001b846000016111d990919063ffffffff16565b905092915050565b610e2b611631565b600083600201600084815260200190815260200160002060405180604001604052908160008201548152602001600182015481525050905060008160200151148015610e7e5750610e7c8484610d2f565b155b15610ec057826040517f3a054bd4000000000000000000000000000000000000000000000000000000008152600401610eb79190611951565b60405180910390fd5b8091505092915050565b6000610ef2836000018373ffffffffffffffffffffffffffffffffffffffff1660001b6111f0565b905092915050565b6000818460020160008581526020019081526020016000206000820151816000015560208201518160010155905050610f428360001b8560000161122990919063ffffffff16565b90509392505050565b6000610f5982600001611240565b9050919050565b6000610f6e82600001611255565b9050919050565b6000610f7f611631565b6000610f97848660000161126a90919063ffffffff16565b90508060001c8560020160008360001c81526020019081526020016000208060405180604001604052908160008201548152602001600182015481525050905092509250509250929050565b6000806000610ffe848660000161126a90919063ffffffff16565b9050808560020160008381526020019081526020016000205492509250509250929050565b600061103b82846000016111c290919063ffffffff16565b905092915050565b6000808360020160008481526020019081526020016000205490506000801b8114158061107657506110758484611023565b5b6110b5576040517f08c379a00000000000000000000000000000000000000000000000000000000081526004016110ac9061203a565b60405180910390fd5b8091505092915050565b6000611121826040518060400160405280602081526020017f5361666545524332303a206c6f772d6c6576656c2063616c6c206661696c65648152508573ffffffffffffffffffffffffffffffffffffffff166112819092919063ffffffff16565b90506000815114806111435750808060200190518101906111429190612092565b5b611182576040517f08c379a000000000000000000000000000000000000000000000000000000000815260040161117990612131565b60405180910390fd5b505050565b600081846002016000858152602001908152602001600020819055506111b9838560000161122990919063ffffffff16565b90509392505050565b60006111d18360000183611299565b905092915050565b60006111e883600001836112bc565b905092915050565b60008260020160008381526020019081526020016000206000905561122182846000016111d990919063ffffffff16565b905092915050565b600061123883600001836113d0565b905092915050565b600061124e82600001611255565b9050919050565b600061126382600001611440565b9050919050565b60006112798360000183611451565b905092915050565b6060611290848460008561147c565b90509392505050565b600080836001016000848152602001908152602001600020541415905092915050565b600080836001016000848152602001908152602001600020549050600081146113c45760006001826112ee9190611c68565b90506000600186600001805490506113069190611c68565b905081811461137557600086600001828154811061132757611326611ccb565b5b906000526020600020015490508087600001848154811061134b5761134a611ccb565b5b90600052602060002001819055508387600101600083815260200190815260200160002081905550505b8560000180548061138957611388612151565b5b6001900381819060005260206000200160009055905585600101600086815260200190815260200160002060009055600193505050506113ca565b60009150505b92915050565b60006113dc8383611299565b61143557826000018290806001815401808255809150506001900390600052602060002001600090919091909150558260000180549050836001016000848152602001908152602001600020819055506001905061143a565b600090505b92915050565b600081600001805490509050919050565b600082600001828154811061146957611468611ccb565b5b9060005260206000200154905092915050565b6060824710156114c1576040517f08c379a00000000000000000000000000000000000000000000000000000000081526004016114b8906121f2565b60405180910390fd5b6000808673ffffffffffffffffffffffffffffffffffffffff1685876040516114ea9190612283565b60006040518083038185875af1925050503d8060008114611527576040519150601f19603f3d011682016040523d82523d6000602084013e61152c565b606091505b509150915061153d87838387611549565b92505050949350505050565b606083156115ab5760008351036115a357611563856115be565b6115a2576040517f08c379a0000000000000000000000000000000000000000000000000000000008152600401611599906122e6565b60405180910390fd5b5b8290506115b6565b6115b583836115e1565b5b949350505050565b6000808273ffffffffffffffffffffffffffffffffffffffff163b119050919050565b6000825111156115f45781518083602001fd5b806040517f08c379a0000000000000000000000000000000000000000000000000000000008152600401611628919061235b565b60405180910390fd5b604051806040016040528060008152602001600081525090565b600067ffffffffffffffff82169050919050565b6116688161164b565b82525050565b6000602082019050611683600083018461165f565b92915050565b600080fd5b6000819050919050565b6116a18161168e565b81146116ac57600080fd5b50565b6000813590506116be81611698565b92915050565b600080604083850312156116db576116da611689565b5b60006116e9858286016116af565b92505060206116fa858286016116af565b9150509250929050565b600081519050919050565b600082825260208201905092915050565b6000819050602082019050919050565b600073ffffffffffffffffffffffffffffffffffffffff82169050919050565b600061175b82611730565b9050919050565b61176b81611750565b82525050565b600061177d8383611762565b60208301905092915050565b6000602082019050919050565b60006117a182611704565b6117ab818561170f565b93506117b683611720565b8060005b838110156117e75781516117ce8882611771565b97506117d983611789565b9250506001810190506117ba565b5085935050505092915050565b600081519050919050565b600082825260208201905092915050565b6000819050602082019050919050565b6118298161168e565b82525050565b600061183b8383611820565b60208301905092915050565b6000602082019050919050565b600061185f826117f4565b61186981856117ff565b935061187483611810565b8060005b838110156118a557815161188c888261182f565b975061189783611847565b925050600181019050611878565b5085935050505092915050565b600060408201905081810360008301526118cc8185611796565b905081810360208301526118e08184611854565b90509392505050565b6118f281611750565b81146118fd57600080fd5b50565b60008135905061190f816118e9565b92915050565b60006020828403121561192b5761192a611689565b5b600061193984828501611900565b91505092915050565b61194b8161168e565b82525050565b60006020820190506119666000830184611942565b92915050565b6000819050919050565b600061199161198c61198784611730565b61196c565b611730565b9050919050565b60006119a382611976565b9050919050565b60006119b582611998565b9050919050565b6119c5816119aa565b82525050565b60006020820190506119e060008301846119bc565b92915050565b6000602082840312156119fc576119fb611689565b5b6000611a0a848285016116af565b91505092915050565b60008060408385031215611a2a57611a29611689565b5b6000611a3885828601611900565b9250506020611a49858286016116af565b9150509250929050565b604082016000820151611a696000850182611820565b506020820151611a7c6020850182611820565b50505050565b6000604082019050611a976000830184611a53565b92915050565b600080600060608486031215611ab657611ab5611689565b5b6000611ac486828701611900565b9350506020611ad5868287016116af565b9250506040611ae6868287016116af565b9150509250925092565b600081519050919050565b600082825260208201905092915050565b6000819050602082019050919050565b604082016000820151611b326000850182611820565b506020820151611b456020850182611820565b50505050565b6000611b578383611b1c565b60408301905092915050565b6000602082019050919050565b6000611b7b82611af0565b611b858185611afb565b9350611b9083611b0c565b8060005b83811015611bc1578151611ba88882611b4b565b9750611bb383611b63565b925050600181019050611b94565b5085935050505092915050565b60006040820190508181036000830152611be88185611854565b90508181036020830152611bfc8184611b70565b90509392505050565b7f4e487b7100000000000000000000000000000000000000000000000000000000600052601160045260246000fd5b6000611c3f8261168e565b9150611c4a8361168e565b9250828201905080821115611c6257611c61611c05565b5b92915050565b6000611c738261168e565b9150611c7e8361168e565b9250828203905081811115611c9657611c95611c05565b5b92915050565b7f4e487b7100000000000000000000000000000000000000000000000000000000600052604160045260246000fd5b7f4e487b7100000000000000000000000000000000000000000000000000000000600052603260045260246000fd5b6000611d058261168e565b91507fffffffffffffffffffffffffffffffffffffffffffffffffffffffffffffffff8203611d3757611d36611c05565b5b600182019050919050565b600082825260208201905092915050565b7f616d6f756e74206d7573742062652067726561746572207468616e2030000000600082015250565b6000611d89601d83611d42565b9150611d9482611d53565b602082019050919050565b60006020820190508181036000830152611db881611d7c565b9050919050565b611dc881611750565b82525050565b6000604082019050611de36000830185611dbf565b611df06020830184611942565b9392505050565b7f6e6f6e6578697374656e74206170706c79000000000000000000000000000000600082015250565b6000611e2d601183611d42565b9150611e3882611df7565b602082019050919050565b60006020820190508181036000830152611e5c81611e20565b9050919050565b7f756e7374616b65206c6f636b74696d65206e6f74206578706972656400000000600082015250565b6000611e99601c83611d42565b9150611ea482611e63565b602082019050919050565b60006020820190508181036000830152611ec881611e8c565b9050919050565b6000606082019050611ee46000830186611dbf565b611ef16020830185611942565b611efe6040830184611942565b949350505050565b7f616d6f756e74206d757374206265206c657373207468616e207374616b657300600082015250565b6000611f3c601f83611d42565b9150611f4782611f06565b602082019050919050565b60006020820190508181036000830152611f6b81611f2f565b9050919050565b6000608082019050611f876000830187611dbf565b611f946020830186611942565b611fa16040830185611942565b611fae6060830184611942565b95945050505050565b6000606082019050611fcc6000830186611dbf565b611fd96020830185611dbf565b611fe66040830184611942565b949350505050565b7f456e756d657261626c654d61703a206e6f6e6578697374656e74206b65790000600082015250565b6000612024601e83611d42565b915061202f82611fee565b602082019050919050565b6000602082019050818103600083015261205381612017565b9050919050565b60008115159050919050565b61206f8161205a565b811461207a57600080fd5b50565b60008151905061208c81612066565b92915050565b6000602082840312156120a8576120a7611689565b5b60006120b68482850161207d565b91505092915050565b7f5361666545524332303a204552433230206f7065726174696f6e20646964206e60008201527f6f74207375636365656400000000000000000000000000000000000000000000602082015250565b600061211b602a83611d42565b9150612126826120bf565b604082019050919050565b6000602082019050818103600083015261214a8161210e565b9050919050565b7f4e487b7100000000000000000000000000000000000000000000000000000000600052603160045260246000fd5b7f416464726573733a20696e73756666696369656e742062616c616e636520666f60008201527f722063616c6c0000000000000000000000000000000000000000000000000000602082015250565b60006121dc602683611d42565b91506121e782612180565b604082019050919050565b6000602082019050818103600083015261220b816121cf565b9050919050565b600081519050919050565b600081905092915050565b60005b8381101561224657808201518184015260208101905061222b565b60008484015250505050565b600061225d82612212565b612267818561221d565b9350612277818560208601612228565b80840191505092915050565b600061228f8284612252565b915081905092915050565b7f416464726573733a2063616c6c20746f206e6f6e2d636f6e7472616374000000600082015250565b60006122d0601d83611d42565b91506122db8261229a565b602082019050919050565b600060208201905081810360008301526122ff816122c3565b9050919050565b600081519050919050565b6000601f19601f8301169050919050565b600061232d82612306565b6123378185611d42565b9350612347818560208601612228565b61235081612311565b840191505092915050565b600060208201905081810360008301526123758184612322565b90509291505056fea2646970667358221220186d3081075d28b7f13f7ae177b1e546da1aaf2bc1e2be2ae7c1f88934f11c9964736f6c63430008140033",
  "devdoc": {
    "kind": "dev",
    "methods": {},
    "version": 1
  },
  "userdoc": {
    "kind": "user",
    "methods": {},
    "version": 1
  },
  "storageLayout": {
    "storage": [
      {
        "astId": 7045,
        "contract": "contracts/core/OPAIStake.sol:OPAIStake",
        "label": "stakes",
        "offset": 0,
        "slot": "0",
        "type": "t_struct(AddressToUintMap)5676_storage"
      },
      {
        "astId": 7049,
        "contract": "contracts/core/OPAIStake.sol:OPAIStake",
        "label": "applyIds",
        "offset": 0,
        "slot": "3",
        "type": "t_mapping(t_address,t_uint256)"
      },
      {
        "astId": 7054,
        "contract": "contracts/core/OPAIStake.sol:OPAIStake",
        "label": "applies",
        "offset": 0,
        "slot": "4",
        "type": "t_mapping(t_address,t_struct(UintToApply)8419_storage)"
      }
    ],
    "types": {
      "t_address": {
        "encoding": "inplace",
        "label": "address",
        "numberOfBytes": "20"
      },
      "t_array(t_bytes32)dyn_storage": {
        "base": "t_bytes32",
        "encoding": "dynamic_array",
        "label": "bytes32[]",
        "numberOfBytes": "32"
      },
      "t_bytes32": {
        "encoding": "inplace",
        "label": "bytes32",
        "numberOfBytes": "32"
      },
      "t_mapping(t_address,t_struct(UintToApply)8419_storage)": {
        "encoding": "mapping",
        "key": "t_address",
        "label": "mapping(address => struct EnumerableApply.UintToApply)",
        "numberOfBytes": "32",
        "value": "t_struct(UintToApply)8419_storage"
      },
      "t_mapping(t_address,t_uint256)": {
        "encoding": "mapping",
        "key": "t_address",
        "label": "mapping(address => uint256)",
        "numberOfBytes": "32",
        "value": "t_uint256"
      },
      "t_mapping(t_bytes32,t_bytes32)": {
        "encoding": "mapping",
        "key": "t_bytes32",
        "label": "mapping(bytes32 => bytes32)",
        "numberOfBytes": "32",
        "value": "t_bytes32"
      },
      "t_mapping(t_bytes32,t_uint256)": {
        "encoding": "mapping",
        "key": "t_bytes32",
        "label": "mapping(bytes32 => uint256)",
        "numberOfBytes": "32",
        "value": "t_uint256"
      },
      "t_mapping(t_uint256,t_struct(ApplyInfo)8410_storage)": {
        "encoding": "mapping",
        "key": "t_uint256",
        "label": "mapping(uint256 => struct EnumerableApply.ApplyInfo)",
        "numberOfBytes": "32",
        "value": "t_struct(ApplyInfo)8410_storage"
      },
      "t_struct(AddressToUintMap)5676_storage": {
        "encoding": "inplace",
        "label": "struct EnumerableMap.AddressToUintMap",
        "members": [
          {
            "astId": 5675,
            "contract": "contracts/core/OPAIStake.sol:OPAIStake",
            "label": "_inner",
            "offset": 0,
            "slot": "0",
            "type": "t_struct(Bytes32ToBytes32Map)4926_storage"
          }
        ],
        "numberOfBytes": "96"
      },
      "t_struct(ApplyInfo)8410_storage": {
        "encoding": "inplace",
        "label": "struct EnumerableApply.ApplyInfo",
        "members": [
          {
            "astId": 8407,
            "contract": "contracts/core/OPAIStake.sol:OPAIStake",
            "label": "amount",
            "offset": 0,
            "slot": "0",
            "type": "t_uint256"
          },
          {
            "astId": 8409,
            "contract": "contracts/core/OPAIStake.sol:OPAIStake",
            "label": "applyTime",
            "offset": 0,
            "slot": "1",
            "type": "t_uint256"
          }
        ],
        "numberOfBytes": "64"
      },
      "t_struct(Bytes32Set)6373_storage": {
        "encoding": "inplace",
        "label": "struct EnumerableSet.Bytes32Set",
        "members": [
          {
            "astId": 6372,
            "contract": "contracts/core/OPAIStake.sol:OPAIStake",
            "label": "_inner",
            "offset": 0,
            "slot": "0",
            "type": "t_struct(Set)6179_storage"
          }
        ],
        "numberOfBytes": "64"
      },
      "t_struct(Bytes32ToBytes32Map)4926_storage": {
        "encoding": "inplace",
        "label": "struct EnumerableMap.Bytes32ToBytes32Map",
        "members": [
          {
            "astId": 4921,
            "contract": "contracts/core/OPAIStake.sol:OPAIStake",
            "label": "_keys",
            "offset": 0,
            "slot": "0",
            "type": "t_struct(Bytes32Set)6373_storage"
          },
          {
            "astId": 4925,
            "contract": "contracts/core/OPAIStake.sol:OPAIStake",
            "label": "_values",
            "offset": 0,
            "slot": "2",
            "type": "t_mapping(t_bytes32,t_bytes32)"
          }
        ],
        "numberOfBytes": "96"
      },
      "t_struct(Set)6179_storage": {
        "encoding": "inplace",
        "label": "struct EnumerableSet.Set",
        "members": [
          {
            "astId": 6174,
            "contract": "contracts/core/OPAIStake.sol:OPAIStake",
            "label": "_values",
            "offset": 0,
            "slot": "0",
            "type": "t_array(t_bytes32)dyn_storage"
          },
          {
            "astId": 6178,
            "contract": "contracts/core/OPAIStake.sol:OPAIStake",
            "label": "_indexes",
            "offset": 0,
            "slot": "1",
            "type": "t_mapping(t_bytes32,t_uint256)"
          }
        ],
        "numberOfBytes": "64"
      },
      "t_struct(UintToApply)8419_storage": {
        "encoding": "inplace",
        "label": "struct EnumerableApply.UintToApply",
        "members": [
          {
            "astId": 8413,
            "contract": "contracts/core/OPAIStake.sol:OPAIStake",
            "label": "_keys",
            "offset": 0,
            "slot": "0",
            "type": "t_struct(Bytes32Set)6373_storage"
          },
          {
            "astId": 8418,
            "contract": "contracts/core/OPAIStake.sol:OPAIStake",
            "label": "_values",
            "offset": 0,
            "slot": "2",
            "type": "t_mapping(t_uint256,t_struct(ApplyInfo)8410_storage)"
          }
        ],
        "numberOfBytes": "96"
      },
      "t_uint256": {
        "encoding": "inplace",
        "label": "uint256",
        "numberOfBytes": "32"
      }
    }
  }
}