{
  "address": "0xa79cfE0EaBDC7bfa8B721E6978E59F6Ad14e0d7b",
  "abi": [
    {
      "inputs": [
        {
          "internalType": "uint256",
          "name": "required",
          "type": "uint256"
        },
        {
          "internalType": "uint256",
          "name": "available",
          "type": "uint256"
        }
      ],
      "name": "InsufficientValue",
      "type": "error"
    },
    {
      "inputs": [
        {
          "internalType": "uint256",
          "name": "amount",
          "type": "uint256"
        }
      ],
      "name": "InvalidMaxSupply",
      "type": "error"
    },
    {
      "inputs": [
        {
          "internalType": "uint256",
          "name": "price",
          "type": "uint256"
        }
      ],
      "name": "InvalidPrice",
      "type": "error"
    },
    {
      "inputs": [
        {
          "internalType": "uint256",
          "name": "maxSupply",
          "type": "uint256"
        },
        {
          "internalType": "uint256",
          "name": "totalSupply",
          "type": "uint256"
        },
        {
          "internalType": "uint256",
          "name": "amount",
          "type": "uint256"
        }
      ],
      "name": "MaxSupplyExceeds",
      "type": "error"
    },
    {
      "anonymous": false,
      "inputs": [
        {
          "indexed": true,
          "internalType": "address",
          "name": "account",
          "type": "address"
        },
        {
          "indexed": true,
          "internalType": "address",
          "name": "operator",
          "type": "address"
        },
        {
          "indexed": false,
          "internalType": "bool",
          "name": "approved",
          "type": "bool"
        }
      ],
      "name": "ApprovalForAll",
      "type": "event"
    },
    {
      "anonymous": false,
      "inputs": [
        {
          "indexed": false,
          "internalType": "uint8",
          "name": "version",
          "type": "uint8"
        }
      ],
      "name": "Initialized",
      "type": "event"
    },
    {
      "anonymous": false,
      "inputs": [
        {
          "indexed": false,
          "internalType": "uint256",
          "name": "maxSupply",
          "type": "uint256"
        }
      ],
      "name": "MaxSupplyUpdated",
      "type": "event"
    },
    {
      "anonymous": false,
      "inputs": [
        {
          "indexed": true,
          "internalType": "address",
          "name": "previousOwner",
          "type": "address"
        },
        {
          "indexed": true,
          "internalType": "address",
          "name": "newOwner",
          "type": "address"
        }
      ],
      "name": "OwnershipTransferStarted",
      "type": "event"
    },
    {
      "anonymous": false,
      "inputs": [
        {
          "indexed": true,
          "internalType": "address",
          "name": "previousOwner",
          "type": "address"
        },
        {
          "indexed": true,
          "internalType": "address",
          "name": "newOwner",
          "type": "address"
        }
      ],
      "name": "OwnershipTransferred",
      "type": "event"
    },
    {
      "anonymous": false,
      "inputs": [
        {
          "indexed": false,
          "internalType": "uint256",
          "name": "price",
          "type": "uint256"
        }
      ],
      "name": "PriceUpdated",
      "type": "event"
    },
    {
      "anonymous": false,
      "inputs": [
        {
          "indexed": true,
          "internalType": "address",
          "name": "operator",
          "type": "address"
        },
        {
          "indexed": true,
          "internalType": "address",
          "name": "from",
          "type": "address"
        },
        {
          "indexed": true,
          "internalType": "address",
          "name": "to",
          "type": "address"
        },
        {
          "indexed": false,
          "internalType": "uint256[]",
          "name": "ids",
          "type": "uint256[]"
        },
        {
          "indexed": false,
          "internalType": "uint256[]",
          "name": "values",
          "type": "uint256[]"
        }
      ],
      "name": "TransferBatch",
      "type": "event"
    },
    {
      "anonymous": false,
      "inputs": [
        {
          "indexed": true,
          "internalType": "address",
          "name": "operator",
          "type": "address"
        },
        {
          "indexed": true,
          "internalType": "address",
          "name": "from",
          "type": "address"
        },
        {
          "indexed": true,
          "internalType": "address",
          "name": "to",
          "type": "address"
        },
        {
          "indexed": false,
          "internalType": "uint256",
          "name": "id",
          "type": "uint256"
        },
        {
          "indexed": false,
          "internalType": "uint256",
          "name": "value",
          "type": "uint256"
        }
      ],
      "name": "TransferSingle",
      "type": "event"
    },
    {
      "anonymous": false,
      "inputs": [
        {
          "indexed": false,
          "internalType": "string",
          "name": "value",
          "type": "string"
        },
        {
          "indexed": true,
          "internalType": "uint256",
          "name": "id",
          "type": "uint256"
        }
      ],
      "name": "URI",
      "type": "event"
    },
    {
      "inputs": [],
      "name": "TOKENID",
      "outputs": [
        {
          "internalType": "uint256",
          "name": "",
          "type": "uint256"
        }
      ],
      "stateMutability": "view",
      "type": "function"
    },
    {
      "inputs": [],
      "name": "acceptOwnership",
      "outputs": [],
      "stateMutability": "nonpayable",
      "type": "function"
    },
    {
      "inputs": [
        {
          "internalType": "address",
          "name": "account",
          "type": "address"
        },
        {
          "internalType": "uint256",
          "name": "id",
          "type": "uint256"
        }
      ],
      "name": "balanceOf",
      "outputs": [
        {
          "internalType": "uint256",
          "name": "",
          "type": "uint256"
        }
      ],
      "stateMutability": "view",
      "type": "function"
    },
    {
      "inputs": [
        {
          "internalType": "address[]",
          "name": "accounts",
          "type": "address[]"
        },
        {
          "internalType": "uint256[]",
          "name": "ids",
          "type": "uint256[]"
        }
      ],
      "name": "balanceOfBatch",
      "outputs": [
        {
          "internalType": "uint256[]",
          "name": "",
          "type": "uint256[]"
        }
      ],
      "stateMutability": "view",
      "type": "function"
    },
    {
      "inputs": [
        {
          "internalType": "address",
          "name": "account",
          "type": "address"
        },
        {
          "internalType": "uint256",
          "name": "id",
          "type": "uint256"
        },
        {
          "internalType": "uint256",
          "name": "value",
          "type": "uint256"
        }
      ],
      "name": "burn",
      "outputs": [],
      "stateMutability": "nonpayable",
      "type": "function"
    },
    {
      "inputs": [
        {
          "internalType": "address",
          "name": "account",
          "type": "address"
        },
        {
          "internalType": "uint256[]",
          "name": "ids",
          "type": "uint256[]"
        },
        {
          "internalType": "uint256[]",
          "name": "values",
          "type": "uint256[]"
        }
      ],
      "name": "burnBatch",
      "outputs": [],
      "stateMutability": "nonpayable",
      "type": "function"
    },
    {
      "inputs": [
        {
          "internalType": "uint256",
          "name": "id",
          "type": "uint256"
        }
      ],
      "name": "exists",
      "outputs": [
        {
          "internalType": "bool",
          "name": "",
          "type": "bool"
        }
      ],
      "stateMutability": "view",
      "type": "function"
    },
    {
      "inputs": [
        {
          "internalType": "uint256",
          "name": "_maxSupply",
          "type": "uint256"
        },
        {
          "internalType": "uint256",
          "name": "_price",
          "type": "uint256"
        }
      ],
      "name": "init",
      "outputs": [],
      "stateMutability": "nonpayable",
      "type": "function"
    },
    {
      "inputs": [
        {
          "internalType": "address",
          "name": "owner",
          "type": "address"
        }
      ],
      "name": "initialize",
      "outputs": [],
      "stateMutability": "nonpayable",
      "type": "function"
    },
    {
      "inputs": [
        {
          "internalType": "address",
          "name": "account",
          "type": "address"
        },
        {
          "internalType": "address",
          "name": "operator",
          "type": "address"
        }
      ],
      "name": "isApprovedForAll",
      "outputs": [
        {
          "internalType": "bool",
          "name": "",
          "type": "bool"
        }
      ],
      "stateMutability": "view",
      "type": "function"
    },
    {
      "inputs": [],
      "name": "maxSupply",
      "outputs": [
        {
          "internalType": "uint256",
          "name": "",
          "type": "uint256"
        }
      ],
      "stateMutability": "view",
      "type": "function"
    },
    {
      "inputs": [
        {
          "internalType": "address",
          "name": "to",
          "type": "address"
        },
        {
          "internalType": "uint256",
          "name": "amount",
          "type": "uint256"
        }
      ],
      "name": "mint",
      "outputs": [],
      "stateMutability": "payable",
      "type": "function"
    },
    {
      "inputs": [],
      "name": "owner",
      "outputs": [
        {
          "internalType": "address",
          "name": "",
          "type": "address"
        }
      ],
      "stateMutability": "view",
      "type": "function"
    },
    {
      "inputs": [],
      "name": "pendingOwner",
      "outputs": [
        {
          "internalType": "address",
          "name": "",
          "type": "address"
        }
      ],
      "stateMutability": "view",
      "type": "function"
    },
    {
      "inputs": [],
      "name": "price",
      "outputs": [
        {
          "internalType": "uint256",
          "name": "",
          "type": "uint256"
        }
      ],
      "stateMutability": "view",
      "type": "function"
    },
    {
      "inputs": [],
      "name": "renounceOwnership",
      "outputs": [],
      "stateMutability": "nonpayable",
      "type": "function"
    },
    {
      "inputs": [
        {
          "internalType": "address",
          "name": "from",
          "type": "address"
        },
        {
          "internalType": "address",
          "name": "to",
          "type": "address"
        },
        {
          "internalType": "uint256[]",
          "name": "ids",
          "type": "uint256[]"
        },
        {
          "internalType": "uint256[]",
          "name": "amounts",
          "type": "uint256[]"
        },
        {
          "internalType": "bytes",
          "name": "data",
          "type": "bytes"
        }
      ],
      "name": "safeBatchTransferFrom",
      "outputs": [],
      "stateMutability": "nonpayable",
      "type": "function"
    },
    {
      "inputs": [
        {
          "internalType": "address",
          "name": "from",
          "type": "address"
        },
        {
          "internalType": "address",
          "name": "to",
          "type": "address"
        },
        {
          "internalType": "uint256",
          "name": "id",
          "type": "uint256"
        },
        {
          "internalType": "uint256",
          "name": "amount",
          "type": "uint256"
        },
        {
          "internalType": "bytes",
          "name": "data",
          "type": "bytes"
        }
      ],
      "name": "safeTransferFrom",
      "outputs": [],
      "stateMutability": "nonpayable",
      "type": "function"
    },
    {
      "inputs": [
        {
          "internalType": "address",
          "name": "operator",
          "type": "address"
        },
        {
          "internalType": "bool",
          "name": "approved",
          "type": "bool"
        }
      ],
      "name": "setApprovalForAll",
      "outputs": [],
      "stateMutability": "nonpayable",
      "type": "function"
    },
    {
      "inputs": [
        {
          "internalType": "uint256",
          "name": "amount",
          "type": "uint256"
        }
      ],
      "name": "setMaxSupply",
      "outputs": [],
      "stateMutability": "nonpayable",
      "type": "function"
    },
    {
      "inputs": [
        {
          "internalType": "uint256",
          "name": "_price",
          "type": "uint256"
        }
      ],
      "name": "setPrice",
      "outputs": [],
      "stateMutability": "nonpayable",
      "type": "function"
    },
    {
      "inputs": [
        {
          "internalType": "string",
          "name": "_uri",
          "type": "string"
        }
      ],
      "name": "setTokenURI",
      "outputs": [],
      "stateMutability": "nonpayable",
      "type": "function"
    },
    {
      "inputs": [
        {
          "internalType": "bytes4",
          "name": "interfaceId",
          "type": "bytes4"
        }
      ],
      "name": "supportsInterface",
      "outputs": [
        {
          "internalType": "bool",
          "name": "",
          "type": "bool"
        }
      ],
      "stateMutability": "view",
      "type": "function"
    },
    {
      "inputs": [],
      "name": "tokenURI",
      "outputs": [
        {
          "internalType": "string",
          "name": "",
          "type": "string"
        }
      ],
      "stateMutability": "view",
      "type": "function"
    },
    {
      "inputs": [
        {
          "internalType": "uint256",
          "name": "id",
          "type": "uint256"
        }
      ],
      "name": "totalSupply",
      "outputs": [
        {
          "internalType": "uint256",
          "name": "",
          "type": "uint256"
        }
      ],
      "stateMutability": "view",
      "type": "function"
    },
    {
      "inputs": [
        {
          "internalType": "address",
          "name": "newOwner",
          "type": "address"
        }
      ],
      "name": "transferOwnership",
      "outputs": [],
      "stateMutability": "nonpayable",
      "type": "function"
    },
    {
      "inputs": [
        {
          "internalType": "uint256",
          "name": "tokenId",
          "type": "uint256"
        }
      ],
      "name": "uri",
      "outputs": [
        {
          "internalType": "string",
          "name": "",
          "type": "string"
        }
      ],
      "stateMutability": "view",
      "type": "function"
    }
  ],
  "transactionHash": "0x925caa3ae11b585c93efeb53959c62497cb7eef23d29ddb2681fbf6f86e95480",
  "args": [],
  "numDeployments": 1,
  "solcInputHash": "99ebff5b43947df9536a4a7858b5a51b",
  "bytecode": "0x608060405234801561001057600080fd5b5061490b806100206000396000f3fe60806040526004361061019b5760003560e01c806391b7f5ed116100ec578063e0df5b6f1161008a578063f242432a11610064578063f242432a146105b4578063f2fde38b146105dd578063f5298aca14610606578063fea47c491461062f5761019b565b8063e0df5b6f14610523578063e30c39781461054c578063e985e9c5146105775761019b565b8063a5843f08116100c6578063a5843f0814610469578063bd85b03914610492578063c4d66de8146104cf578063d5abeb01146104f85761019b565b806391b7f5ed146103ec578063a035b1fe14610415578063a22cb465146104405761019b565b80634e1273f4116101595780636f8b44b0116101335780636f8b44b01461036a578063715018a61461039357806379ba5097146103aa5780638da5cb5b146103c15761019b565b80634e1273f4146102c75780634f558e79146103045780636b20c454146103415761019b565b8062fdd58e146101a057806301ffc9a7146101dd5780630e89341c1461021a5780632eb2c2d6146102575780633c130d901461028057806340c10f19146102ab575b600080fd5b3480156101ac57600080fd5b506101c760048036038101906101c29190612c24565b61065a565b6040516101d49190612c73565b60405180910390f35b3480156101e957600080fd5b5061020460048036038101906101ff9190612ce6565b610723565b6040516102119190612d2e565b60405180910390f35b34801561022657600080fd5b50610241600480360381019061023c9190612d49565b610805565b60405161024e9190612e06565b60405180910390f35b34801561026357600080fd5b5061027e60048036038101906102799190613025565b61089a565b005b34801561028c57600080fd5b5061029561093b565b6040516102a29190612e06565b60405180910390f35b6102c560048036038101906102c09190612c24565b6109ca565b005b3480156102d357600080fd5b506102ee60048036038101906102e991906131b7565b610b2b565b6040516102fb91906132ed565b60405180910390f35b34801561031057600080fd5b5061032b60048036038101906103269190612d49565b610c44565b6040516103389190612d2e565b60405180910390f35b34801561034d57600080fd5b506103686004803603810190610363919061330f565b610c58565b005b34801561037657600080fd5b50610391600480360381019061038c9190612d49565b610cf5565b005b34801561039f57600080fd5b506103a8610d09565b005b3480156103b657600080fd5b506103bf610d1d565b005b3480156103cd57600080fd5b506103d6610daa565b6040516103e391906133a9565b60405180910390f35b3480156103f857600080fd5b50610413600480360381019061040e9190612d49565b610dd4565b005b34801561042157600080fd5b5061042a610de8565b6040516104379190612c73565b60405180910390f35b34801561044c57600080fd5b50610467600480360381019061046291906133f0565b610def565b005b34801561047557600080fd5b50610490600480360381019061048b9190613430565b610e05565b005b34801561049e57600080fd5b506104b960048036038101906104b49190612d49565b610e23565b6040516104c69190612c73565b60405180910390f35b3480156104db57600080fd5b506104f660048036038101906104f19190613470565b610e40565b005b34801561050457600080fd5b5061050d610fbe565b60405161051a9190612c73565b60405180910390f35b34801561052f57600080fd5b5061054a6004803603810190610545919061353e565b610fc5565b005b34801561055857600080fd5b5061056161101c565b60405161056e91906133a9565b60405180910390f35b34801561058357600080fd5b5061059e60048036038101906105999190613587565b611047565b6040516105ab9190612d2e565b60405180910390f35b3480156105c057600080fd5b506105db60048036038101906105d691906135c7565b6110db565b005b3480156105e957600080fd5b5061060460048036038101906105ff9190613470565b61117c565b005b34801561061257600080fd5b5061062d6004803603810190610628919061365e565b61122a565b005b34801561063b57600080fd5b506106446112c7565b6040516106519190612c73565b60405180910390f35b60008073ffffffffffffffffffffffffffffffffffffffff168373ffffffffffffffffffffffffffffffffffffffff16036106ca576040517f08c379a00000000000000000000000000000000000000000000000000000000081526004016106c190613723565b60405180910390fd5b6065600083815260200190815260200160002060008473ffffffffffffffffffffffffffffffffffffffff1673ffffffffffffffffffffffffffffffffffffffff16815260200190815260200160002054905092915050565b60007fd9b67a26000000000000000000000000000000000000000000000000000000007bffffffffffffffffffffffffffffffffffffffffffffffffffffffff1916827bffffffffffffffffffffffffffffffffffffffffffffffffffffffff191614806107ee57507f0e89341c000000000000000000000000000000000000000000000000000000007bffffffffffffffffffffffffffffffffffffffffffffffffffffffff1916827bffffffffffffffffffffffffffffffffffffffffffffffffffffffff1916145b806107fe57506107fd826112cc565b5b9050919050565b6060610161805461081590613772565b80601f016020809104026020016040519081016040528092919081815260200182805461084190613772565b801561088e5780601f106108635761010080835404028352916020019161088e565b820191906000526020600020905b81548152906001019060200180831161087157829003601f168201915b50505050509050919050565b6108a2611336565b73ffffffffffffffffffffffffffffffffffffffff168573ffffffffffffffffffffffffffffffffffffffff1614806108e857506108e7856108e2611336565b611047565b5b610927576040517f08c379a000000000000000000000000000000000000000000000000000000000815260040161091e90613815565b60405180910390fd5b610934858585858561133e565b5050505050565b610161805461094990613772565b80601f016020809104026020016040519081016040528092919081815260200182805461097590613772565b80156109c25780601f10610997576101008083540402835291602001916109c2565b820191906000526020600020905b8154815290600101906020018083116109a557829003601f168201915b505050505081565b61015f54816109d96000610e23565b6109e39190613864565b1115610a365761015f546109f76000610e23565b826040517ff37c62a0000000000000000000000000000000000000000000000000000000008152600401610a2d93929190613898565b60405180910390fd5b60006101605403610a8157610160546040517ff9632e86000000000000000000000000000000000000000000000000000000008152600401610a789190612c73565b60405180910390fd5b60006101605482610a9291906138cf565b905080341015610adb5780346040517f7040b58c000000000000000000000000000000000000000000000000000000008152600401610ad2929190613911565b60405180910390fd5b80341115610af957610af8338234610af3919061393a565b611662565b5b610b0a610b04610daa565b82611662565b610b268360008460405180602001604052806000815250611713565b505050565b60608151835114610b71576040517f08c379a0000000000000000000000000000000000000000000000000000000008152600401610b68906139e0565b60405180910390fd5b6000835167ffffffffffffffff811115610b8e57610b8d612e2d565b5b604051908082528060200260200182016040528015610bbc5781602001602082028036833780820191505090505b50905060005b8451811015610c3957610c09858281518110610be157610be0613a00565b5b6020026020010151858381518110610bfc57610bfb613a00565b5b602002602001015161065a565b828281518110610c1c57610c1b613a00565b5b60200260200101818152505080610c3290613a2f565b9050610bc2565b508091505092915050565b600080610c5083610e23565b119050919050565b610c60611336565b73ffffffffffffffffffffffffffffffffffffffff168373ffffffffffffffffffffffffffffffffffffffff161480610ca65750610ca583610ca0611336565b611047565b5b610ce5576040517f08c379a0000000000000000000000000000000000000000000000000000000008152600401610cdc90613815565b60405180910390fd5b610cf08383836118c4565b505050565b610cfd611b94565b610d0681611c12565b50565b610d11611b94565b610d1b6000611ca1565b565b6000610d27611336565b90508073ffffffffffffffffffffffffffffffffffffffff16610d4861101c565b73ffffffffffffffffffffffffffffffffffffffff1614610d9e576040517f08c379a0000000000000000000000000000000000000000000000000000000008152600401610d9590613ae9565b60405180910390fd5b610da781611ca1565b50565b600060fb60009054906101000a900473ffffffffffffffffffffffffffffffffffffffff16905090565b610ddc611b94565b610de581611cd3565b50565b6101605481565b610e01610dfa611336565b8383611d5a565b5050565b610e0d611b94565b610e1682611c12565b610e1f81611cd3565b5050565b600060976000838152602001908152602001600020549050919050565b60008060019054906101000a900460ff16159050808015610e715750600160008054906101000a900460ff1660ff16105b80610e9e5750610e8030611ec6565b158015610e9d5750600160008054906101000a900460ff1660ff16145b5b610edd576040517f08c379a0000000000000000000000000000000000000000000000000000000008152600401610ed490613b7b565b60405180910390fd5b60016000806101000a81548160ff021916908360ff1602179055508015610f1a576001600060016101000a81548160ff0219169083151502179055505b610f2382611ca1565b610f616040518060400160405280600b81526020017f5669676f722053746f6e65000000000000000000000000000000000000000000815250611ee9565b8015610fba5760008060016101000a81548160ff0219169083151502179055507f7f26b83ff96e1f2b6a682f133852f6798a09c465da95921460cefb38474024986001604051610fb19190613bed565b60405180910390a15b5050565b61015f5481565b610fcd611b94565b806101619081610fdd9190613daa565b5060007f6bb7ff708619ba0610cba295a58592e0451dee2622938c8755667688daf3529b6101616040516110119190613f00565b60405180910390a250565b600061012d60009054906101000a900473ffffffffffffffffffffffffffffffffffffffff16905090565b6000606660008473ffffffffffffffffffffffffffffffffffffffff1673ffffffffffffffffffffffffffffffffffffffff16815260200190815260200160002060008373ffffffffffffffffffffffffffffffffffffffff1673ffffffffffffffffffffffffffffffffffffffff16815260200190815260200160002060009054906101000a900460ff16905092915050565b6110e3611336565b73ffffffffffffffffffffffffffffffffffffffff168573ffffffffffffffffffffffffffffffffffffffff161480611129575061112885611123611336565b611047565b5b611168576040517f08c379a000000000000000000000000000000000000000000000000000000000815260040161115f90613815565b60405180910390fd5b6111758585858585611f44565b5050505050565b611184611b94565b8061012d60006101000a81548173ffffffffffffffffffffffffffffffffffffffff021916908373ffffffffffffffffffffffffffffffffffffffff1602179055508073ffffffffffffffffffffffffffffffffffffffff166111e5610daa565b73ffffffffffffffffffffffffffffffffffffffff167f38d16b8cac22d99fc7c124b9cd0de2d3fa1faef420bfe791d8c362d765e2270060405160405180910390a350565b611232611336565b73ffffffffffffffffffffffffffffffffffffffff168373ffffffffffffffffffffffffffffffffffffffff161480611278575061127783611272611336565b611047565b5b6112b7576040517f08c379a00000000000000000000000000000000000000000000000000000000081526004016112ae90613815565b60405180910390fd5b6112c28383836121e2565b505050565b600081565b60007f01ffc9a7000000000000000000000000000000000000000000000000000000007bffffffffffffffffffffffffffffffffffffffffffffffffffffffff1916827bffffffffffffffffffffffffffffffffffffffffffffffffffffffff1916149050919050565b600033905090565b8151835114611382576040517f08c379a000000000000000000000000000000000000000000000000000000000815260040161137990613f94565b60405180910390fd5b600073ffffffffffffffffffffffffffffffffffffffff168473ffffffffffffffffffffffffffffffffffffffff16036113f1576040517f08c379a00000000000000000000000000000000000000000000000000000000081526004016113e890614026565b60405180910390fd5b60006113fb611336565b905061140b81878787878761242a565b60005b84518110156115bf57600085828151811061142c5761142b613a00565b5b60200260200101519050600085838151811061144b5761144a613a00565b5b6020026020010151905060006065600084815260200190815260200160002060008b73ffffffffffffffffffffffffffffffffffffffff1673ffffffffffffffffffffffffffffffffffffffff168152602001908152602001600020549050818110156114ed576040517f08c379a00000000000000000000000000000000000000000000000000000000081526004016114e4906140b8565b60405180910390fd5b8181036065600085815260200190815260200160002060008c73ffffffffffffffffffffffffffffffffffffffff1673ffffffffffffffffffffffffffffffffffffffff16815260200190815260200160002081905550816065600085815260200190815260200160002060008b73ffffffffffffffffffffffffffffffffffffffff1673ffffffffffffffffffffffffffffffffffffffff16815260200190815260200160002060008282546115a49190613864565b92505081905550505050806115b890613a2f565b905061140e565b508473ffffffffffffffffffffffffffffffffffffffff168673ffffffffffffffffffffffffffffffffffffffff168273ffffffffffffffffffffffffffffffffffffffff167f4a39dc06d4c0dbc64b70af90fd698a233a518aa5d07e595d983b8c0526c8f7fb87876040516116369291906140d8565b60405180910390a461164c818787878787612440565b61165a818787878787612448565b505050505050565b60008273ffffffffffffffffffffffffffffffffffffffff168260405161168890614140565b60006040518083038185875af1925050503d80600081146116c5576040519150601f19603f3d011682016040523d82523d6000602084013e6116ca565b606091505b505090508061170e576040517f08c379a0000000000000000000000000000000000000000000000000000000008152600401611705906141a1565b60405180910390fd5b505050565b600073ffffffffffffffffffffffffffffffffffffffff168473ffffffffffffffffffffffffffffffffffffffff1603611782576040517f08c379a000000000000000000000000000000000000000000000000000000000815260040161177990614233565b60405180910390fd5b600061178c611336565b905060006117998561261f565b905060006117a68561261f565b90506117b78360008985858961242a565b846065600088815260200190815260200160002060008973ffffffffffffffffffffffffffffffffffffffff1673ffffffffffffffffffffffffffffffffffffffff16815260200190815260200160002060008282546118179190613864565b925050819055508673ffffffffffffffffffffffffffffffffffffffff16600073ffffffffffffffffffffffffffffffffffffffff168473ffffffffffffffffffffffffffffffffffffffff167fc3d58168c5ae7397731d063d5bbf3d657854427343f4c083240f7aacaa2d0f628989604051611895929190613911565b60405180910390a46118ac83600089858589612440565b6118bb83600089898989612699565b50505050505050565b600073ffffffffffffffffffffffffffffffffffffffff168373ffffffffffffffffffffffffffffffffffffffff1603611933576040517f08c379a000000000000000000000000000000000000000000000000000000000815260040161192a906142c5565b60405180910390fd5b8051825114611977576040517f08c379a000000000000000000000000000000000000000000000000000000000815260040161196e90613f94565b60405180910390fd5b6000611981611336565b90506119a18185600086866040518060200160405280600081525061242a565b60005b8351811015611af05760008482815181106119c2576119c1613a00565b5b6020026020010151905060008483815181106119e1576119e0613a00565b5b6020026020010151905060006065600084815260200190815260200160002060008973ffffffffffffffffffffffffffffffffffffffff1673ffffffffffffffffffffffffffffffffffffffff16815260200190815260200160002054905081811015611a83576040517f08c379a0000000000000000000000000000000000000000000000000000000008152600401611a7a90614357565b60405180910390fd5b8181036065600085815260200190815260200160002060008a73ffffffffffffffffffffffffffffffffffffffff1673ffffffffffffffffffffffffffffffffffffffff168152602001908152602001600020819055505050508080611ae890613a2f565b9150506119a4565b50600073ffffffffffffffffffffffffffffffffffffffff168473ffffffffffffffffffffffffffffffffffffffff168273ffffffffffffffffffffffffffffffffffffffff167f4a39dc06d4c0dbc64b70af90fd698a233a518aa5d07e595d983b8c0526c8f7fb8686604051611b689291906140d8565b60405180910390a4611b8e81856000868660405180602001604052806000815250612440565b50505050565b611b9c611336565b73ffffffffffffffffffffffffffffffffffffffff16611bba610daa565b73ffffffffffffffffffffffffffffffffffffffff1614611c10576040517f08c379a0000000000000000000000000000000000000000000000000000000008152600401611c07906143c3565b60405180910390fd5b565b611c1c6000610e23565b8111611c5f57806040517f03d4e3b4000000000000000000000000000000000000000000000000000000008152600401611c569190612c73565b60405180910390fd5b8061015f819055507f7810bd47de260c3e9ee10061cf438099dd12256c79485f12f94dbccc981e806c81604051611c969190612c73565b60405180910390a150565b61012d60006101000a81549073ffffffffffffffffffffffffffffffffffffffff0219169055611cd081612870565b50565b60008103611d1857806040517ff9632e86000000000000000000000000000000000000000000000000000000008152600401611d0f9190612c73565b60405180910390fd5b80610160819055507f66cbca4f3c64fecf1dcb9ce094abcf7f68c3450a1d4e3a8e917dd621edb4ebe081604051611d4f9190612c73565b60405180910390a150565b8173ffffffffffffffffffffffffffffffffffffffff168373ffffffffffffffffffffffffffffffffffffffff1603611dc8576040517f08c379a0000000000000000000000000000000000000000000000000000000008152600401611dbf90614455565b60405180910390fd5b80606660008573ffffffffffffffffffffffffffffffffffffffff1673ffffffffffffffffffffffffffffffffffffffff16815260200190815260200160002060008473ffffffffffffffffffffffffffffffffffffffff1673ffffffffffffffffffffffffffffffffffffffff16815260200190815260200160002060006101000a81548160ff0219169083151502179055508173ffffffffffffffffffffffffffffffffffffffff168373ffffffffffffffffffffffffffffffffffffffff167f17307eab39ab6107e8899845ad3d59bd9653f200f220920489ca2b5937696c3183604051611eb99190612d2e565b60405180910390a3505050565b6000808273ffffffffffffffffffffffffffffffffffffffff163b119050919050565b600060019054906101000a900460ff16611f38576040517f08c379a0000000000000000000000000000000000000000000000000000000008152600401611f2f906144e7565b60405180910390fd5b611f4181612936565b50565b600073ffffffffffffffffffffffffffffffffffffffff168473ffffffffffffffffffffffffffffffffffffffff1603611fb3576040517f08c379a0000000000000000000000000000000000000000000000000000000008152600401611faa90614026565b60405180910390fd5b6000611fbd611336565b90506000611fca8561261f565b90506000611fd78561261f565b9050611fe783898985858961242a565b60006065600088815260200190815260200160002060008a73ffffffffffffffffffffffffffffffffffffffff1673ffffffffffffffffffffffffffffffffffffffff1681526020019081526020016000205490508581101561207f576040517f08c379a0000000000000000000000000000000000000000000000000000000008152600401612076906140b8565b60405180910390fd5b8581036065600089815260200190815260200160002060008b73ffffffffffffffffffffffffffffffffffffffff1673ffffffffffffffffffffffffffffffffffffffff16815260200190815260200160002081905550856065600089815260200190815260200160002060008a73ffffffffffffffffffffffffffffffffffffffff1673ffffffffffffffffffffffffffffffffffffffff16815260200190815260200160002060008282546121369190613864565b925050819055508773ffffffffffffffffffffffffffffffffffffffff168973ffffffffffffffffffffffffffffffffffffffff168573ffffffffffffffffffffffffffffffffffffffff167fc3d58168c5ae7397731d063d5bbf3d657854427343f4c083240f7aacaa2d0f628a8a6040516121b3929190613911565b60405180910390a46121c9848a8a86868a612440565b6121d7848a8a8a8a8a612699565b505050505050505050565b600073ffffffffffffffffffffffffffffffffffffffff168373ffffffffffffffffffffffffffffffffffffffff1603612251576040517f08c379a0000000000000000000000000000000000000000000000000000000008152600401612248906142c5565b60405180910390fd5b600061225b611336565b905060006122688461261f565b905060006122758461261f565b90506122958387600085856040518060200160405280600081525061242a565b60006065600087815260200190815260200160002060008873ffffffffffffffffffffffffffffffffffffffff1673ffffffffffffffffffffffffffffffffffffffff1681526020019081526020016000205490508481101561232d576040517f08c379a000000000000000000000000000000000000000000000000000000000815260040161232490614357565b60405180910390fd5b8481036065600088815260200190815260200160002060008973ffffffffffffffffffffffffffffffffffffffff1673ffffffffffffffffffffffffffffffffffffffff16815260200190815260200160002081905550600073ffffffffffffffffffffffffffffffffffffffff168773ffffffffffffffffffffffffffffffffffffffff168573ffffffffffffffffffffffffffffffffffffffff167fc3d58168c5ae7397731d063d5bbf3d657854427343f4c083240f7aacaa2d0f6289896040516123fb929190613911565b60405180910390a461242184886000868660405180602001604052806000815250612440565b50505050505050565b612438868686868686612991565b505050505050565b505050505050565b6124678473ffffffffffffffffffffffffffffffffffffffff16611ec6565b15612617578373ffffffffffffffffffffffffffffffffffffffff1663bc197c8187878686866040518663ffffffff1660e01b81526004016124ad95949392919061455c565b6020604051808303816000875af19250505080156124e957506040513d601f19601f820116820180604052508101906124e691906145d9565b60015b61258e576124f5614613565b806308c379a0036125515750612509614635565b806125145750612553565b806040517f08c379a00000000000000000000000000000000000000000000000000000000081526004016125489190612e06565b60405180910390fd5b505b6040517f08c379a000000000000000000000000000000000000000000000000000000000815260040161258590614737565b60405180910390fd5b63bc197c8160e01b7bffffffffffffffffffffffffffffffffffffffffffffffffffffffff1916817bffffffffffffffffffffffffffffffffffffffffffffffffffffffff191614612615576040517f08c379a000000000000000000000000000000000000000000000000000000000815260040161260c906147c9565b60405180910390fd5b505b505050505050565b60606000600167ffffffffffffffff81111561263e5761263d612e2d565b5b60405190808252806020026020018201604052801561266c5781602001602082028036833780820191505090505b509050828160008151811061268457612683613a00565b5b60200260200101818152505080915050919050565b6126b88473ffffffffffffffffffffffffffffffffffffffff16611ec6565b15612868578373ffffffffffffffffffffffffffffffffffffffff1663f23a6e6187878686866040518663ffffffff1660e01b81526004016126fe9594939291906147e9565b6020604051808303816000875af192505050801561273a57506040513d601f19601f8201168201806040525081019061273791906145d9565b60015b6127df57612746614613565b806308c379a0036127a2575061275a614635565b8061276557506127a4565b806040517f08c379a00000000000000000000000000000000000000000000000000000000081526004016127999190612e06565b60405180910390fd5b505b6040517f08c379a00000000000000000000000000000000000000000000000000000000081526004016127d690614737565b60405180910390fd5b63f23a6e6160e01b7bffffffffffffffffffffffffffffffffffffffffffffffffffffffff1916817bffffffffffffffffffffffffffffffffffffffffffffffffffffffff191614612866576040517f08c379a000000000000000000000000000000000000000000000000000000000815260040161285d906147c9565b60405180910390fd5b505b505050505050565b600060fb60009054906101000a900473ffffffffffffffffffffffffffffffffffffffff1690508160fb60006101000a81548173ffffffffffffffffffffffffffffffffffffffff021916908373ffffffffffffffffffffffffffffffffffffffff1602179055508173ffffffffffffffffffffffffffffffffffffffff168173ffffffffffffffffffffffffffffffffffffffff167f8be0079c531659141344cd1fd0a4f28419497f9722a3daafe3b4186f6b6457e060405160405180910390a35050565b600060019054906101000a900460ff16612985576040517f08c379a000000000000000000000000000000000000000000000000000000000815260040161297c906144e7565b60405180910390fd5b61298e81612b61565b50565b61299f868686868686612b74565b600073ffffffffffffffffffffffffffffffffffffffff168573ffffffffffffffffffffffffffffffffffffffff1603612a505760005b8351811015612a4e578281815181106129f2576129f1613a00565b5b602002602001015160976000868481518110612a1157612a10613a00565b5b602002602001015181526020019081526020016000206000828254612a369190613864565b9250508190555080612a4790613a2f565b90506129d6565b505b600073ffffffffffffffffffffffffffffffffffffffff168473ffffffffffffffffffffffffffffffffffffffff1603612b595760005b8351811015612b57576000848281518110612aa557612aa4613a00565b5b602002602001015190506000848381518110612ac457612ac3613a00565b5b6020026020010151905060006097600084815260200190815260200160002054905081811015612b29576040517f08c379a0000000000000000000000000000000000000000000000000000000008152600401612b20906148b5565b60405180910390fd5b818103609760008581526020019081526020016000208190555050505080612b5090613a2f565b9050612a87565b505b505050505050565b8060679081612b709190613daa565b5050565b505050505050565b6000604051905090565b600080fd5b600080fd5b600073ffffffffffffffffffffffffffffffffffffffff82169050919050565b6000612bbb82612b90565b9050919050565b612bcb81612bb0565b8114612bd657600080fd5b50565b600081359050612be881612bc2565b92915050565b6000819050919050565b612c0181612bee565b8114612c0c57600080fd5b50565b600081359050612c1e81612bf8565b92915050565b60008060408385031215612c3b57612c3a612b86565b5b6000612c4985828601612bd9565b9250506020612c5a85828601612c0f565b9150509250929050565b612c6d81612bee565b82525050565b6000602082019050612c886000830184612c64565b92915050565b60007fffffffff0000000000000000000000000000000000000000000000000000000082169050919050565b612cc381612c8e565b8114612cce57600080fd5b50565b600081359050612ce081612cba565b92915050565b600060208284031215612cfc57612cfb612b86565b5b6000612d0a84828501612cd1565b91505092915050565b60008115159050919050565b612d2881612d13565b82525050565b6000602082019050612d436000830184612d1f565b92915050565b600060208284031215612d5f57612d5e612b86565b5b6000612d6d84828501612c0f565b91505092915050565b600081519050919050565b600082825260208201905092915050565b60005b83811015612db0578082015181840152602081019050612d95565b60008484015250505050565b6000601f19601f8301169050919050565b6000612dd882612d76565b612de28185612d81565b9350612df2818560208601612d92565b612dfb81612dbc565b840191505092915050565b60006020820190508181036000830152612e208184612dcd565b905092915050565b600080fd5b7f4e487b7100000000000000000000000000000000000000000000000000000000600052604160045260246000fd5b612e6582612dbc565b810181811067ffffffffffffffff82111715612e8457612e83612e2d565b5b80604052505050565b6000612e97612b7c565b9050612ea38282612e5c565b919050565b600067ffffffffffffffff821115612ec357612ec2612e2d565b5b602082029050602081019050919050565b600080fd5b6000612eec612ee784612ea8565b612e8d565b90508083825260208201905060208402830185811115612f0f57612f0e612ed4565b5b835b81811015612f385780612f248882612c0f565b845260208401935050602081019050612f11565b5050509392505050565b600082601f830112612f5757612f56612e28565b5b8135612f67848260208601612ed9565b91505092915050565b600080fd5b600067ffffffffffffffff821115612f9057612f8f612e2d565b5b612f9982612dbc565b9050602081019050919050565b82818337600083830152505050565b6000612fc8612fc384612f75565b612e8d565b905082815260208101848484011115612fe457612fe3612f70565b5b612fef848285612fa6565b509392505050565b600082601f83011261300c5761300b612e28565b5b813561301c848260208601612fb5565b91505092915050565b600080600080600060a0868803121561304157613040612b86565b5b600061304f88828901612bd9565b955050602061306088828901612bd9565b945050604086013567ffffffffffffffff81111561308157613080612b8b565b5b61308d88828901612f42565b935050606086013567ffffffffffffffff8111156130ae576130ad612b8b565b5b6130ba88828901612f42565b925050608086013567ffffffffffffffff8111156130db576130da612b8b565b5b6130e788828901612ff7565b9150509295509295909350565b600067ffffffffffffffff82111561310f5761310e612e2d565b5b602082029050602081019050919050565b600061313361312e846130f4565b612e8d565b9050808382526020820190506020840283018581111561315657613155612ed4565b5b835b8181101561317f578061316b8882612bd9565b845260208401935050602081019050613158565b5050509392505050565b600082601f83011261319e5761319d612e28565b5b81356131ae848260208601613120565b91505092915050565b600080604083850312156131ce576131cd612b86565b5b600083013567ffffffffffffffff8111156131ec576131eb612b8b565b5b6131f885828601613189565b925050602083013567ffffffffffffffff81111561321957613218612b8b565b5b61322585828601612f42565b9150509250929050565b600081519050919050565b600082825260208201905092915050565b6000819050602082019050919050565b61326481612bee565b82525050565b6000613276838361325b565b60208301905092915050565b6000602082019050919050565b600061329a8261322f565b6132a4818561323a565b93506132af8361324b565b8060005b838110156132e05781516132c7888261326a565b97506132d283613282565b9250506001810190506132b3565b5085935050505092915050565b60006020820190508181036000830152613307818461328f565b905092915050565b60008060006060848603121561332857613327612b86565b5b600061333686828701612bd9565b935050602084013567ffffffffffffffff81111561335757613356612b8b565b5b61336386828701612f42565b925050604084013567ffffffffffffffff81111561338457613383612b8b565b5b61339086828701612f42565b9150509250925092565b6133a381612bb0565b82525050565b60006020820190506133be600083018461339a565b92915050565b6133cd81612d13565b81146133d857600080fd5b50565b6000813590506133ea816133c4565b92915050565b6000806040838503121561340757613406612b86565b5b600061341585828601612bd9565b9250506020613426858286016133db565b9150509250929050565b6000806040838503121561344757613446612b86565b5b600061345585828601612c0f565b925050602061346685828601612c0f565b9150509250929050565b60006020828403121561348657613485612b86565b5b600061349484828501612bd9565b91505092915050565b600067ffffffffffffffff8211156134b8576134b7612e2d565b5b6134c182612dbc565b9050602081019050919050565b60006134e16134dc8461349d565b612e8d565b9050828152602081018484840111156134fd576134fc612f70565b5b613508848285612fa6565b509392505050565b600082601f83011261352557613524612e28565b5b81356135358482602086016134ce565b91505092915050565b60006020828403121561355457613553612b86565b5b600082013567ffffffffffffffff81111561357257613571612b8b565b5b61357e84828501613510565b91505092915050565b6000806040838503121561359e5761359d612b86565b5b60006135ac85828601612bd9565b92505060206135bd85828601612bd9565b9150509250929050565b600080600080600060a086880312156135e3576135e2612b86565b5b60006135f188828901612bd9565b955050602061360288828901612bd9565b945050604061361388828901612c0f565b935050606061362488828901612c0f565b925050608086013567ffffffffffffffff81111561364557613644612b8b565b5b61365188828901612ff7565b9150509295509295909350565b60008060006060848603121561367757613676612b86565b5b600061368586828701612bd9565b935050602061369686828701612c0f565b92505060406136a786828701612c0f565b9150509250925092565b7f455243313135353a2061646472657373207a65726f206973206e6f742061207660008201527f616c6964206f776e657200000000000000000000000000000000000000000000602082015250565b600061370d602a83612d81565b9150613718826136b1565b604082019050919050565b6000602082019050818103600083015261373c81613700565b9050919050565b7f4e487b7100000000000000000000000000000000000000000000000000000000600052602260045260246000fd5b6000600282049050600182168061378a57607f821691505b60208210810361379d5761379c613743565b5b50919050565b7f455243313135353a2063616c6c6572206973206e6f7420746f6b656e206f776e60008201527f6572206f7220617070726f766564000000000000000000000000000000000000602082015250565b60006137ff602e83612d81565b915061380a826137a3565b604082019050919050565b6000602082019050818103600083015261382e816137f2565b9050919050565b7f4e487b7100000000000000000000000000000000000000000000000000000000600052601160045260246000fd5b600061386f82612bee565b915061387a83612bee565b925082820190508082111561389257613891613835565b5b92915050565b60006060820190506138ad6000830186612c64565b6138ba6020830185612c64565b6138c76040830184612c64565b949350505050565b60006138da82612bee565b91506138e583612bee565b92508282026138f381612bee565b9150828204841483151761390a57613909613835565b5b5092915050565b60006040820190506139266000830185612c64565b6139336020830184612c64565b9392505050565b600061394582612bee565b915061395083612bee565b925082820390508181111561396857613967613835565b5b92915050565b7f455243313135353a206163636f756e747320616e6420696473206c656e67746860008201527f206d69736d617463680000000000000000000000000000000000000000000000602082015250565b60006139ca602983612d81565b91506139d58261396e565b604082019050919050565b600060208201905081810360008301526139f9816139bd565b9050919050565b7f4e487b7100000000000000000000000000000000000000000000000000000000600052603260045260246000fd5b6000613a3a82612bee565b91507fffffffffffffffffffffffffffffffffffffffffffffffffffffffffffffffff8203613a6c57613a6b613835565b5b600182019050919050565b7f4f776e61626c6532537465703a2063616c6c6572206973206e6f74207468652060008201527f6e6577206f776e65720000000000000000000000000000000000000000000000602082015250565b6000613ad3602983612d81565b9150613ade82613a77565b604082019050919050565b60006020820190508181036000830152613b0281613ac6565b9050919050565b7f496e697469616c697a61626c653a20636f6e747261637420697320616c72656160008201527f647920696e697469616c697a6564000000000000000000000000000000000000602082015250565b6000613b65602e83612d81565b9150613b7082613b09565b604082019050919050565b60006020820190508181036000830152613b9481613b58565b9050919050565b6000819050919050565b600060ff82169050919050565b6000819050919050565b6000613bd7613bd2613bcd84613b9b565b613bb2565b613ba5565b9050919050565b613be781613bbc565b82525050565b6000602082019050613c026000830184613bde565b92915050565b60008190508160005260206000209050919050565b60006020601f8301049050919050565b600082821b905092915050565b600060088302613c6a7fffffffffffffffffffffffffffffffffffffffffffffffffffffffffffffffff82613c2d565b613c748683613c2d565b95508019841693508086168417925050509392505050565b6000613ca7613ca2613c9d84612bee565b613bb2565b612bee565b9050919050565b6000819050919050565b613cc183613c8c565b613cd5613ccd82613cae565b848454613c3a565b825550505050565b600090565b613cea613cdd565b613cf5818484613cb8565b505050565b5b81811015613d1957613d0e600082613ce2565b600181019050613cfb565b5050565b601f821115613d5e57613d2f81613c08565b613d3884613c1d565b81016020851015613d47578190505b613d5b613d5385613c1d565b830182613cfa565b50505b505050565b600082821c905092915050565b6000613d8160001984600802613d63565b1980831691505092915050565b6000613d9a8383613d70565b9150826002028217905092915050565b613db382612d76565b67ffffffffffffffff811115613dcc57613dcb612e2d565b5b613dd68254613772565b613de1828285613d1d565b600060209050601f831160018114613e145760008415613e02578287015190505b613e0c8582613d8e565b865550613e74565b601f198416613e2286613c08565b60005b82811015613e4a57848901518255600182019150602085019450602081019050613e25565b86831015613e675784890151613e63601f891682613d70565b8355505b6001600288020188555050505b505050505050565b60008154613e8981613772565b613e938186612d81565b94506001821660008114613eae5760018114613ec457613ef7565b60ff198316865281151560200286019350613ef7565b613ecd85613c08565b60005b83811015613eef57815481890152600182019150602081019050613ed0565b808801955050505b50505092915050565b60006020820190508181036000830152613f1a8184613e7c565b905092915050565b7f455243313135353a2069647320616e6420616d6f756e7473206c656e6774682060008201527f6d69736d61746368000000000000000000000000000000000000000000000000602082015250565b6000613f7e602883612d81565b9150613f8982613f22565b604082019050919050565b60006020820190508181036000830152613fad81613f71565b9050919050565b7f455243313135353a207472616e7366657220746f20746865207a65726f20616460008201527f6472657373000000000000000000000000000000000000000000000000000000602082015250565b6000614010602583612d81565b915061401b82613fb4565b604082019050919050565b6000602082019050818103600083015261403f81614003565b9050919050565b7f455243313135353a20696e73756666696369656e742062616c616e636520666f60008201527f72207472616e7366657200000000000000000000000000000000000000000000602082015250565b60006140a2602a83612d81565b91506140ad82614046565b604082019050919050565b600060208201905081810360008301526140d181614095565b9050919050565b600060408201905081810360008301526140f2818561328f565b90508181036020830152614106818461328f565b90509392505050565b600081905092915050565b50565b600061412a60008361410f565b91506141358261411a565b600082019050919050565b600061414b8261411d565b9150819050919050565b7f726566756e64206661696c656400000000000000000000000000000000000000600082015250565b600061418b600d83612d81565b915061419682614155565b602082019050919050565b600060208201905081810360008301526141ba8161417e565b9050919050565b7f455243313135353a206d696e7420746f20746865207a65726f2061646472657360008201527f7300000000000000000000000000000000000000000000000000000000000000602082015250565b600061421d602183612d81565b9150614228826141c1565b604082019050919050565b6000602082019050818103600083015261424c81614210565b9050919050565b7f455243313135353a206275726e2066726f6d20746865207a65726f206164647260008201527f6573730000000000000000000000000000000000000000000000000000000000602082015250565b60006142af602383612d81565b91506142ba82614253565b604082019050919050565b600060208201905081810360008301526142de816142a2565b9050919050565b7f455243313135353a206275726e20616d6f756e7420657863656564732062616c60008201527f616e636500000000000000000000000000000000000000000000000000000000602082015250565b6000614341602483612d81565b915061434c826142e5565b604082019050919050565b6000602082019050818103600083015261437081614334565b9050919050565b7f4f776e61626c653a2063616c6c6572206973206e6f7420746865206f776e6572600082015250565b60006143ad602083612d81565b91506143b882614377565b602082019050919050565b600060208201905081810360008301526143dc816143a0565b9050919050565b7f455243313135353a2073657474696e6720617070726f76616c2073746174757360008201527f20666f722073656c660000000000000000000000000000000000000000000000602082015250565b600061443f602983612d81565b915061444a826143e3565b604082019050919050565b6000602082019050818103600083015261446e81614432565b9050919050565b7f496e697469616c697a61626c653a20636f6e7472616374206973206e6f74206960008201527f6e697469616c697a696e67000000000000000000000000000000000000000000602082015250565b60006144d1602b83612d81565b91506144dc82614475565b604082019050919050565b60006020820190508181036000830152614500816144c4565b9050919050565b600081519050919050565b600082825260208201905092915050565b600061452e82614507565b6145388185614512565b9350614548818560208601612d92565b61455181612dbc565b840191505092915050565b600060a082019050614571600083018861339a565b61457e602083018761339a565b8181036040830152614590818661328f565b905081810360608301526145a4818561328f565b905081810360808301526145b88184614523565b90509695505050505050565b6000815190506145d381612cba565b92915050565b6000602082840312156145ef576145ee612b86565b5b60006145fd848285016145c4565b91505092915050565b60008160e01c9050919050565b600060033d11156146325760046000803e61462f600051614606565b90505b90565b600060443d106146c257614647612b7c565b60043d036004823e80513d602482011167ffffffffffffffff8211171561466f5750506146c2565b808201805167ffffffffffffffff81111561468d57505050506146c2565b80602083010160043d0385018111156146aa5750505050506146c2565b6146b982602001850186612e5c565b82955050505050505b90565b7f455243313135353a207472616e7366657220746f206e6f6e2d4552433131353560008201527f526563656976657220696d706c656d656e746572000000000000000000000000602082015250565b6000614721603483612d81565b915061472c826146c5565b604082019050919050565b6000602082019050818103600083015261475081614714565b9050919050565b7f455243313135353a204552433131353552656365697665722072656a6563746560008201527f6420746f6b656e73000000000000000000000000000000000000000000000000602082015250565b60006147b3602883612d81565b91506147be82614757565b604082019050919050565b600060208201905081810360008301526147e2816147a6565b9050919050565b600060a0820190506147fe600083018861339a565b61480b602083018761339a565b6148186040830186612c64565b6148256060830185612c64565b81810360808301526148378184614523565b90509695505050505050565b7f455243313135353a206275726e20616d6f756e74206578636565647320746f7460008201527f616c537570706c79000000000000000000000000000000000000000000000000602082015250565b600061489f602883612d81565b91506148aa82614843565b604082019050919050565b600060208201905081810360008301526148ce81614892565b905091905056fea2646970667358221220c40689a78ccfbf7a3e73a42e861045e4c91d68c139c75f04ebe64d0b327bf41864736f6c63430008140033",
  "devdoc": {
    "events": {
      "ApprovalForAll(address,address,bool)": {
        "details": "Emitted when `account` grants or revokes permission to `operator` to transfer their tokens, according to `approved`."
      },
      "Initialized(uint8)": {
        "details": "Triggered when the contract has been initialized or reinitialized."
      },
      "TransferBatch(address,address,address,uint256[],uint256[])": {
        "details": "Equivalent to multiple {TransferSingle} events, where `operator`, `from` and `to` are the same for all transfers."
      },
      "TransferSingle(address,address,address,uint256,uint256)": {
        "details": "Emitted when `value` tokens of token type `id` are transferred from `from` to `to` by `operator`."
      },
      "URI(string,uint256)": {
        "details": "Emitted when the URI for token type `id` changes to `value`, if it is a non-programmatic URI. If an {URI} event was emitted for `id`, the standard https://eips.ethereum.org/EIPS/eip-1155#metadata-extensions[guarantees] that `value` will equal the value returned by {IERC1155MetadataURI-uri}."
      }
    },
    "kind": "dev",
    "methods": {
      "acceptOwnership()": {
        "details": "The new owner accepts the ownership transfer."
      },
      "balanceOf(address,uint256)": {
        "details": "See {IERC1155-balanceOf}. Requirements: - `account` cannot be the zero address."
      },
      "balanceOfBatch(address[],uint256[])": {
        "details": "See {IERC1155-balanceOfBatch}. Requirements: - `accounts` and `ids` must have the same length."
      },
      "exists(uint256)": {
        "details": "Indicates whether any token exist with a given id, or not."
      },
      "isApprovedForAll(address,address)": {
        "details": "See {IERC1155-isApprovedForAll}."
      },
      "owner()": {
        "details": "Returns the address of the current owner."
      },
      "pendingOwner()": {
        "details": "Returns the address of the pending owner."
      },
      "renounceOwnership()": {
        "details": "Leaves the contract without owner. It will not be possible to call `onlyOwner` functions. Can only be called by the current owner. NOTE: Renouncing ownership will leave the contract without an owner, thereby disabling any functionality that is only available to the owner."
      },
      "safeBatchTransferFrom(address,address,uint256[],uint256[],bytes)": {
        "details": "See {IERC1155-safeBatchTransferFrom}."
      },
      "safeTransferFrom(address,address,uint256,uint256,bytes)": {
        "details": "See {IERC1155-safeTransferFrom}."
      },
      "setApprovalForAll(address,bool)": {
        "details": "See {IERC1155-setApprovalForAll}."
      },
      "supportsInterface(bytes4)": {
        "details": "See {IERC165-supportsInterface}."
      },
      "totalSupply(uint256)": {
        "details": "Total amount of tokens in with a given id."
      },
      "transferOwnership(address)": {
        "details": "Starts the ownership transfer of the contract to a new account. Replaces the pending transfer if there is one. Can only be called by the current owner."
      }
    },
    "version": 1
  },
  "userdoc": {
    "kind": "user",
    "methods": {},
    "version": 1
  },
  "storageLayout": {
    "storage": [
      {
        "astId": 246,
        "contract": "contracts/core/VigorStone.sol:VigorStone",
        "label": "_initialized",
        "offset": 0,
        "slot": "0",
        "type": "t_uint8"
      },
      {
        "astId": 249,
        "contract": "contracts/core/VigorStone.sol:VigorStone",
        "label": "_initializing",
        "offset": 1,
        "slot": "0",
        "type": "t_bool"
      },
      {
        "astId": 2480,
        "contract": "contracts/core/VigorStone.sol:VigorStone",
        "label": "__gap",
        "offset": 0,
        "slot": "1",
        "type": "t_array(t_uint256)50_storage"
      },
      {
        "astId": 2525,
        "contract": "contracts/core/VigorStone.sol:VigorStone",
        "label": "__gap",
        "offset": 0,
        "slot": "51",
        "type": "t_array(t_uint256)50_storage"
      },
      {
        "astId": 438,
        "contract": "contracts/core/VigorStone.sol:VigorStone",
        "label": "_balances",
        "offset": 0,
        "slot": "101",
        "type": "t_mapping(t_uint256,t_mapping(t_address,t_uint256))"
      },
      {
        "astId": 444,
        "contract": "contracts/core/VigorStone.sol:VigorStone",
        "label": "_operatorApprovals",
        "offset": 0,
        "slot": "102",
        "type": "t_mapping(t_address,t_mapping(t_address,t_bool))"
      },
      {
        "astId": 446,
        "contract": "contracts/core/VigorStone.sol:VigorStone",
        "label": "_uri",
        "offset": 0,
        "slot": "103",
        "type": "t_string_storage"
      },
      {
        "astId": 1653,
        "contract": "contracts/core/VigorStone.sol:VigorStone",
        "label": "__gap",
        "offset": 0,
        "slot": "104",
        "type": "t_array(t_uint256)47_storage"
      },
      {
        "astId": 1921,
        "contract": "contracts/core/VigorStone.sol:VigorStone",
        "label": "_totalSupply",
        "offset": 0,
        "slot": "151",
        "type": "t_mapping(t_uint256,t_uint256)"
      },
      {
        "astId": 2084,
        "contract": "contracts/core/VigorStone.sol:VigorStone",
        "label": "__gap",
        "offset": 0,
        "slot": "152",
        "type": "t_array(t_uint256)49_storage"
      },
      {
        "astId": 1906,
        "contract": "contracts/core/VigorStone.sol:VigorStone",
        "label": "__gap",
        "offset": 0,
        "slot": "201",
        "type": "t_array(t_uint256)50_storage"
      },
      {
        "astId": 118,
        "contract": "contracts/core/VigorStone.sol:VigorStone",
        "label": "_owner",
        "offset": 0,
        "slot": "251",
        "type": "t_address"
      },
      {
        "astId": 238,
        "contract": "contracts/core/VigorStone.sol:VigorStone",
        "label": "__gap",
        "offset": 0,
        "slot": "252",
        "type": "t_array(t_uint256)49_storage"
      },
      {
        "astId": 11,
        "contract": "contracts/core/VigorStone.sol:VigorStone",
        "label": "_pendingOwner",
        "offset": 0,
        "slot": "301",
        "type": "t_address"
      },
      {
        "astId": 105,
        "contract": "contracts/core/VigorStone.sol:VigorStone",
        "label": "__gap",
        "offset": 0,
        "slot": "302",
        "type": "t_array(t_uint256)49_storage"
      },
      {
        "astId": 8667,
        "contract": "contracts/core/VigorStone.sol:VigorStone",
        "label": "maxSupply",
        "offset": 0,
        "slot": "351",
        "type": "t_uint256"
      },
      {
        "astId": 8669,
        "contract": "contracts/core/VigorStone.sol:VigorStone",
        "label": "price",
        "offset": 0,
        "slot": "352",
        "type": "t_uint256"
      },
      {
        "astId": 8671,
        "contract": "contracts/core/VigorStone.sol:VigorStone",
        "label": "tokenURI",
        "offset": 0,
        "slot": "353",
        "type": "t_string_storage"
      }
    ],
    "types": {
      "t_address": {
        "encoding": "inplace",
        "label": "address",
        "numberOfBytes": "20"
      },
      "t_array(t_uint256)47_storage": {
        "base": "t_uint256",
        "encoding": "inplace",
        "label": "uint256[47]",
        "numberOfBytes": "1504"
      },
      "t_array(t_uint256)49_storage": {
        "base": "t_uint256",
        "encoding": "inplace",
        "label": "uint256[49]",
        "numberOfBytes": "1568"
      },
      "t_array(t_uint256)50_storage": {
        "base": "t_uint256",
        "encoding": "inplace",
        "label": "uint256[50]",
        "numberOfBytes": "1600"
      },
      "t_bool": {
        "encoding": "inplace",
        "label": "bool",
        "numberOfBytes": "1"
      },
      "t_mapping(t_address,t_bool)": {
        "encoding": "mapping",
        "key": "t_address",
        "label": "mapping(address => bool)",
        "numberOfBytes": "32",
        "value": "t_bool"
      },
      "t_mapping(t_address,t_mapping(t_address,t_bool))": {
        "encoding": "mapping",
        "key": "t_address",
        "label": "mapping(address => mapping(address => bool))",
        "numberOfBytes": "32",
        "value": "t_mapping(t_address,t_bool)"
      },
      "t_mapping(t_address,t_uint256)": {
        "encoding": "mapping",
        "key": "t_address",
        "label": "mapping(address => uint256)",
        "numberOfBytes": "32",
        "value": "t_uint256"
      },
      "t_mapping(t_uint256,t_mapping(t_address,t_uint256))": {
        "encoding": "mapping",
        "key": "t_uint256",
        "label": "mapping(uint256 => mapping(address => uint256))",
        "numberOfBytes": "32",
        "value": "t_mapping(t_address,t_uint256)"
      },
      "t_mapping(t_uint256,t_uint256)": {
        "encoding": "mapping",
        "key": "t_uint256",
        "label": "mapping(uint256 => uint256)",
        "numberOfBytes": "32",
        "value": "t_uint256"
      },
      "t_string_storage": {
        "encoding": "bytes",
        "label": "string",
        "numberOfBytes": "32"
      },
      "t_uint256": {
        "encoding": "inplace",
        "label": "uint256",
        "numberOfBytes": "32"
      },
      "t_uint8": {
        "encoding": "inplace",
        "label": "uint8",
        "numberOfBytes": "1"
      }
    }
  }
}