{
  "address": "0xC7Fb91e1A39b0E7D62eD5103E2E2a81D149564a4",
  "abi": [
    {
      "inputs": [
        {
          "internalType": "contract IERC1155",
          "name": "_token",
          "type": "address"
        }
      ],
      "stateMutability": "nonpayable",
      "type": "constructor"
    },
    {
      "inputs": [
        {
          "internalType": "uint256",
          "name": "key",
          "type": "uint256"
        }
      ],
      "name": "EnumerableMapNonexistentKey",
      "type": "error"
    },
    {
      "anonymous": false,
      "inputs": [
        {
          "indexed": false,
          "internalType": "address",
          "name": "account",
          "type": "address"
        },
        {
          "indexed": false,
          "internalType": "uint256",
          "name": "applyId",
          "type": "uint256"
        },
        {
          "indexed": false,
          "internalType": "uint256",
          "name": "amount",
          "type": "uint256"
        },
        {
          "indexed": false,
          "internalType": "uint256",
          "name": "applyTime",
          "type": "uint256"
        }
      ],
      "name": "ApplyUnstaked",
      "type": "event"
    },
    {
      "anonymous": false,
      "inputs": [
        {
          "indexed": false,
          "internalType": "address",
          "name": "account",
          "type": "address"
        },
        {
          "indexed": false,
          "internalType": "uint256",
          "name": "amount",
          "type": "uint256"
        }
      ],
      "name": "Staked",
      "type": "event"
    },
    {
      "anonymous": false,
      "inputs": [
        {
          "indexed": false,
          "internalType": "address",
          "name": "account",
          "type": "address"
        },
        {
          "indexed": false,
          "internalType": "uint256",
          "name": "applyId",
          "type": "uint256"
        },
        {
          "indexed": false,
          "internalType": "uint256",
          "name": "amount",
          "type": "uint256"
        }
      ],
      "name": "Unstaked",
      "type": "event"
    },
    {
      "inputs": [],
      "name": "LOCKTIME",
      "outputs": [
        {
          "internalType": "uint64",
          "name": "",
          "type": "uint64"
        }
      ],
      "stateMutability": "view",
      "type": "function"
    },
    {
      "inputs": [],
      "name": "MAXSTAKE",
      "outputs": [
        {
          "internalType": "uint256",
          "name": "",
          "type": "uint256"
        }
      ],
      "stateMutability": "view",
      "type": "function"
    },
    {
      "inputs": [],
      "name": "TOKEN",
      "outputs": [
        {
          "internalType": "contract IERC1155",
          "name": "",
          "type": "address"
        }
      ],
      "stateMutability": "view",
      "type": "function"
    },
    {
      "inputs": [],
      "name": "TOKENID",
      "outputs": [
        {
          "internalType": "uint256",
          "name": "",
          "type": "uint256"
        }
      ],
      "stateMutability": "view",
      "type": "function"
    },
    {
      "inputs": [
        {
          "internalType": "address",
          "name": "account",
          "type": "address"
        }
      ],
      "name": "applyLength",
      "outputs": [
        {
          "internalType": "uint256",
          "name": "",
          "type": "uint256"
        }
      ],
      "stateMutability": "view",
      "type": "function"
    },
    {
      "inputs": [
        {
          "internalType": "address",
          "name": "account",
          "type": "address"
        },
        {
          "internalType": "uint256",
          "name": "start",
          "type": "uint256"
        },
        {
          "internalType": "uint256",
          "name": "amount",
          "type": "uint256"
        }
      ],
      "name": "applyOf",
      "outputs": [
        {
          "internalType": "uint256[]",
          "name": "ids",
          "type": "uint256[]"
        },
        {
          "components": [
            {
              "internalType": "uint256",
              "name": "amount",
              "type": "uint256"
            },
            {
              "internalType": "uint256",
              "name": "applyTime",
              "type": "uint256"
            }
          ],
          "internalType": "struct EnumerableApply.ApplyInfo[]",
          "name": "infos",
          "type": "tuple[]"
        }
      ],
      "stateMutability": "view",
      "type": "function"
    },
    {
      "inputs": [
        {
          "internalType": "uint256",
          "name": "amount",
          "type": "uint256"
        }
      ],
      "name": "applyUnstake",
      "outputs": [],
      "stateMutability": "nonpayable",
      "type": "function"
    },
    {
      "inputs": [
        {
          "internalType": "address",
          "name": "account",
          "type": "address"
        },
        {
          "internalType": "uint256",
          "name": "applyId",
          "type": "uint256"
        }
      ],
      "name": "getApply",
      "outputs": [
        {
          "components": [
            {
              "internalType": "uint256",
              "name": "amount",
              "type": "uint256"
            },
            {
              "internalType": "uint256",
              "name": "applyTime",
              "type": "uint256"
            }
          ],
          "internalType": "struct EnumerableApply.ApplyInfo",
          "name": "info",
          "type": "tuple"
        }
      ],
      "stateMutability": "view",
      "type": "function"
    },
    {
      "inputs": [
        {
          "internalType": "address",
          "name": "account",
          "type": "address"
        }
      ],
      "name": "getStake",
      "outputs": [
        {
          "internalType": "uint256",
          "name": "",
          "type": "uint256"
        }
      ],
      "stateMutability": "view",
      "type": "function"
    },
    {
      "inputs": [
        {
          "internalType": "address",
          "name": "",
          "type": "address"
        },
        {
          "internalType": "address",
          "name": "",
          "type": "address"
        },
        {
          "internalType": "uint256[]",
          "name": "",
          "type": "uint256[]"
        },
        {
          "internalType": "uint256[]",
          "name": "",
          "type": "uint256[]"
        },
        {
          "internalType": "bytes",
          "name": "",
          "type": "bytes"
        }
      ],
      "name": "onERC1155BatchReceived",
      "outputs": [
        {
          "internalType": "bytes4",
          "name": "",
          "type": "bytes4"
        }
      ],
      "stateMutability": "nonpayable",
      "type": "function"
    },
    {
      "inputs": [
        {
          "internalType": "address",
          "name": "",
          "type": "address"
        },
        {
          "internalType": "address",
          "name": "",
          "type": "address"
        },
        {
          "internalType": "uint256",
          "name": "",
          "type": "uint256"
        },
        {
          "internalType": "uint256",
          "name": "",
          "type": "uint256"
        },
        {
          "internalType": "bytes",
          "name": "",
          "type": "bytes"
        }
      ],
      "name": "onERC1155Received",
      "outputs": [
        {
          "internalType": "bytes4",
          "name": "",
          "type": "bytes4"
        }
      ],
      "stateMutability": "nonpayable",
      "type": "function"
    },
    {
      "inputs": [
        {
          "internalType": "uint256",
          "name": "amount",
          "type": "uint256"
        }
      ],
      "name": "stake",
      "outputs": [],
      "stateMutability": "nonpayable",
      "type": "function"
    },
    {
      "inputs": [],
      "name": "stakeLength",
      "outputs": [
        {
          "internalType": "uint256",
          "name": "",
          "type": "uint256"
        }
      ],
      "stateMutability": "view",
      "type": "function"
    },
    {
      "inputs": [
        {
          "internalType": "uint256",
          "name": "start",
          "type": "uint256"
        },
        {
          "internalType": "uint256",
          "name": "amount",
          "type": "uint256"
        }
      ],
      "name": "stakesOf",
      "outputs": [
        {
          "internalType": "address[]",
          "name": "stakers",
          "type": "address[]"
        },
        {
          "internalType": "uint256[]",
          "name": "amounts",
          "type": "uint256[]"
        }
      ],
      "stateMutability": "view",
      "type": "function"
    },
    {
      "inputs": [
        {
          "internalType": "bytes4",
          "name": "interfaceId",
          "type": "bytes4"
        }
      ],
      "name": "supportsInterface",
      "outputs": [
        {
          "internalType": "bool",
          "name": "",
          "type": "bool"
        }
      ],
      "stateMutability": "view",
      "type": "function"
    },
    {
      "inputs": [
        {
          "internalType": "address",
          "name": "to",
          "type": "address"
        },
        {
          "internalType": "uint256",
          "name": "applyId",
          "type": "uint256"
        }
      ],
      "name": "unstake",
      "outputs": [],
      "stateMutability": "nonpayable",
      "type": "function"
    }
  ],
  "transactionHash": "0x6811d7ee0bba77c6b7719847be128c3cd2e732a0b21b7ec52580d1cb55de4c90",
  "args": [
    "0x82e854f3f7550f13848999d9064975753BE4284b"
  ],
  "numDeployments": 2,
  "solcInputHash": "85fe67a83e625234a2fa36ee6301bbae",
  "bytecode": "0x60e060405262093a8067ffffffffffffffff1660809067ffffffffffffffff16815250600560c0908152503480156200003757600080fd5b506040516200272e3803806200272e83398181016040528101906200005d919062000116565b8073ffffffffffffffffffffffffffffffffffffffff1660a08173ffffffffffffffffffffffffffffffffffffffff16815250505062000148565b600080fd5b600073ffffffffffffffffffffffffffffffffffffffff82169050919050565b6000620000ca826200009d565b9050919050565b6000620000de82620000bd565b9050919050565b620000f081620000d1565b8114620000fc57600080fd5b50565b6000815190506200011081620000e5565b92915050565b6000602082840312156200012f576200012e62000098565b5b60006200013f84828501620000ff565b91505092915050565b60805160a05160c05161259a62000194600039600081816103ed01526106210152600081816105fd015281816106da0152610907015260008181610411015261088c015261259a6000f3fe608060405234801561001057600080fd5b50600436106101005760003560e01c8063c2a672e011610097578063f155c6bf11610066578063f155c6bf146102c2578063f23a6e61146102f2578063f9a64cc014610322578063fea47c491461035357610100565b8063c2a672e01461023c578063c3b44ef414610258578063ce5ba45014610288578063d4967282146102a457610100565b80637a766460116100d35780637a766460146101a257806382bfefc8146101d2578063a694fc3a146101f0578063bc197c811461020c57610100565b806301ffc9a7146101055780631d3c613a14610135578063242c8e691461015357806371bdf9ea14610171575b600080fd5b61011f600480360381019061011a919061166f565b610371565b60405161012c91906116b7565b60405180910390f35b61013d6103eb565b60405161014a91906116eb565b60405180910390f35b61015b61040f565b6040516101689190611729565b60405180910390f35b61018b60048036038101906101869190611770565b610433565b60405161019992919061195e565b60405180910390f35b6101bc60048036038101906101b791906119c1565b6105bc565b6040516101c991906116eb565b60405180910390f35b6101da6105fb565b6040516101e79190611a4d565b60405180910390f35b61020a60048036038101906102059190611a68565b61061f565b005b61022660048036038101906102219190611ca3565b6107d6565b6040516102339190611d81565b60405180910390f35b61025660048036038101906102519190611d9c565b6107eb565b005b610272600480360381019061026d9190611d9c565b610a31565b60405161027f9190611e0b565b60405180910390f35b6102a2600480360381019061029d9190611a68565b610a92565b005b6102ac610cb3565b6040516102b991906116eb565b60405180910390f35b6102dc60048036038101906102d791906119c1565b610cc4565b6040516102e991906116eb565b60405180910390f35b61030c60048036038101906103079190611e26565b610d14565b6040516103199190611d81565b60405180910390f35b61033c60048036038101906103379190611ebd565b610d29565b60405161034a929190611fee565b60405180910390f35b61035b610ecf565b60405161036891906116eb565b60405180910390f35b60007f4e2312e0000000000000000000000000000000000000000000000000000000007bffffffffffffffffffffffffffffffffffffffffffffffffffffffff1916827bffffffffffffffffffffffffffffffffffffffffffffffffffffffff191614806103e457506103e382610ed4565b5b9050919050565b7f000000000000000000000000000000000000000000000000000000000000000081565b7f000000000000000000000000000000000000000000000000000000000000000081565b6060806000610440610cb3565b9050600081146105b457808510156105b35780848661045f9190612054565b11156104745784816104719190612088565b93505b8367ffffffffffffffff81111561048e5761048d611aab565b5b6040519080825280602002602001820160405280156104bc5781602001602082028036833780820191505090505b5092508367ffffffffffffffff8111156104d9576104d8611aab565b5b6040519080825280602002602001820160405280156105075781602001602082028036833780820191505090505b50915060005b848110156105b15761053481876105249190612054565b6000610f3e90919063ffffffff16565b858381518110610547576105466120bc565b5b60200260200101858481518110610561576105606120bc565b5b60200260200101828152508273ffffffffffffffffffffffffffffffffffffffff1673ffffffffffffffffffffffffffffffffffffffff16815250505080806105a9906120eb565b91505061050d565b505b5b509250929050565b60006105d2826000610f6a90919063ffffffff16565b6105df57600090506105f6565b6105f3826000610f9a90919063ffffffff16565b90505b919050565b7f000000000000000000000000000000000000000000000000000000000000000081565b7f00000000000000000000000000000000000000000000000000000000000000008161064a336105bc565b6106549190612054565b1115610695576040517f08c379a000000000000000000000000000000000000000000000000000000000815260040161068c90612190565b60405180910390fd5b600081116106d8576040517f08c379a00000000000000000000000000000000000000000000000000000000081526004016106cf906121fc565b60405180910390fd5b7f000000000000000000000000000000000000000000000000000000000000000073ffffffffffffffffffffffffffffffffffffffff1663f242432a33306000856040518563ffffffff1660e01b81526004016107389493929190612262565b600060405180830381600087803b15801561075257600080fd5b505af1158015610766573d6000803e3d6000fd5b505050506000610775336105bc565b90506107983383836107879190612054565b6000610fcd9092919063ffffffff16565b507f9e71bc8eea02a63969f509818f2dafb9254532904319f9dbda79b67bd34a5f3d33836040516107ca9291906122ba565b60405180910390a15050565b600063bc197c8160e01b905095945050505050565b61083c81600460003373ffffffffffffffffffffffffffffffffffffffff1673ffffffffffffffffffffffffffffffffffffffff16815260200190815260200160002061100290919063ffffffff16565b61087b576040517f08c379a00000000000000000000000000000000000000000000000000000000081526004016108729061232f565b60405180910390fd5b60006108873383610a31565b9050427f000000000000000000000000000000000000000000000000000000000000000067ffffffffffffffff1682602001516108c49190612054565b1115610905576040517f08c379a00000000000000000000000000000000000000000000000000000000081526004016108fc9061239b565b60405180910390fd5b7f000000000000000000000000000000000000000000000000000000000000000073ffffffffffffffffffffffffffffffffffffffff1663f242432a3085600085600001516040518563ffffffff1660e01b81526004016109699493929190612262565b600060405180830381600087803b15801561098357600080fd5b505af1158015610997573d6000803e3d6000fd5b505050506109ec82600460003373ffffffffffffffffffffffffffffffffffffffff1673ffffffffffffffffffffffffffffffffffffffff16815260200190815260200160002061102590919063ffffffff16565b507f7fc4727e062e336010f2c282598ef5f14facb3de68cf8195c2f23e1454b2b74e33838360000151604051610a24939291906123bb565b60405180910390a1505050565b610a396115e9565b610a8a82600460008673ffffffffffffffffffffffffffffffffffffffff1673ffffffffffffffffffffffffffffffffffffffff16815260200190815260200160002061107090919063ffffffff16565b905092915050565b60008111610ad5576040517f08c379a0000000000000000000000000000000000000000000000000000000008152600401610acc906121fc565b60405180910390fd5b6000610ae0336105bc565b905080821115610b25576040517f08c379a0000000000000000000000000000000000000000000000000000000008152600401610b1c90612464565b60405180910390fd5b6000600360003373ffffffffffffffffffffffffffffffffffffffff1673ffffffffffffffffffffffffffffffffffffffff16815260200190815260200160002054905060008383610b779190612088565b905060008103610b9b57610b9533600061111790919063ffffffff16565b50610bb3565b610bb133826000610fcd9092919063ffffffff16565b505b610c1a82604051806040016040528087815260200142815250600460003373ffffffffffffffffffffffffffffffffffffffff1673ffffffffffffffffffffffffffffffffffffffff1681526020019081526020016000206111479092919063ffffffff16565b50600360003373ffffffffffffffffffffffffffffffffffffffff1673ffffffffffffffffffffffffffffffffffffffff1681526020019081526020016000206000815480929190610c6b906120eb565b91905055507fb3a097b9b09df137b8d0b2cd75a0006fdbeb32e0cc39366c7fa0929d1ce9fc2133838642604051610ca59493929190612484565b60405180910390a150505050565b6000610cbf6000611198565b905090565b6000610d0d600460008473ffffffffffffffffffffffffffffffffffffffff1673ffffffffffffffffffffffffffffffffffffffff1681526020019081526020016000206111ad565b9050919050565b600063f23a6e6160e01b905095945050505050565b6060806000610d3786610cc4565b905060008114610ec65780851015610ec557808486610d569190612054565b1115610d6b578481610d689190612088565b93505b8367ffffffffffffffff811115610d8557610d84611aab565b5b604051908082528060200260200182016040528015610db35781602001602082028036833780820191505090505b5092508367ffffffffffffffff811115610dd057610dcf611aab565b5b604051908082528060200260200182016040528015610e0957816020015b610df66115e9565b815260200190600190039081610dee5790505b50915060005b84811015610ec357610e738187610e269190612054565b600460008a73ffffffffffffffffffffffffffffffffffffffff1673ffffffffffffffffffffffffffffffffffffffff1681526020019081526020016000206111c290919063ffffffff16565b858381518110610e8657610e856120bc565b5b60200260200101858481518110610ea057610e9f6120bc565b5b602002602001018290528281525050508080610ebb906120eb565b915050610e0f565b505b5b50935093915050565b600081565b60007f01ffc9a7000000000000000000000000000000000000000000000000000000007bffffffffffffffffffffffffffffffffffffffffffffffffffffffff1916827bffffffffffffffffffffffffffffffffffffffffffffffffffffffff1916149050919050565b600080600080610f518660000186611230565b915091508160001c8160001c9350935050509250929050565b6000610f92836000018373ffffffffffffffffffffffffffffffffffffffff1660001b611270565b905092915050565b6000610fc2836000018373ffffffffffffffffffffffffffffffffffffffff1660001b611290565b60001c905092915050565b6000610ff9846000018473ffffffffffffffffffffffffffffffffffffffff1660001b8460001b61130c565b90509392505050565b600061101d8260001b8460000161134790919063ffffffff16565b905092915050565b6000826002016000838152602001908152602001600020600080820160009055600182016000905550506110688260001b8460000161135e90919063ffffffff16565b905092915050565b6110786115e9565b6000836002016000848152602001908152602001600020604051806040016040529081600082015481526020016001820154815250509050600081602001511480156110cb57506110c98484611002565b155b1561110d57826040517f3a054bd400000000000000000000000000000000000000000000000000000000815260040161110491906116eb565b60405180910390fd5b8091505092915050565b600061113f836000018373ffffffffffffffffffffffffffffffffffffffff1660001b611375565b905092915050565b600081846002016000858152602001908152602001600020600082015181600001556020820151816001015590505061118f8360001b856000016113ae90919063ffffffff16565b90509392505050565b60006111a6826000016113c5565b9050919050565b60006111bb826000016113da565b9050919050565b60006111cc6115e9565b60006111e484866000016113ef90919063ffffffff16565b90508060001c8560020160008360001c81526020019081526020016000208060405180604001604052908160008201548152602001600182015481525050905092509250509250929050565b600080600061124b84866000016113ef90919063ffffffff16565b9050808560020160008381526020019081526020016000205492509250509250929050565b6000611288828460000161134790919063ffffffff16565b905092915050565b6000808360020160008481526020019081526020016000205490506000801b811415806112c357506112c28484611270565b5b611302576040517f08c379a00000000000000000000000000000000000000000000000000000000081526004016112f990612515565b60405180910390fd5b8091505092915050565b6000818460020160008581526020019081526020016000208190555061133e83856000016113ae90919063ffffffff16565b90509392505050565b60006113568360000183611406565b905092915050565b600061136d8360000183611429565b905092915050565b6000826002016000838152602001908152602001600020600090556113a6828460000161135e90919063ffffffff16565b905092915050565b60006113bd836000018361153d565b905092915050565b60006113d3826000016113da565b9050919050565b60006113e8826000016115ad565b9050919050565b60006113fe83600001836115be565b905092915050565b600080836001016000848152602001908152602001600020541415905092915050565b6000808360010160008481526020019081526020016000205490506000811461153157600060018261145b9190612088565b90506000600186600001805490506114739190612088565b90508181146114e2576000866000018281548110611494576114936120bc565b5b90600052602060002001549050808760000184815481106114b8576114b76120bc565b5b90600052602060002001819055508387600101600083815260200190815260200160002081905550505b856000018054806114f6576114f5612535565b5b600190038181906000526020600020016000905590558560010160008681526020019081526020016000206000905560019350505050611537565b60009150505b92915050565b60006115498383611406565b6115a25782600001829080600181540180825580915050600190039060005260206000200160009091909190915055826000018054905083600101600084815260200190815260200160002081905550600190506115a7565b600090505b92915050565b600081600001805490509050919050565b60008260000182815481106115d6576115d56120bc565b5b9060005260206000200154905092915050565b604051806040016040528060008152602001600081525090565b6000604051905090565b600080fd5b600080fd5b60007fffffffff0000000000000000000000000000000000000000000000000000000082169050919050565b61164c81611617565b811461165757600080fd5b50565b60008135905061166981611643565b92915050565b6000602082840312156116855761168461160d565b5b60006116938482850161165a565b91505092915050565b60008115159050919050565b6116b18161169c565b82525050565b60006020820190506116cc60008301846116a8565b92915050565b6000819050919050565b6116e5816116d2565b82525050565b600060208201905061170060008301846116dc565b92915050565b600067ffffffffffffffff82169050919050565b61172381611706565b82525050565b600060208201905061173e600083018461171a565b92915050565b61174d816116d2565b811461175857600080fd5b50565b60008135905061176a81611744565b92915050565b600080604083850312156117875761178661160d565b5b60006117958582860161175b565b92505060206117a68582860161175b565b9150509250929050565b600081519050919050565b600082825260208201905092915050565b6000819050602082019050919050565b600073ffffffffffffffffffffffffffffffffffffffff82169050919050565b6000611807826117dc565b9050919050565b611817816117fc565b82525050565b6000611829838361180e565b60208301905092915050565b6000602082019050919050565b600061184d826117b0565b61185781856117bb565b9350611862836117cc565b8060005b8381101561189357815161187a888261181d565b975061188583611835565b925050600181019050611866565b5085935050505092915050565b600081519050919050565b600082825260208201905092915050565b6000819050602082019050919050565b6118d5816116d2565b82525050565b60006118e783836118cc565b60208301905092915050565b6000602082019050919050565b600061190b826118a0565b61191581856118ab565b9350611920836118bc565b8060005b8381101561195157815161193888826118db565b9750611943836118f3565b925050600181019050611924565b5085935050505092915050565b600060408201905081810360008301526119788185611842565b9050818103602083015261198c8184611900565b90509392505050565b61199e816117fc565b81146119a957600080fd5b50565b6000813590506119bb81611995565b92915050565b6000602082840312156119d7576119d661160d565b5b60006119e5848285016119ac565b91505092915050565b6000819050919050565b6000611a13611a0e611a09846117dc565b6119ee565b6117dc565b9050919050565b6000611a25826119f8565b9050919050565b6000611a3782611a1a565b9050919050565b611a4781611a2c565b82525050565b6000602082019050611a626000830184611a3e565b92915050565b600060208284031215611a7e57611a7d61160d565b5b6000611a8c8482850161175b565b91505092915050565b600080fd5b6000601f19601f8301169050919050565b7f4e487b7100000000000000000000000000000000000000000000000000000000600052604160045260246000fd5b611ae382611a9a565b810181811067ffffffffffffffff82111715611b0257611b01611aab565b5b80604052505050565b6000611b15611603565b9050611b218282611ada565b919050565b600067ffffffffffffffff821115611b4157611b40611aab565b5b602082029050602081019050919050565b600080fd5b6000611b6a611b6584611b26565b611b0b565b90508083825260208201905060208402830185811115611b8d57611b8c611b52565b5b835b81811015611bb65780611ba2888261175b565b845260208401935050602081019050611b8f565b5050509392505050565b600082601f830112611bd557611bd4611a95565b5b8135611be5848260208601611b57565b91505092915050565b600080fd5b600067ffffffffffffffff821115611c0e57611c0d611aab565b5b611c1782611a9a565b9050602081019050919050565b82818337600083830152505050565b6000611c46611c4184611bf3565b611b0b565b905082815260208101848484011115611c6257611c61611bee565b5b611c6d848285611c24565b509392505050565b600082601f830112611c8a57611c89611a95565b5b8135611c9a848260208601611c33565b91505092915050565b600080600080600060a08688031215611cbf57611cbe61160d565b5b6000611ccd888289016119ac565b9550506020611cde888289016119ac565b945050604086013567ffffffffffffffff811115611cff57611cfe611612565b5b611d0b88828901611bc0565b935050606086013567ffffffffffffffff811115611d2c57611d2b611612565b5b611d3888828901611bc0565b925050608086013567ffffffffffffffff811115611d5957611d58611612565b5b611d6588828901611c75565b9150509295509295909350565b611d7b81611617565b82525050565b6000602082019050611d966000830184611d72565b92915050565b60008060408385031215611db357611db261160d565b5b6000611dc1858286016119ac565b9250506020611dd28582860161175b565b9150509250929050565b604082016000820151611df260008501826118cc565b506020820151611e0560208501826118cc565b50505050565b6000604082019050611e206000830184611ddc565b92915050565b600080600080600060a08688031215611e4257611e4161160d565b5b6000611e50888289016119ac565b9550506020611e61888289016119ac565b9450506040611e728882890161175b565b9350506060611e838882890161175b565b925050608086013567ffffffffffffffff811115611ea457611ea3611612565b5b611eb088828901611c75565b9150509295509295909350565b600080600060608486031215611ed657611ed561160d565b5b6000611ee4868287016119ac565b9350506020611ef58682870161175b565b9250506040611f068682870161175b565b9150509250925092565b600081519050919050565b600082825260208201905092915050565b6000819050602082019050919050565b604082016000820151611f5260008501826118cc565b506020820151611f6560208501826118cc565b50505050565b6000611f778383611f3c565b60408301905092915050565b6000602082019050919050565b6000611f9b82611f10565b611fa58185611f1b565b9350611fb083611f2c565b8060005b83811015611fe1578151611fc88882611f6b565b9750611fd383611f83565b925050600181019050611fb4565b5085935050505092915050565b600060408201905081810360008301526120088185611900565b9050818103602083015261201c8184611f90565b90509392505050565b7f4e487b7100000000000000000000000000000000000000000000000000000000600052601160045260246000fd5b600061205f826116d2565b915061206a836116d2565b925082820190508082111561208257612081612025565b5b92915050565b6000612093826116d2565b915061209e836116d2565b92508282039050818111156120b6576120b5612025565b5b92915050565b7f4e487b7100000000000000000000000000000000000000000000000000000000600052603260045260246000fd5b60006120f6826116d2565b91507fffffffffffffffffffffffffffffffffffffffffffffffffffffffffffffffff820361212857612127612025565b5b600182019050919050565b600082825260208201905092915050565b7f7374616b652065786365656473206d6178207374616b65000000000000000000600082015250565b600061217a601783612133565b915061218582612144565b602082019050919050565b600060208201905081810360008301526121a98161216d565b9050919050565b7f616d6f756e74206d7573742062652067726561746572207468616e2030000000600082015250565b60006121e6601d83612133565b91506121f1826121b0565b602082019050919050565b60006020820190508181036000830152612215816121d9565b9050919050565b612225816117fc565b82525050565b600082825260208201905092915050565b50565b600061224c60008361222b565b91506122578261223c565b600082019050919050565b600060a082019050612277600083018761221c565b612284602083018661221c565b61229160408301856116dc565b61229e60608301846116dc565b81810360808301526122af8161223f565b905095945050505050565b60006040820190506122cf600083018561221c565b6122dc60208301846116dc565b9392505050565b7f6e6f6e6578697374656e74206170706c79000000000000000000000000000000600082015250565b6000612319601183612133565b9150612324826122e3565b602082019050919050565b600060208201905081810360008301526123488161230c565b9050919050565b7f756e7374616b65206c6f636b74696d65206e6f74206578706972656400000000600082015250565b6000612385601c83612133565b91506123908261234f565b602082019050919050565b600060208201905081810360008301526123b481612378565b9050919050565b60006060820190506123d0600083018661221c565b6123dd60208301856116dc565b6123ea60408301846116dc565b949350505050565b7f616d6f756e74206d757374206265206c657373207468616e206f72206571756160008201527f6c20746f207374616b6573000000000000000000000000000000000000000000602082015250565b600061244e602b83612133565b9150612459826123f2565b604082019050919050565b6000602082019050818103600083015261247d81612441565b9050919050565b6000608082019050612499600083018761221c565b6124a660208301866116dc565b6124b360408301856116dc565b6124c060608301846116dc565b95945050505050565b7f456e756d657261626c654d61703a206e6f6e6578697374656e74206b65790000600082015250565b60006124ff601e83612133565b915061250a826124c9565b602082019050919050565b6000602082019050818103600083015261252e816124f2565b9050919050565b7f4e487b7100000000000000000000000000000000000000000000000000000000600052603160045260246000fdfea264697066735822122035b22a68706ad726914f71564388500d9dc3b3f04524869cfb4369687a94408664736f6c63430008140033",
  "devdoc": {
    "kind": "dev",
    "methods": {
      "supportsInterface(bytes4)": {
        "details": "See {IERC165-supportsInterface}."
      }
    },
    "version": 1
  },
  "userdoc": {
    "kind": "user",
    "methods": {},
    "version": 1
  },
  "storageLayout": {
    "storage": [
      {
        "astId": 7885,
        "contract": "contracts/core/VigorStoneStake.sol:VigorStoneStake",
        "label": "stakes",
        "offset": 0,
        "slot": "0",
        "type": "t_struct(AddressToUintMap)5676_storage"
      },
      {
        "astId": 7889,
        "contract": "contracts/core/VigorStoneStake.sol:VigorStoneStake",
        "label": "applyIds",
        "offset": 0,
        "slot": "3",
        "type": "t_mapping(t_address,t_uint256)"
      },
      {
        "astId": 7894,
        "contract": "contracts/core/VigorStoneStake.sol:VigorStoneStake",
        "label": "applies",
        "offset": 0,
        "slot": "4",
        "type": "t_mapping(t_address,t_struct(UintToApply)8419_storage)"
      }
    ],
    "types": {
      "t_address": {
        "encoding": "inplace",
        "label": "address",
        "numberOfBytes": "20"
      },
      "t_array(t_bytes32)dyn_storage": {
        "base": "t_bytes32",
        "encoding": "dynamic_array",
        "label": "bytes32[]",
        "numberOfBytes": "32"
      },
      "t_bytes32": {
        "encoding": "inplace",
        "label": "bytes32",
        "numberOfBytes": "32"
      },
      "t_mapping(t_address,t_struct(UintToApply)8419_storage)": {
        "encoding": "mapping",
        "key": "t_address",
        "label": "mapping(address => struct EnumerableApply.UintToApply)",
        "numberOfBytes": "32",
        "value": "t_struct(UintToApply)8419_storage"
      },
      "t_mapping(t_address,t_uint256)": {
        "encoding": "mapping",
        "key": "t_address",
        "label": "mapping(address => uint256)",
        "numberOfBytes": "32",
        "value": "t_uint256"
      },
      "t_mapping(t_bytes32,t_bytes32)": {
        "encoding": "mapping",
        "key": "t_bytes32",
        "label": "mapping(bytes32 => bytes32)",
        "numberOfBytes": "32",
        "value": "t_bytes32"
      },
      "t_mapping(t_bytes32,t_uint256)": {
        "encoding": "mapping",
        "key": "t_bytes32",
        "label": "mapping(bytes32 => uint256)",
        "numberOfBytes": "32",
        "value": "t_uint256"
      },
      "t_mapping(t_uint256,t_struct(ApplyInfo)8410_storage)": {
        "encoding": "mapping",
        "key": "t_uint256",
        "label": "mapping(uint256 => struct EnumerableApply.ApplyInfo)",
        "numberOfBytes": "32",
        "value": "t_struct(ApplyInfo)8410_storage"
      },
      "t_struct(AddressToUintMap)5676_storage": {
        "encoding": "inplace",
        "label": "struct EnumerableMap.AddressToUintMap",
        "members": [
          {
            "astId": 5675,
            "contract": "contracts/core/VigorStoneStake.sol:VigorStoneStake",
            "label": "_inner",
            "offset": 0,
            "slot": "0",
            "type": "t_struct(Bytes32ToBytes32Map)4926_storage"
          }
        ],
        "numberOfBytes": "96"
      },
      "t_struct(ApplyInfo)8410_storage": {
        "encoding": "inplace",
        "label": "struct EnumerableApply.ApplyInfo",
        "members": [
          {
            "astId": 8407,
            "contract": "contracts/core/VigorStoneStake.sol:VigorStoneStake",
            "label": "amount",
            "offset": 0,
            "slot": "0",
            "type": "t_uint256"
          },
          {
            "astId": 8409,
            "contract": "contracts/core/VigorStoneStake.sol:VigorStoneStake",
            "label": "applyTime",
            "offset": 0,
            "slot": "1",
            "type": "t_uint256"
          }
        ],
        "numberOfBytes": "64"
      },
      "t_struct(Bytes32Set)6373_storage": {
        "encoding": "inplace",
        "label": "struct EnumerableSet.Bytes32Set",
        "members": [
          {
            "astId": 6372,
            "contract": "contracts/core/VigorStoneStake.sol:VigorStoneStake",
            "label": "_inner",
            "offset": 0,
            "slot": "0",
            "type": "t_struct(Set)6179_storage"
          }
        ],
        "numberOfBytes": "64"
      },
      "t_struct(Bytes32ToBytes32Map)4926_storage": {
        "encoding": "inplace",
        "label": "struct EnumerableMap.Bytes32ToBytes32Map",
        "members": [
          {
            "astId": 4921,
            "contract": "contracts/core/VigorStoneStake.sol:VigorStoneStake",
            "label": "_keys",
            "offset": 0,
            "slot": "0",
            "type": "t_struct(Bytes32Set)6373_storage"
          },
          {
            "astId": 4925,
            "contract": "contracts/core/VigorStoneStake.sol:VigorStoneStake",
            "label": "_values",
            "offset": 0,
            "slot": "2",
            "type": "t_mapping(t_bytes32,t_bytes32)"
          }
        ],
        "numberOfBytes": "96"
      },
      "t_struct(Set)6179_storage": {
        "encoding": "inplace",
        "label": "struct EnumerableSet.Set",
        "members": [
          {
            "astId": 6174,
            "contract": "contracts/core/VigorStoneStake.sol:VigorStoneStake",
            "label": "_values",
            "offset": 0,
            "slot": "0",
            "type": "t_array(t_bytes32)dyn_storage"
          },
          {
            "astId": 6178,
            "contract": "contracts/core/VigorStoneStake.sol:VigorStoneStake",
            "label": "_indexes",
            "offset": 0,
            "slot": "1",
            "type": "t_mapping(t_bytes32,t_uint256)"
          }
        ],
        "numberOfBytes": "64"
      },
      "t_struct(UintToApply)8419_storage": {
        "encoding": "inplace",
        "label": "struct EnumerableApply.UintToApply",
        "members": [
          {
            "astId": 8413,
            "contract": "contracts/core/VigorStoneStake.sol:VigorStoneStake",
            "label": "_keys",
            "offset": 0,
            "slot": "0",
            "type": "t_struct(Bytes32Set)6373_storage"
          },
          {
            "astId": 8418,
            "contract": "contracts/core/VigorStoneStake.sol:VigorStoneStake",
            "label": "_values",
            "offset": 0,
            "slot": "2",
            "type": "t_mapping(t_uint256,t_struct(ApplyInfo)8410_storage)"
          }
        ],
        "numberOfBytes": "96"
      },
      "t_uint256": {
        "encoding": "inplace",
        "label": "uint256",
        "numberOfBytes": "32"
      }
    }
  }
}