{
  "address": "0x97E38AbA0B769795bD86DA1d90b16fDd40914580",
  "abi": [
    {
      "inputs": [
        {
          "internalType": "address",
          "name": "sender",
          "type": "address"
        },
        {
          "internalType": "uint256",
          "name": "balance",
          "type": "uint256"
        },
        {
          "internalType": "uint256",
          "name": "needed",
          "type": "uint256"
        },
        {
          "internalType": "uint256",
          "name": "tokenId",
          "type": "uint256"
        }
      ],
      "name": "ERC1155InsufficientBalance",
      "type": "error"
    },
    {
      "inputs": [
        {
          "internalType": "address",
          "name": "approver",
          "type": "address"
        }
      ],
      "name": "ERC1155InvalidApprover",
      "type": "error"
    },
    {
      "inputs": [
        {
          "internalType": "uint256",
          "name": "idsLength",
          "type": "uint256"
        },
        {
          "internalType": "uint256",
          "name": "valuesLength",
          "type": "uint256"
        }
      ],
      "name": "ERC1155InvalidArrayLength",
      "type": "error"
    },
    {
      "inputs": [
        {
          "internalType": "address",
          "name": "operator",
          "type": "address"
        }
      ],
      "name": "ERC1155InvalidOperator",
      "type": "error"
    },
    {
      "inputs": [
        {
          "internalType": "address",
          "name": "receiver",
          "type": "address"
        }
      ],
      "name": "ERC1155InvalidReceiver",
      "type": "error"
    },
    {
      "inputs": [
        {
          "internalType": "address",
          "name": "sender",
          "type": "address"
        }
      ],
      "name": "ERC1155InvalidSender",
      "type": "error"
    },
    {
      "inputs": [
        {
          "internalType": "address",
          "name": "operator",
          "type": "address"
        },
        {
          "internalType": "address",
          "name": "owner",
          "type": "address"
        }
      ],
      "name": "ERC1155MissingApprovalForAll",
      "type": "error"
    },
    {
      "inputs": [
        {
          "internalType": "uint256",
          "name": "required",
          "type": "uint256"
        },
        {
          "internalType": "uint256",
          "name": "available",
          "type": "uint256"
        }
      ],
      "name": "InsufficientValue",
      "type": "error"
    },
    {
      "inputs": [],
      "name": "InvalidInitialization",
      "type": "error"
    },
    {
      "inputs": [
        {
          "internalType": "uint256",
          "name": "amount",
          "type": "uint256"
        }
      ],
      "name": "InvalidMaxSupply",
      "type": "error"
    },
    {
      "inputs": [
        {
          "internalType": "uint256",
          "name": "price",
          "type": "uint256"
        }
      ],
      "name": "InvalidPrice",
      "type": "error"
    },
    {
      "inputs": [
        {
          "internalType": "uint256",
          "name": "maxSupply",
          "type": "uint256"
        },
        {
          "internalType": "uint256",
          "name": "totalSupply",
          "type": "uint256"
        },
        {
          "internalType": "uint256",
          "name": "amount",
          "type": "uint256"
        }
      ],
      "name": "MaxSupplyExceeds",
      "type": "error"
    },
    {
      "inputs": [],
      "name": "NotInitializing",
      "type": "error"
    },
    {
      "inputs": [
        {
          "internalType": "address",
          "name": "owner",
          "type": "address"
        }
      ],
      "name": "OwnableInvalidOwner",
      "type": "error"
    },
    {
      "inputs": [
        {
          "internalType": "address",
          "name": "account",
          "type": "address"
        }
      ],
      "name": "OwnableUnauthorizedAccount",
      "type": "error"
    },
    {
      "anonymous": false,
      "inputs": [
        {
          "indexed": true,
          "internalType": "address",
          "name": "account",
          "type": "address"
        },
        {
          "indexed": true,
          "internalType": "address",
          "name": "operator",
          "type": "address"
        },
        {
          "indexed": false,
          "internalType": "bool",
          "name": "approved",
          "type": "bool"
        }
      ],
      "name": "ApprovalForAll",
      "type": "event"
    },
    {
      "anonymous": false,
      "inputs": [
        {
          "indexed": false,
          "internalType": "uint64",
          "name": "version",
          "type": "uint64"
        }
      ],
      "name": "Initialized",
      "type": "event"
    },
    {
      "anonymous": false,
      "inputs": [
        {
          "indexed": false,
          "internalType": "uint256",
          "name": "maxSupply",
          "type": "uint256"
        }
      ],
      "name": "MaxSupplyUpdated",
      "type": "event"
    },
    {
      "anonymous": false,
      "inputs": [
        {
          "indexed": true,
          "internalType": "address",
          "name": "previousOwner",
          "type": "address"
        },
        {
          "indexed": true,
          "internalType": "address",
          "name": "newOwner",
          "type": "address"
        }
      ],
      "name": "OwnershipTransferStarted",
      "type": "event"
    },
    {
      "anonymous": false,
      "inputs": [
        {
          "indexed": true,
          "internalType": "address",
          "name": "previousOwner",
          "type": "address"
        },
        {
          "indexed": true,
          "internalType": "address",
          "name": "newOwner",
          "type": "address"
        }
      ],
      "name": "OwnershipTransferred",
      "type": "event"
    },
    {
      "anonymous": false,
      "inputs": [
        {
          "indexed": false,
          "internalType": "uint256",
          "name": "price",
          "type": "uint256"
        }
      ],
      "name": "PriceUpdated",
      "type": "event"
    },
    {
      "anonymous": false,
      "inputs": [
        {
          "indexed": true,
          "internalType": "address",
          "name": "operator",
          "type": "address"
        },
        {
          "indexed": true,
          "internalType": "address",
          "name": "from",
          "type": "address"
        },
        {
          "indexed": true,
          "internalType": "address",
          "name": "to",
          "type": "address"
        },
        {
          "indexed": false,
          "internalType": "uint256[]",
          "name": "ids",
          "type": "uint256[]"
        },
        {
          "indexed": false,
          "internalType": "uint256[]",
          "name": "values",
          "type": "uint256[]"
        }
      ],
      "name": "TransferBatch",
      "type": "event"
    },
    {
      "anonymous": false,
      "inputs": [
        {
          "indexed": true,
          "internalType": "address",
          "name": "operator",
          "type": "address"
        },
        {
          "indexed": true,
          "internalType": "address",
          "name": "from",
          "type": "address"
        },
        {
          "indexed": true,
          "internalType": "address",
          "name": "to",
          "type": "address"
        },
        {
          "indexed": false,
          "internalType": "uint256",
          "name": "id",
          "type": "uint256"
        },
        {
          "indexed": false,
          "internalType": "uint256",
          "name": "value",
          "type": "uint256"
        }
      ],
      "name": "TransferSingle",
      "type": "event"
    },
    {
      "anonymous": false,
      "inputs": [
        {
          "indexed": false,
          "internalType": "string",
          "name": "value",
          "type": "string"
        },
        {
          "indexed": true,
          "internalType": "uint256",
          "name": "id",
          "type": "uint256"
        }
      ],
      "name": "URI",
      "type": "event"
    },
    {
      "inputs": [],
      "name": "TOKENID",
      "outputs": [
        {
          "internalType": "uint256",
          "name": "",
          "type": "uint256"
        }
      ],
      "stateMutability": "view",
      "type": "function"
    },
    {
      "inputs": [],
      "name": "acceptOwnership",
      "outputs": [],
      "stateMutability": "nonpayable",
      "type": "function"
    },
    {
      "inputs": [
        {
          "internalType": "address",
          "name": "account",
          "type": "address"
        },
        {
          "internalType": "uint256",
          "name": "id",
          "type": "uint256"
        }
      ],
      "name": "balanceOf",
      "outputs": [
        {
          "internalType": "uint256",
          "name": "",
          "type": "uint256"
        }
      ],
      "stateMutability": "view",
      "type": "function"
    },
    {
      "inputs": [
        {
          "internalType": "address[]",
          "name": "accounts",
          "type": "address[]"
        },
        {
          "internalType": "uint256[]",
          "name": "ids",
          "type": "uint256[]"
        }
      ],
      "name": "balanceOfBatch",
      "outputs": [
        {
          "internalType": "uint256[]",
          "name": "",
          "type": "uint256[]"
        }
      ],
      "stateMutability": "view",
      "type": "function"
    },
    {
      "inputs": [
        {
          "internalType": "address",
          "name": "account",
          "type": "address"
        },
        {
          "internalType": "uint256",
          "name": "id",
          "type": "uint256"
        },
        {
          "internalType": "uint256",
          "name": "value",
          "type": "uint256"
        }
      ],
      "name": "burn",
      "outputs": [],
      "stateMutability": "nonpayable",
      "type": "function"
    },
    {
      "inputs": [
        {
          "internalType": "address",
          "name": "account",
          "type": "address"
        },
        {
          "internalType": "uint256[]",
          "name": "ids",
          "type": "uint256[]"
        },
        {
          "internalType": "uint256[]",
          "name": "values",
          "type": "uint256[]"
        }
      ],
      "name": "burnBatch",
      "outputs": [],
      "stateMutability": "nonpayable",
      "type": "function"
    },
    {
      "inputs": [
        {
          "internalType": "uint256",
          "name": "id",
          "type": "uint256"
        }
      ],
      "name": "exists",
      "outputs": [
        {
          "internalType": "bool",
          "name": "",
          "type": "bool"
        }
      ],
      "stateMutability": "view",
      "type": "function"
    },
    {
      "inputs": [
        {
          "internalType": "uint256",
          "name": "_maxSupply",
          "type": "uint256"
        },
        {
          "internalType": "uint256",
          "name": "_price",
          "type": "uint256"
        }
      ],
      "name": "init",
      "outputs": [],
      "stateMutability": "nonpayable",
      "type": "function"
    },
    {
      "inputs": [
        {
          "internalType": "address",
          "name": "owner",
          "type": "address"
        }
      ],
      "name": "initialize",
      "outputs": [],
      "stateMutability": "nonpayable",
      "type": "function"
    },
    {
      "inputs": [
        {
          "internalType": "address",
          "name": "account",
          "type": "address"
        },
        {
          "internalType": "address",
          "name": "operator",
          "type": "address"
        }
      ],
      "name": "isApprovedForAll",
      "outputs": [
        {
          "internalType": "bool",
          "name": "",
          "type": "bool"
        }
      ],
      "stateMutability": "view",
      "type": "function"
    },
    {
      "inputs": [],
      "name": "maxSupply",
      "outputs": [
        {
          "internalType": "uint256",
          "name": "",
          "type": "uint256"
        }
      ],
      "stateMutability": "view",
      "type": "function"
    },
    {
      "inputs": [
        {
          "internalType": "address",
          "name": "to",
          "type": "address"
        },
        {
          "internalType": "uint256",
          "name": "amount",
          "type": "uint256"
        }
      ],
      "name": "mint",
      "outputs": [],
      "stateMutability": "payable",
      "type": "function"
    },
    {
      "inputs": [],
      "name": "owner",
      "outputs": [
        {
          "internalType": "address",
          "name": "",
          "type": "address"
        }
      ],
      "stateMutability": "view",
      "type": "function"
    },
    {
      "inputs": [],
      "name": "pendingOwner",
      "outputs": [
        {
          "internalType": "address",
          "name": "",
          "type": "address"
        }
      ],
      "stateMutability": "view",
      "type": "function"
    },
    {
      "inputs": [],
      "name": "price",
      "outputs": [
        {
          "internalType": "uint256",
          "name": "",
          "type": "uint256"
        }
      ],
      "stateMutability": "view",
      "type": "function"
    },
    {
      "inputs": [],
      "name": "renounceOwnership",
      "outputs": [],
      "stateMutability": "nonpayable",
      "type": "function"
    },
    {
      "inputs": [
        {
          "internalType": "address",
          "name": "from",
          "type": "address"
        },
        {
          "internalType": "address",
          "name": "to",
          "type": "address"
        },
        {
          "internalType": "uint256[]",
          "name": "ids",
          "type": "uint256[]"
        },
        {
          "internalType": "uint256[]",
          "name": "values",
          "type": "uint256[]"
        },
        {
          "internalType": "bytes",
          "name": "data",
          "type": "bytes"
        }
      ],
      "name": "safeBatchTransferFrom",
      "outputs": [],
      "stateMutability": "nonpayable",
      "type": "function"
    },
    {
      "inputs": [
        {
          "internalType": "address",
          "name": "from",
          "type": "address"
        },
        {
          "internalType": "address",
          "name": "to",
          "type": "address"
        },
        {
          "internalType": "uint256",
          "name": "id",
          "type": "uint256"
        },
        {
          "internalType": "uint256",
          "name": "value",
          "type": "uint256"
        },
        {
          "internalType": "bytes",
          "name": "data",
          "type": "bytes"
        }
      ],
      "name": "safeTransferFrom",
      "outputs": [],
      "stateMutability": "nonpayable",
      "type": "function"
    },
    {
      "inputs": [
        {
          "internalType": "address",
          "name": "operator",
          "type": "address"
        },
        {
          "internalType": "bool",
          "name": "approved",
          "type": "bool"
        }
      ],
      "name": "setApprovalForAll",
      "outputs": [],
      "stateMutability": "nonpayable",
      "type": "function"
    },
    {
      "inputs": [
        {
          "internalType": "uint256",
          "name": "amount",
          "type": "uint256"
        }
      ],
      "name": "setMaxSupply",
      "outputs": [],
      "stateMutability": "nonpayable",
      "type": "function"
    },
    {
      "inputs": [
        {
          "internalType": "uint256",
          "name": "_price",
          "type": "uint256"
        }
      ],
      "name": "setPrice",
      "outputs": [],
      "stateMutability": "nonpayable",
      "type": "function"
    },
    {
      "inputs": [
        {
          "internalType": "string",
          "name": "_uri",
          "type": "string"
        }
      ],
      "name": "setTokenURI",
      "outputs": [],
      "stateMutability": "nonpayable",
      "type": "function"
    },
    {
      "inputs": [
        {
          "internalType": "bytes4",
          "name": "interfaceId",
          "type": "bytes4"
        }
      ],
      "name": "supportsInterface",
      "outputs": [
        {
          "internalType": "bool",
          "name": "",
          "type": "bool"
        }
      ],
      "stateMutability": "view",
      "type": "function"
    },
    {
      "inputs": [],
      "name": "tokenURI",
      "outputs": [
        {
          "internalType": "string",
          "name": "",
          "type": "string"
        }
      ],
      "stateMutability": "view",
      "type": "function"
    },
    {
      "inputs": [],
      "name": "totalSupply",
      "outputs": [
        {
          "internalType": "uint256",
          "name": "",
          "type": "uint256"
        }
      ],
      "stateMutability": "view",
      "type": "function"
    },
    {
      "inputs": [
        {
          "internalType": "uint256",
          "name": "id",
          "type": "uint256"
        }
      ],
      "name": "totalSupply",
      "outputs": [
        {
          "internalType": "uint256",
          "name": "",
          "type": "uint256"
        }
      ],
      "stateMutability": "view",
      "type": "function"
    },
    {
      "inputs": [
        {
          "internalType": "address",
          "name": "newOwner",
          "type": "address"
        }
      ],
      "name": "transferOwnership",
      "outputs": [],
      "stateMutability": "nonpayable",
      "type": "function"
    },
    {
      "inputs": [
        {
          "internalType": "uint256",
          "name": "tokenId",
          "type": "uint256"
        }
      ],
      "name": "uri",
      "outputs": [
        {
          "internalType": "string",
          "name": "",
          "type": "string"
        }
      ],
      "stateMutability": "view",
      "type": "function"
    }
  ],
  "transactionHash": "0x9e59ea08d513a357d347b486d7b2310291ecee6b49e3e571bb6742f2908c4a46",
  "args": [],
  "numDeployments": 1,
  "solcInputHash": "2a1302a62a1028655d992b162c532b9d",
  "bytecode": "0x608060405234801561001057600080fd5b50613be1806100206000396000f3fe6080604052600436106101b65760003560e01c806391b7f5ed116100ec578063e0df5b6f1161008a578063f242432a11610064578063f242432a146105fa578063f2fde38b14610623578063f5298aca1461064c578063fea47c4914610675576101b6565b8063e0df5b6f14610569578063e30c397814610592578063e985e9c5146105bd576101b6565b8063a5843f08116100c6578063a5843f08146104af578063bd85b039146104d8578063c4d66de814610515578063d5abeb011461053e576101b6565b806391b7f5ed14610432578063a035b1fe1461045b578063a22cb46514610486576101b6565b80634e1273f4116101595780636f8b44b0116101335780636f8b44b0146103b0578063715018a6146103d957806379ba5097146103f05780638da5cb5b14610407576101b6565b80634e1273f41461030d5780634f558e791461034a5780636b20c45414610387576101b6565b806318160ddd1161019557806318160ddd146102725780632eb2c2d61461029d5780633c130d90146102c657806340c10f19146102f1576101b6565b8062fdd58e146101bb57806301ffc9a7146101f85780630e89341c14610235575b600080fd5b3480156101c757600080fd5b506101e260048036038101906101dd91906128d0565b6106a0565b6040516101ef919061291f565b60405180910390f35b34801561020457600080fd5b5061021f600480360381019061021a9190612992565b610709565b60405161022c91906129da565b60405180910390f35b34801561024157600080fd5b5061025c600480360381019061025791906129f5565b6107eb565b6040516102699190612ab2565b60405180910390f35b34801561027e57600080fd5b5061028761087f565b604051610294919061291f565b60405180910390f35b3480156102a957600080fd5b506102c460048036038101906102bf9190612cd1565b610897565b005b3480156102d257600080fd5b506102db61093f565b6040516102e89190612ab2565b60405180910390f35b61030b600480360381019061030691906128d0565b6109cd565b005b34801561031957600080fd5b50610334600480360381019061032f9190612e63565b610b29565b6040516103419190612f99565b60405180910390f35b34801561035657600080fd5b50610371600480360381019061036c91906129f5565b610c38565b60405161037e91906129da565b60405180910390f35b34801561039357600080fd5b506103ae60048036038101906103a99190612fbb565b610c4c565b005b3480156103bc57600080fd5b506103d760048036038101906103d291906129f5565b610cf8565b005b3480156103e557600080fd5b506103ee610d0c565b005b3480156103fc57600080fd5b50610405610d20565b005b34801561041357600080fd5b5061041c610daf565b6040516104299190613055565b60405180910390f35b34801561043e57600080fd5b50610459600480360381019061045491906129f5565b610de7565b005b34801561046757600080fd5b50610470610dfb565b60405161047d919061291f565b60405180910390f35b34801561049257600080fd5b506104ad60048036038101906104a8919061309c565b610e01565b005b3480156104bb57600080fd5b506104d660048036038101906104d191906130dc565b610e17565b005b3480156104e457600080fd5b506104ff60048036038101906104fa91906129f5565b610e35565b60405161050c919061291f565b60405180910390f35b34801561052157600080fd5b5061053c6004803603810190610537919061311c565b610e60565b005b34801561054a57600080fd5b5061055361102d565b604051610560919061291f565b60405180910390f35b34801561057557600080fd5b50610590600480360381019061058b91906131ea565b611033565b005b34801561059e57600080fd5b506105a7611088565b6040516105b49190613055565b60405180910390f35b3480156105c957600080fd5b506105e460048036038101906105df9190613233565b6110c0565b6040516105f191906129da565b60405180910390f35b34801561060657600080fd5b50610621600480360381019061061c9190613273565b611162565b005b34801561062f57600080fd5b5061064a6004803603810190610645919061311c565b61120a565b005b34801561065857600080fd5b50610673600480360381019061066e919061330a565b6112c6565b005b34801561068157600080fd5b5061068a611372565b604051610697919061291f565b60405180910390f35b6000806106ab611377565b905080600001600084815260200190815260200160002060008573ffffffffffffffffffffffffffffffffffffffff1673ffffffffffffffffffffffffffffffffffffffff1681526020019081526020016000205491505092915050565b60007fd9b67a26000000000000000000000000000000000000000000000000000000007bffffffffffffffffffffffffffffffffffffffffffffffffffffffff1916827bffffffffffffffffffffffffffffffffffffffffffffffffffffffff191614806107d457507f0e89341c000000000000000000000000000000000000000000000000000000007bffffffffffffffffffffffffffffffffffffffffffffffffffffffff1916827bffffffffffffffffffffffffffffffffffffffffffffffffffffffff1916145b806107e457506107e38261139f565b5b9050919050565b6060600280546107fa9061338c565b80601f01602080910402602001604051908101604052809291908181526020018280546108269061338c565b80156108735780601f1061084857610100808354040283529160200191610873565b820191906000526020600020905b81548152906001019060200180831161085657829003601f168201915b50505050509050919050565b60008061088a611409565b9050806001015491505090565b60006108a1611431565b90508073ffffffffffffffffffffffffffffffffffffffff168673ffffffffffffffffffffffffffffffffffffffff16141580156108e657506108e486826110c0565b155b1561092a5780866040517fe237d9220000000000000000000000000000000000000000000000000000000081526004016109219291906133bd565b60405180910390fd5b6109378686868686611439565b505050505050565b6002805461094c9061338c565b80601f01602080910402602001604051908101604052809291908181526020018280546109789061338c565b80156109c55780601f1061099a576101008083540402835291602001916109c5565b820191906000526020600020905b8154815290600101906020018083116109a857829003601f168201915b505050505081565b600054816109db6000610e35565b6109e59190613415565b1115610a37576000546109f86000610e35565b826040517ff37c62a0000000000000000000000000000000000000000000000000000000008152600401610a2e93929190613449565b60405180910390fd5b600060015403610a80576001546040517ff9632e86000000000000000000000000000000000000000000000000000000008152600401610a77919061291f565b60405180910390fd5b600060015482610a909190613480565b905080341015610ad95780346040517f7040b58c000000000000000000000000000000000000000000000000000000008152600401610ad09291906134c2565b60405180910390fd5b80341115610af757610af6338234610af191906134eb565b611531565b5b610b08610b02610daf565b82611531565b610b2483600084604051806020016040528060008152506115e2565b505050565b60608151835114610b7557815183516040517f5b059991000000000000000000000000000000000000000000000000000000008152600401610b6c9291906134c2565b60405180910390fd5b6000835167ffffffffffffffff811115610b9257610b91612ad9565b5b604051908082528060200260200182016040528015610bc05781602001602082028036833780820191505090505b50905060005b8451811015610c2d57610bfd610be5828761167b90919063ffffffff16565b610bf8838761168f90919063ffffffff16565b6106a0565b828281518110610c1057610c0f61351f565b5b60200260200101818152505080610c269061354e565b9050610bc6565b508091505092915050565b600080610c4483610e35565b119050919050565b610c54611431565b73ffffffffffffffffffffffffffffffffffffffff168373ffffffffffffffffffffffffffffffffffffffff1614158015610c9d5750610c9b83610c96611431565b6110c0565b155b15610ce857610caa611431565b836040517fe237d922000000000000000000000000000000000000000000000000000000008152600401610cdf9291906133bd565b60405180910390fd5b610cf38383836116a3565b505050565b610d00611737565b610d09816117be565b50565b610d14611737565b610d1e600061184c565b565b6000610d2a611431565b90508073ffffffffffffffffffffffffffffffffffffffff16610d4b611088565b73ffffffffffffffffffffffffffffffffffffffff1614610da357806040517f118cdaa7000000000000000000000000000000000000000000000000000000008152600401610d9a9190613055565b60405180910390fd5b610dac8161184c565b50565b600080610dba61188c565b90508060000160009054906101000a900473ffffffffffffffffffffffffffffffffffffffff1691505090565b610def611737565b610df8816118b4565b50565b60015481565b610e13610e0c611431565b838361193a565b5050565b610e1f611737565b610e28826117be565b610e31816118b4565b5050565b600080610e40611409565b905080600001600084815260200190815260200160002054915050919050565b6000610e6a611ab9565b905060008160000160089054906101000a900460ff1615905060008260000160009054906101000a900467ffffffffffffffff1690506000808267ffffffffffffffff16148015610eb85750825b9050600060018367ffffffffffffffff16148015610eed575060003073ffffffffffffffffffffffffffffffffffffffff163b145b905081158015610efb575080155b15610f32576040517ff92ee8a900000000000000000000000000000000000000000000000000000000815260040160405180910390fd5b60018560000160006101000a81548167ffffffffffffffff021916908367ffffffffffffffff1602179055508315610f825760018560000160086101000a81548160ff0219169083151502179055505b610f8b8661184c565b610fc96040518060400160405280600b81526020017f5669676f722053746f6e65000000000000000000000000000000000000000000815250611ae1565b83156110255760008560000160086101000a81548160ff0219169083151502179055507fc7f505b2f371ae2175ee4913f4499e1f2633a7b5936321eed1cdaeb6115181d2600160405161101c91906135ef565b60405180910390a15b505050505050565b60005481565b61103b611737565b806002908161104a91906137ac565b5060007f6bb7ff708619ba0610cba295a58592e0451dee2622938c8755667688daf3529b600260405161107d9190613902565b60405180910390a250565b600080611093611af5565b90508060000160009054906101000a900473ffffffffffffffffffffffffffffffffffffffff1691505090565b6000806110cb611377565b90508060010160008573ffffffffffffffffffffffffffffffffffffffff1673ffffffffffffffffffffffffffffffffffffffff16815260200190815260200160002060008473ffffffffffffffffffffffffffffffffffffffff1673ffffffffffffffffffffffffffffffffffffffff16815260200190815260200160002060009054906101000a900460ff1691505092915050565b600061116c611431565b90508073ffffffffffffffffffffffffffffffffffffffff168673ffffffffffffffffffffffffffffffffffffffff16141580156111b157506111af86826110c0565b155b156111f55780866040517fe237d9220000000000000000000000000000000000000000000000000000000081526004016111ec9291906133bd565b60405180910390fd5b6112028686868686611b1d565b505050505050565b611212611737565b600061121c611af5565b9050818160000160006101000a81548173ffffffffffffffffffffffffffffffffffffffff021916908373ffffffffffffffffffffffffffffffffffffffff1602179055508173ffffffffffffffffffffffffffffffffffffffff16611280610daf565b73ffffffffffffffffffffffffffffffffffffffff167f38d16b8cac22d99fc7c124b9cd0de2d3fa1faef420bfe791d8c362d765e2270060405160405180910390a35050565b6112ce611431565b73ffffffffffffffffffffffffffffffffffffffff168373ffffffffffffffffffffffffffffffffffffffff1614158015611317575061131583611310611431565b6110c0565b155b1561136257611324611431565b836040517fe237d9220000000000000000000000000000000000000000000000000000000081526004016113599291906133bd565b60405180910390fd5b61136d838383611c28565b505050565b600081565b60007f88be536d5240c274a3b1d3a1be54482fd9caa294f08c62a7cde569f49a3c4500905090565b60007f01ffc9a7000000000000000000000000000000000000000000000000000000007bffffffffffffffffffffffffffffffffffffffffffffffffffffffff1916827bffffffffffffffffffffffffffffffffffffffffffffffffffffffff1916149050919050565b60007f4a593662ee04d27b6a00ebb31be7fe0c102c2ade82a7c5d764f2df05dc4e2800905090565b600033905090565b600073ffffffffffffffffffffffffffffffffffffffff168473ffffffffffffffffffffffffffffffffffffffff16036114ab5760006040517f57f447ce0000000000000000000000000000000000000000000000000000000081526004016114a29190613055565b60405180910390fd5b600073ffffffffffffffffffffffffffffffffffffffff168573ffffffffffffffffffffffffffffffffffffffff160361151d5760006040517f01a835140000000000000000000000000000000000000000000000000000000081526004016115149190613055565b60405180910390fd5b61152a8585858585611ccf565b5050505050565b60008273ffffffffffffffffffffffffffffffffffffffff168260405161155790613955565b60006040518083038185875af1925050503d8060008114611594576040519150601f19603f3d011682016040523d82523d6000602084013e611599565b606091505b50509050806115dd576040517f08c379a00000000000000000000000000000000000000000000000000000000081526004016115d4906139b6565b60405180910390fd5b505050565b600073ffffffffffffffffffffffffffffffffffffffff168473ffffffffffffffffffffffffffffffffffffffff16036116545760006040517f57f447ce00000000000000000000000000000000000000000000000000000000815260040161164b9190613055565b60405180910390fd5b6000806116618585611d81565b91509150611673600087848487611ccf565b505050505050565b600060208202602084010151905092915050565b600060208202602084010151905092915050565b600073ffffffffffffffffffffffffffffffffffffffff168373ffffffffffffffffffffffffffffffffffffffff16036117155760006040517f01a8351400000000000000000000000000000000000000000000000000000000815260040161170c9190613055565b60405180910390fd5b611732836000848460405180602001604052806000815250611ccf565b505050565b61173f611431565b73ffffffffffffffffffffffffffffffffffffffff1661175d610daf565b73ffffffffffffffffffffffffffffffffffffffff16146117bc57611780611431565b6040517f118cdaa70000000000000000000000000000000000000000000000000000000081526004016117b39190613055565b60405180910390fd5b565b6117c86000610e35565b811161180b57806040517f03d4e3b4000000000000000000000000000000000000000000000000000000008152600401611802919061291f565b60405180910390fd5b806000819055507f7810bd47de260c3e9ee10061cf438099dd12256c79485f12f94dbccc981e806c81604051611841919061291f565b60405180910390a150565b6000611856611af5565b90508060000160006101000a81549073ffffffffffffffffffffffffffffffffffffffff021916905561188882611db1565b5050565b60007f9016d09d72d40fdae2fd8ceac6b6234c7706214fd39c1cd1e609a0528c199300905090565b600081036118f957806040517ff9632e860000000000000000000000000000000000000000000000000000000081526004016118f0919061291f565b60405180910390fd5b806001819055507f66cbca4f3c64fecf1dcb9ce094abcf7f68c3450a1d4e3a8e917dd621edb4ebe08160405161192f919061291f565b60405180910390a150565b6000611944611377565b9050600073ffffffffffffffffffffffffffffffffffffffff168373ffffffffffffffffffffffffffffffffffffffff16036119b85760006040517fced3e1000000000000000000000000000000000000000000000000000000000081526004016119af9190613055565b60405180910390fd5b818160010160008673ffffffffffffffffffffffffffffffffffffffff1673ffffffffffffffffffffffffffffffffffffffff16815260200190815260200160002060008573ffffffffffffffffffffffffffffffffffffffff1673ffffffffffffffffffffffffffffffffffffffff16815260200190815260200160002060006101000a81548160ff0219169083151502179055508273ffffffffffffffffffffffffffffffffffffffff168473ffffffffffffffffffffffffffffffffffffffff167f17307eab39ab6107e8899845ad3d59bd9653f200f220920489ca2b5937696c3184604051611aab91906129da565b60405180910390a350505050565b60007ff0c57e16840df040f15088dc2f81fe391c3923bec73e23a9662efc9c229c6a00905090565b611ae9611e88565b611af281611ec8565b50565b60007f237e158222e3e6968b72b9db0d8043aacf074ad9f650f0d1606b4d82ee432c00905090565b600073ffffffffffffffffffffffffffffffffffffffff168473ffffffffffffffffffffffffffffffffffffffff1603611b8f5760006040517f57f447ce000000000000000000000000000000000000000000000000000000008152600401611b869190613055565b60405180910390fd5b600073ffffffffffffffffffffffffffffffffffffffff168573ffffffffffffffffffffffffffffffffffffffff1603611c015760006040517f01a83514000000000000000000000000000000000000000000000000000000008152600401611bf89190613055565b60405180910390fd5b600080611c0e8585611d81565b91509150611c1f8787848487611ccf565b50505050505050565b600073ffffffffffffffffffffffffffffffffffffffff168373ffffffffffffffffffffffffffffffffffffffff1603611c9a5760006040517f01a83514000000000000000000000000000000000000000000000000000000008152600401611c919190613055565b60405180910390fd5b600080611ca78484611d81565b91509150611cc8856000848460405180602001604052806000815250611ccf565b5050505050565b611cdb85858585611edc565b600073ffffffffffffffffffffffffffffffffffffffff168473ffffffffffffffffffffffffffffffffffffffff1614611d7a576000611d19611431565b90506001845103611d69576000611d3a60008661168f90919063ffffffff16565b90506000611d5260008661168f90919063ffffffff16565b9050611d62838989858589611eee565b5050611d78565b611d778187878787876120a2565b5b505b5050505050565b60608060405191506001825283602083015260408201905060018152826020820152604081016040529250929050565b6000611dbb61188c565b905060008160000160009054906101000a900473ffffffffffffffffffffffffffffffffffffffff169050828260000160006101000a81548173ffffffffffffffffffffffffffffffffffffffff021916908373ffffffffffffffffffffffffffffffffffffffff1602179055508273ffffffffffffffffffffffffffffffffffffffff168173ffffffffffffffffffffffffffffffffffffffff167f8be0079c531659141344cd1fd0a4f28419497f9722a3daafe3b4186f6b6457e060405160405180910390a3505050565b611e90612256565b611ec6576040517fd7e6bcf800000000000000000000000000000000000000000000000000000000815260040160405180910390fd5b565b611ed0611e88565b611ed981612276565b50565b611ee884848484612298565b50505050565b60008473ffffffffffffffffffffffffffffffffffffffff163b111561209a578373ffffffffffffffffffffffffffffffffffffffff1663f23a6e6187878686866040518663ffffffff1660e01b8152600401611f4f959493929190613a2b565b6020604051808303816000875af1925050508015611f8b57506040513d601f19601f82011682018060405250810190611f889190613a9a565b60015b61200f573d8060008114611fbb576040519150601f19603f3d011682016040523d82523d6000602084013e611fc0565b606091505b50600081510361200757846040517f57f447ce000000000000000000000000000000000000000000000000000000008152600401611ffe9190613055565b60405180910390fd5b805181602001fd5b63f23a6e6160e01b7bffffffffffffffffffffffffffffffffffffffffffffffffffffffff1916817bffffffffffffffffffffffffffffffffffffffffffffffffffffffff19161461209857846040517f57f447ce00000000000000000000000000000000000000000000000000000000815260040161208f9190613055565b60405180910390fd5b505b505050505050565b60008473ffffffffffffffffffffffffffffffffffffffff163b111561224e578373ffffffffffffffffffffffffffffffffffffffff1663bc197c8187878686866040518663ffffffff1660e01b8152600401612103959493929190613ac7565b6020604051808303816000875af192505050801561213f57506040513d601f19601f8201168201806040525081019061213c9190613a9a565b60015b6121c3573d806000811461216f576040519150601f19603f3d011682016040523d82523d6000602084013e612174565b606091505b5060008151036121bb57846040517f57f447ce0000000000000000000000000000000000000000000000000000000081526004016121b29190613055565b60405180910390fd5b805181602001fd5b63bc197c8160e01b7bffffffffffffffffffffffffffffffffffffffffffffffffffffffff1916817bffffffffffffffffffffffffffffffffffffffffffffffffffffffff19161461224c57846040517f57f447ce0000000000000000000000000000000000000000000000000000000081526004016122439190613055565b60405180910390fd5b505b505050505050565b6000612260611ab9565b60000160089054906101000a900460ff16905090565b6000612280611377565b90508181600201908161229391906137ac565b505050565b60006122a2611409565b90506122b085858585612464565b600073ffffffffffffffffffffffffffffffffffffffff168573ffffffffffffffffffffffffffffffffffffffff1603612394576000805b84518110156123765760008482815181106123065761230561351f565b5b602002602001015190508084600001600088858151811061232a5761232961351f565b5b60200260200101518152602001908152602001600020600082825461234f9190613415565b9250508190555080836123629190613415565b9250508061236f9061354e565b90506122e8565b508082600101600082825461238b9190613415565b92505081905550505b600073ffffffffffffffffffffffffffffffffffffffff168473ffffffffffffffffffffffffffffffffffffffff160361245d576000805b84518110156124485760008482815181106123ea576123e961351f565b5b602002602001015190508084600001600088858151811061240e5761240d61351f565b5b6020026020010151815260200190815260200160002060008282540392505081905550808301925050806124419061354e565b90506123cc565b50808260010160008282540392505081905550505b5050505050565b600061246e611377565b905081518351146124ba57825182516040517f5b0599910000000000000000000000000000000000000000000000000000000081526004016124b19291906134c2565b60405180910390fd5b60006124c4611431565b905060005b84518110156126e25760006124e7828761168f90919063ffffffff16565b905060006124fe838761168f90919063ffffffff16565b9050600073ffffffffffffffffffffffffffffffffffffffff168973ffffffffffffffffffffffffffffffffffffffff161461263157600085600001600084815260200190815260200160002060008b73ffffffffffffffffffffffffffffffffffffffff1673ffffffffffffffffffffffffffffffffffffffff168152602001908152602001600020549050818110156125d657898183856040517f03dee4c50000000000000000000000000000000000000000000000000000000081526004016125cd9493929190613b2f565b60405180910390fd5b81810386600001600085815260200190815260200160002060008c73ffffffffffffffffffffffffffffffffffffffff1673ffffffffffffffffffffffffffffffffffffffff16815260200190815260200160002081905550505b600073ffffffffffffffffffffffffffffffffffffffff168873ffffffffffffffffffffffffffffffffffffffff16146126cf578085600001600084815260200190815260200160002060008a73ffffffffffffffffffffffffffffffffffffffff1673ffffffffffffffffffffffffffffffffffffffff16815260200190815260200160002060008282546126c79190613415565b925050819055505b5050806126db9061354e565b90506124c9565b5060018451036127a157600061270260008661168f90919063ffffffff16565b9050600061271a60008661168f90919063ffffffff16565b90508673ffffffffffffffffffffffffffffffffffffffff168873ffffffffffffffffffffffffffffffffffffffff168473ffffffffffffffffffffffffffffffffffffffff167fc3d58168c5ae7397731d063d5bbf3d657854427343f4c083240f7aacaa2d0f6285856040516127929291906134c2565b60405180910390a45050612820565b8473ffffffffffffffffffffffffffffffffffffffff168673ffffffffffffffffffffffffffffffffffffffff168273ffffffffffffffffffffffffffffffffffffffff167f4a39dc06d4c0dbc64b70af90fd698a233a518aa5d07e595d983b8c0526c8f7fb8787604051612817929190613b74565b60405180910390a45b505050505050565b6000604051905090565b600080fd5b600080fd5b600073ffffffffffffffffffffffffffffffffffffffff82169050919050565b60006128678261283c565b9050919050565b6128778161285c565b811461288257600080fd5b50565b6000813590506128948161286e565b92915050565b6000819050919050565b6128ad8161289a565b81146128b857600080fd5b50565b6000813590506128ca816128a4565b92915050565b600080604083850312156128e7576128e6612832565b5b60006128f585828601612885565b9250506020612906858286016128bb565b9150509250929050565b6129198161289a565b82525050565b60006020820190506129346000830184612910565b92915050565b60007fffffffff0000000000000000000000000000000000000000000000000000000082169050919050565b61296f8161293a565b811461297a57600080fd5b50565b60008135905061298c81612966565b92915050565b6000602082840312156129a8576129a7612832565b5b60006129b68482850161297d565b91505092915050565b60008115159050919050565b6129d4816129bf565b82525050565b60006020820190506129ef60008301846129cb565b92915050565b600060208284031215612a0b57612a0a612832565b5b6000612a19848285016128bb565b91505092915050565b600081519050919050565b600082825260208201905092915050565b60005b83811015612a5c578082015181840152602081019050612a41565b60008484015250505050565b6000601f19601f8301169050919050565b6000612a8482612a22565b612a8e8185612a2d565b9350612a9e818560208601612a3e565b612aa781612a68565b840191505092915050565b60006020820190508181036000830152612acc8184612a79565b905092915050565b600080fd5b7f4e487b7100000000000000000000000000000000000000000000000000000000600052604160045260246000fd5b612b1182612a68565b810181811067ffffffffffffffff82111715612b3057612b2f612ad9565b5b80604052505050565b6000612b43612828565b9050612b4f8282612b08565b919050565b600067ffffffffffffffff821115612b6f57612b6e612ad9565b5b602082029050602081019050919050565b600080fd5b6000612b98612b9384612b54565b612b39565b90508083825260208201905060208402830185811115612bbb57612bba612b80565b5b835b81811015612be45780612bd088826128bb565b845260208401935050602081019050612bbd565b5050509392505050565b600082601f830112612c0357612c02612ad4565b5b8135612c13848260208601612b85565b91505092915050565b600080fd5b600067ffffffffffffffff821115612c3c57612c3b612ad9565b5b612c4582612a68565b9050602081019050919050565b82818337600083830152505050565b6000612c74612c6f84612c21565b612b39565b905082815260208101848484011115612c9057612c8f612c1c565b5b612c9b848285612c52565b509392505050565b600082601f830112612cb857612cb7612ad4565b5b8135612cc8848260208601612c61565b91505092915050565b600080600080600060a08688031215612ced57612cec612832565b5b6000612cfb88828901612885565b9550506020612d0c88828901612885565b945050604086013567ffffffffffffffff811115612d2d57612d2c612837565b5b612d3988828901612bee565b935050606086013567ffffffffffffffff811115612d5a57612d59612837565b5b612d6688828901612bee565b925050608086013567ffffffffffffffff811115612d8757612d86612837565b5b612d9388828901612ca3565b9150509295509295909350565b600067ffffffffffffffff821115612dbb57612dba612ad9565b5b602082029050602081019050919050565b6000612ddf612dda84612da0565b612b39565b90508083825260208201905060208402830185811115612e0257612e01612b80565b5b835b81811015612e2b5780612e178882612885565b845260208401935050602081019050612e04565b5050509392505050565b600082601f830112612e4a57612e49612ad4565b5b8135612e5a848260208601612dcc565b91505092915050565b60008060408385031215612e7a57612e79612832565b5b600083013567ffffffffffffffff811115612e9857612e97612837565b5b612ea485828601612e35565b925050602083013567ffffffffffffffff811115612ec557612ec4612837565b5b612ed185828601612bee565b9150509250929050565b600081519050919050565b600082825260208201905092915050565b6000819050602082019050919050565b612f108161289a565b82525050565b6000612f228383612f07565b60208301905092915050565b6000602082019050919050565b6000612f4682612edb565b612f508185612ee6565b9350612f5b83612ef7565b8060005b83811015612f8c578151612f738882612f16565b9750612f7e83612f2e565b925050600181019050612f5f565b5085935050505092915050565b60006020820190508181036000830152612fb38184612f3b565b905092915050565b600080600060608486031215612fd457612fd3612832565b5b6000612fe286828701612885565b935050602084013567ffffffffffffffff81111561300357613002612837565b5b61300f86828701612bee565b925050604084013567ffffffffffffffff8111156130305761302f612837565b5b61303c86828701612bee565b9150509250925092565b61304f8161285c565b82525050565b600060208201905061306a6000830184613046565b92915050565b613079816129bf565b811461308457600080fd5b50565b60008135905061309681613070565b92915050565b600080604083850312156130b3576130b2612832565b5b60006130c185828601612885565b92505060206130d285828601613087565b9150509250929050565b600080604083850312156130f3576130f2612832565b5b6000613101858286016128bb565b9250506020613112858286016128bb565b9150509250929050565b60006020828403121561313257613131612832565b5b600061314084828501612885565b91505092915050565b600067ffffffffffffffff82111561316457613163612ad9565b5b61316d82612a68565b9050602081019050919050565b600061318d61318884613149565b612b39565b9050828152602081018484840111156131a9576131a8612c1c565b5b6131b4848285612c52565b509392505050565b600082601f8301126131d1576131d0612ad4565b5b81356131e184826020860161317a565b91505092915050565b600060208284031215613200576131ff612832565b5b600082013567ffffffffffffffff81111561321e5761321d612837565b5b61322a848285016131bc565b91505092915050565b6000806040838503121561324a57613249612832565b5b600061325885828601612885565b925050602061326985828601612885565b9150509250929050565b600080600080600060a0868803121561328f5761328e612832565b5b600061329d88828901612885565b95505060206132ae88828901612885565b94505060406132bf888289016128bb565b93505060606132d0888289016128bb565b925050608086013567ffffffffffffffff8111156132f1576132f0612837565b5b6132fd88828901612ca3565b9150509295509295909350565b60008060006060848603121561332357613322612832565b5b600061333186828701612885565b9350506020613342868287016128bb565b9250506040613353868287016128bb565b9150509250925092565b7f4e487b7100000000000000000000000000000000000000000000000000000000600052602260045260246000fd5b600060028204905060018216806133a457607f821691505b6020821081036133b7576133b661335d565b5b50919050565b60006040820190506133d26000830185613046565b6133df6020830184613046565b9392505050565b7f4e487b7100000000000000000000000000000000000000000000000000000000600052601160045260246000fd5b60006134208261289a565b915061342b8361289a565b9250828201905080821115613443576134426133e6565b5b92915050565b600060608201905061345e6000830186612910565b61346b6020830185612910565b6134786040830184612910565b949350505050565b600061348b8261289a565b91506134968361289a565b92508282026134a48161289a565b915082820484148315176134bb576134ba6133e6565b5b5092915050565b60006040820190506134d76000830185612910565b6134e46020830184612910565b9392505050565b60006134f68261289a565b91506135018361289a565b9250828203905081811115613519576135186133e6565b5b92915050565b7f4e487b7100000000000000000000000000000000000000000000000000000000600052603260045260246000fd5b60006135598261289a565b91507fffffffffffffffffffffffffffffffffffffffffffffffffffffffffffffffff820361358b5761358a6133e6565b5b600182019050919050565b6000819050919050565b600067ffffffffffffffff82169050919050565b6000819050919050565b60006135d96135d46135cf84613596565b6135b4565b6135a0565b9050919050565b6135e9816135be565b82525050565b600060208201905061360460008301846135e0565b92915050565b60008190508160005260206000209050919050565b60006020601f8301049050919050565b600082821b905092915050565b60006008830261366c7fffffffffffffffffffffffffffffffffffffffffffffffffffffffffffffffff8261362f565b613676868361362f565b95508019841693508086168417925050509392505050565b60006136a96136a461369f8461289a565b6135b4565b61289a565b9050919050565b6000819050919050565b6136c38361368e565b6136d76136cf826136b0565b84845461363c565b825550505050565b600090565b6136ec6136df565b6136f78184846136ba565b505050565b5b8181101561371b576137106000826136e4565b6001810190506136fd565b5050565b601f821115613760576137318161360a565b61373a8461361f565b81016020851015613749578190505b61375d6137558561361f565b8301826136fc565b50505b505050565b600082821c905092915050565b600061378360001984600802613765565b1980831691505092915050565b600061379c8383613772565b9150826002028217905092915050565b6137b582612a22565b67ffffffffffffffff8111156137ce576137cd612ad9565b5b6137d8825461338c565b6137e382828561371f565b600060209050601f8311600181146138165760008415613804578287015190505b61380e8582613790565b865550613876565b601f1984166138248661360a565b60005b8281101561384c57848901518255600182019150602085019450602081019050613827565b868310156138695784890151613865601f891682613772565b8355505b6001600288020188555050505b505050505050565b6000815461388b8161338c565b6138958186612a2d565b945060018216600081146138b057600181146138c6576138f9565b60ff1983168652811515602002860193506138f9565b6138cf8561360a565b60005b838110156138f1578154818901526001820191506020810190506138d2565b808801955050505b50505092915050565b6000602082019050818103600083015261391c818461387e565b905092915050565b600081905092915050565b50565b600061393f600083613924565b915061394a8261392f565b600082019050919050565b600061396082613932565b9150819050919050565b7f726566756e64206661696c656400000000000000000000000000000000000000600082015250565b60006139a0600d83612a2d565b91506139ab8261396a565b602082019050919050565b600060208201905081810360008301526139cf81613993565b9050919050565b600081519050919050565b600082825260208201905092915050565b60006139fd826139d6565b613a0781856139e1565b9350613a17818560208601612a3e565b613a2081612a68565b840191505092915050565b600060a082019050613a406000830188613046565b613a4d6020830187613046565b613a5a6040830186612910565b613a676060830185612910565b8181036080830152613a7981846139f2565b90509695505050505050565b600081519050613a9481612966565b92915050565b600060208284031215613ab057613aaf612832565b5b6000613abe84828501613a85565b91505092915050565b600060a082019050613adc6000830188613046565b613ae96020830187613046565b8181036040830152613afb8186612f3b565b90508181036060830152613b0f8185612f3b565b90508181036080830152613b2381846139f2565b90509695505050505050565b6000608082019050613b446000830187613046565b613b516020830186612910565b613b5e6040830185612910565b613b6b6060830184612910565b95945050505050565b60006040820190508181036000830152613b8e8185612f3b565b90508181036020830152613ba28184612f3b565b9050939250505056fea264697066735822122099eaa40cb3a51cbef3a44b900e875d25674487e3c7aedd6f49c1f2d04f67421164736f6c63430008140033",
  "devdoc": {
    "errors": {
      "ERC1155InsufficientBalance(address,uint256,uint256,uint256)": [
        {
          "details": "Indicates an error related to the current `balance` of a `sender`. Used in transfers.",
          "params": {
            "balance": "Current balance for the interacting account.",
            "needed": "Minimum amount required to perform a transfer.",
            "sender": "Address whose tokens are being transferred.",
            "tokenId": "Identifier number of a token."
          }
        }
      ],
      "ERC1155InvalidApprover(address)": [
        {
          "details": "Indicates a failure with the `approver` of a token to be approved. Used in approvals.",
          "params": {
            "approver": "Address initiating an approval operation."
          }
        }
      ],
      "ERC1155InvalidArrayLength(uint256,uint256)": [
        {
          "details": "Indicates an array length mismatch between ids and values in a safeBatchTransferFrom operation. Used in batch transfers.",
          "params": {
            "idsLength": "Length of the array of token identifiers",
            "valuesLength": "Length of the array of token amounts"
          }
        }
      ],
      "ERC1155InvalidOperator(address)": [
        {
          "details": "Indicates a failure with the `operator` to be approved. Used in approvals.",
          "params": {
            "operator": "Address that may be allowed to operate on tokens without being their owner."
          }
        }
      ],
      "ERC1155InvalidReceiver(address)": [
        {
          "details": "Indicates a failure with the token `receiver`. Used in transfers.",
          "params": {
            "receiver": "Address to which tokens are being transferred."
          }
        }
      ],
      "ERC1155InvalidSender(address)": [
        {
          "details": "Indicates a failure with the token `sender`. Used in transfers.",
          "params": {
            "sender": "Address whose tokens are being transferred."
          }
        }
      ],
      "ERC1155MissingApprovalForAll(address,address)": [
        {
          "details": "Indicates a failure with the `operator`s approval. Used in transfers.",
          "params": {
            "operator": "Address that may be allowed to operate on tokens without being their owner.",
            "owner": "Address of the current owner of a token."
          }
        }
      ],
      "InvalidInitialization()": [
        {
          "details": "The contract is already initialized."
        }
      ],
      "NotInitializing()": [
        {
          "details": "The contract is not initializing."
        }
      ],
      "OwnableInvalidOwner(address)": [
        {
          "details": "The owner is not a valid owner account. (eg. `address(0)`)"
        }
      ],
      "OwnableUnauthorizedAccount(address)": [
        {
          "details": "The caller account is not authorized to perform an operation."
        }
      ]
    },
    "events": {
      "ApprovalForAll(address,address,bool)": {
        "details": "Emitted when `account` grants or revokes permission to `operator` to transfer their tokens, according to `approved`."
      },
      "Initialized(uint64)": {
        "details": "Triggered when the contract has been initialized or reinitialized."
      },
      "TransferBatch(address,address,address,uint256[],uint256[])": {
        "details": "Equivalent to multiple {TransferSingle} events, where `operator`, `from` and `to` are the same for all transfers."
      },
      "TransferSingle(address,address,address,uint256,uint256)": {
        "details": "Emitted when `value` amount of tokens of type `id` are transferred from `from` to `to` by `operator`."
      },
      "URI(string,uint256)": {
        "details": "Emitted when the URI for token type `id` changes to `value`, if it is a non-programmatic URI. If an {URI} event was emitted for `id`, the standard https://eips.ethereum.org/EIPS/eip-1155#metadata-extensions[guarantees] that `value` will equal the value returned by {IERC1155MetadataURI-uri}."
      }
    },
    "kind": "dev",
    "methods": {
      "acceptOwnership()": {
        "details": "The new owner accepts the ownership transfer."
      },
      "balanceOf(address,uint256)": {
        "details": "See {IERC1155-balanceOf}."
      },
      "balanceOfBatch(address[],uint256[])": {
        "details": "See {IERC1155-balanceOfBatch}. Requirements: - `accounts` and `ids` must have the same length."
      },
      "exists(uint256)": {
        "details": "Indicates whether any token exist with a given id, or not."
      },
      "isApprovedForAll(address,address)": {
        "details": "See {IERC1155-isApprovedForAll}."
      },
      "owner()": {
        "details": "Returns the address of the current owner."
      },
      "pendingOwner()": {
        "details": "Returns the address of the pending owner."
      },
      "renounceOwnership()": {
        "details": "Leaves the contract without owner. It will not be possible to call `onlyOwner` functions. Can only be called by the current owner. NOTE: Renouncing ownership will leave the contract without an owner, thereby disabling any functionality that is only available to the owner."
      },
      "safeBatchTransferFrom(address,address,uint256[],uint256[],bytes)": {
        "details": "See {IERC1155-safeBatchTransferFrom}."
      },
      "safeTransferFrom(address,address,uint256,uint256,bytes)": {
        "details": "See {IERC1155-safeTransferFrom}."
      },
      "setApprovalForAll(address,bool)": {
        "details": "See {IERC1155-setApprovalForAll}."
      },
      "supportsInterface(bytes4)": {
        "details": "See {IERC165-supportsInterface}."
      },
      "totalSupply()": {
        "details": "Total value of tokens."
      },
      "totalSupply(uint256)": {
        "details": "Total value of tokens in with a given id."
      },
      "transferOwnership(address)": {
        "details": "Starts the ownership transfer of the contract to a new account. Replaces the pending transfer if there is one. Can only be called by the current owner."
      }
    },
    "version": 1
  },
  "userdoc": {
    "kind": "user",
    "methods": {},
    "version": 1
  },
  "storageLayout": {
    "storage": [
      {
        "astId": 8648,
        "contract": "contracts/core/VigorStone.sol:VigorStone",
        "label": "maxSupply",
        "offset": 0,
        "slot": "0",
        "type": "t_uint256"
      },
      {
        "astId": 8650,
        "contract": "contracts/core/VigorStone.sol:VigorStone",
        "label": "price",
        "offset": 0,
        "slot": "1",
        "type": "t_uint256"
      },
      {
        "astId": 8652,
        "contract": "contracts/core/VigorStone.sol:VigorStone",
        "label": "tokenURI",
        "offset": 0,
        "slot": "2",
        "type": "t_string_storage"
      }
    ],
    "types": {
      "t_string_storage": {
        "encoding": "bytes",
        "label": "string",
        "numberOfBytes": "32"
      },
      "t_uint256": {
        "encoding": "inplace",
        "label": "uint256",
        "numberOfBytes": "32"
      }
    }
  }
}