{
  "address": "0xa84F3B53c8550F97330D3Df0a901EA2Add25441F",
  "abi": [
    {
      "inputs": [
        {
          "internalType": "contract IERC1155",
          "name": "_token",
          "type": "address"
        }
      ],
      "stateMutability": "nonpayable",
      "type": "constructor"
    },
    {
      "inputs": [
        {
          "internalType": "bytes32",
          "name": "key",
          "type": "bytes32"
        }
      ],
      "name": "EnumerableMapNonexistentKey",
      "type": "error"
    },
    {
      "inputs": [
        {
          "internalType": "uint256",
          "name": "key",
          "type": "uint256"
        }
      ],
      "name": "EnumerableMapNonexistentKey",
      "type": "error"
    },
    {
      "anonymous": false,
      "inputs": [
        {
          "indexed": false,
          "internalType": "address",
          "name": "account",
          "type": "address"
        },
        {
          "indexed": false,
          "internalType": "uint256",
          "name": "applyId",
          "type": "uint256"
        },
        {
          "indexed": false,
          "internalType": "uint256",
          "name": "amount",
          "type": "uint256"
        },
        {
          "indexed": false,
          "internalType": "uint256",
          "name": "applyTime",
          "type": "uint256"
        }
      ],
      "name": "ApplyUnstaked",
      "type": "event"
    },
    {
      "anonymous": false,
      "inputs": [
        {
          "indexed": false,
          "internalType": "address",
          "name": "account",
          "type": "address"
        },
        {
          "indexed": false,
          "internalType": "uint256",
          "name": "amount",
          "type": "uint256"
        }
      ],
      "name": "Staked",
      "type": "event"
    },
    {
      "anonymous": false,
      "inputs": [
        {
          "indexed": false,
          "internalType": "address",
          "name": "account",
          "type": "address"
        },
        {
          "indexed": false,
          "internalType": "uint256",
          "name": "applyId",
          "type": "uint256"
        },
        {
          "indexed": false,
          "internalType": "uint256",
          "name": "amount",
          "type": "uint256"
        }
      ],
      "name": "Unstaked",
      "type": "event"
    },
    {
      "inputs": [],
      "name": "LOCKTIME",
      "outputs": [
        {
          "internalType": "uint64",
          "name": "",
          "type": "uint64"
        }
      ],
      "stateMutability": "view",
      "type": "function"
    },
    {
      "inputs": [],
      "name": "MAXSTAKE",
      "outputs": [
        {
          "internalType": "uint256",
          "name": "",
          "type": "uint256"
        }
      ],
      "stateMutability": "view",
      "type": "function"
    },
    {
      "inputs": [],
      "name": "TOKEN",
      "outputs": [
        {
          "internalType": "contract IERC1155",
          "name": "",
          "type": "address"
        }
      ],
      "stateMutability": "view",
      "type": "function"
    },
    {
      "inputs": [],
      "name": "TOKENID",
      "outputs": [
        {
          "internalType": "uint256",
          "name": "",
          "type": "uint256"
        }
      ],
      "stateMutability": "view",
      "type": "function"
    },
    {
      "inputs": [
        {
          "internalType": "address",
          "name": "account",
          "type": "address"
        }
      ],
      "name": "applyLength",
      "outputs": [
        {
          "internalType": "uint256",
          "name": "",
          "type": "uint256"
        }
      ],
      "stateMutability": "view",
      "type": "function"
    },
    {
      "inputs": [
        {
          "internalType": "address",
          "name": "account",
          "type": "address"
        },
        {
          "internalType": "uint256",
          "name": "start",
          "type": "uint256"
        },
        {
          "internalType": "uint256",
          "name": "amount",
          "type": "uint256"
        }
      ],
      "name": "applyOf",
      "outputs": [
        {
          "internalType": "uint256[]",
          "name": "ids",
          "type": "uint256[]"
        },
        {
          "components": [
            {
              "internalType": "uint256",
              "name": "amount",
              "type": "uint256"
            },
            {
              "internalType": "uint256",
              "name": "applyTime",
              "type": "uint256"
            }
          ],
          "internalType": "struct EnumerableApply.ApplyInfo[]",
          "name": "infos",
          "type": "tuple[]"
        }
      ],
      "stateMutability": "view",
      "type": "function"
    },
    {
      "inputs": [
        {
          "internalType": "uint256",
          "name": "amount",
          "type": "uint256"
        }
      ],
      "name": "applyUnstake",
      "outputs": [],
      "stateMutability": "nonpayable",
      "type": "function"
    },
    {
      "inputs": [
        {
          "internalType": "address",
          "name": "account",
          "type": "address"
        },
        {
          "internalType": "uint256",
          "name": "applyId",
          "type": "uint256"
        }
      ],
      "name": "getApply",
      "outputs": [
        {
          "components": [
            {
              "internalType": "uint256",
              "name": "amount",
              "type": "uint256"
            },
            {
              "internalType": "uint256",
              "name": "applyTime",
              "type": "uint256"
            }
          ],
          "internalType": "struct EnumerableApply.ApplyInfo",
          "name": "info",
          "type": "tuple"
        }
      ],
      "stateMutability": "view",
      "type": "function"
    },
    {
      "inputs": [
        {
          "internalType": "address",
          "name": "account",
          "type": "address"
        }
      ],
      "name": "getStake",
      "outputs": [
        {
          "internalType": "uint256",
          "name": "",
          "type": "uint256"
        }
      ],
      "stateMutability": "view",
      "type": "function"
    },
    {
      "inputs": [
        {
          "internalType": "address",
          "name": "",
          "type": "address"
        },
        {
          "internalType": "address",
          "name": "",
          "type": "address"
        },
        {
          "internalType": "uint256[]",
          "name": "",
          "type": "uint256[]"
        },
        {
          "internalType": "uint256[]",
          "name": "",
          "type": "uint256[]"
        },
        {
          "internalType": "bytes",
          "name": "",
          "type": "bytes"
        }
      ],
      "name": "onERC1155BatchReceived",
      "outputs": [
        {
          "internalType": "bytes4",
          "name": "",
          "type": "bytes4"
        }
      ],
      "stateMutability": "nonpayable",
      "type": "function"
    },
    {
      "inputs": [
        {
          "internalType": "address",
          "name": "",
          "type": "address"
        },
        {
          "internalType": "address",
          "name": "",
          "type": "address"
        },
        {
          "internalType": "uint256",
          "name": "",
          "type": "uint256"
        },
        {
          "internalType": "uint256",
          "name": "",
          "type": "uint256"
        },
        {
          "internalType": "bytes",
          "name": "",
          "type": "bytes"
        }
      ],
      "name": "onERC1155Received",
      "outputs": [
        {
          "internalType": "bytes4",
          "name": "",
          "type": "bytes4"
        }
      ],
      "stateMutability": "nonpayable",
      "type": "function"
    },
    {
      "inputs": [
        {
          "internalType": "uint256",
          "name": "amount",
          "type": "uint256"
        }
      ],
      "name": "stake",
      "outputs": [],
      "stateMutability": "nonpayable",
      "type": "function"
    },
    {
      "inputs": [],
      "name": "stakeLength",
      "outputs": [
        {
          "internalType": "uint256",
          "name": "",
          "type": "uint256"
        }
      ],
      "stateMutability": "view",
      "type": "function"
    },
    {
      "inputs": [
        {
          "internalType": "uint256",
          "name": "start",
          "type": "uint256"
        },
        {
          "internalType": "uint256",
          "name": "amount",
          "type": "uint256"
        }
      ],
      "name": "stakesOf",
      "outputs": [
        {
          "internalType": "address[]",
          "name": "stakers",
          "type": "address[]"
        },
        {
          "internalType": "uint256[]",
          "name": "amounts",
          "type": "uint256[]"
        }
      ],
      "stateMutability": "view",
      "type": "function"
    },
    {
      "inputs": [
        {
          "internalType": "bytes4",
          "name": "interfaceId",
          "type": "bytes4"
        }
      ],
      "name": "supportsInterface",
      "outputs": [
        {
          "internalType": "bool",
          "name": "",
          "type": "bool"
        }
      ],
      "stateMutability": "view",
      "type": "function"
    },
    {
      "inputs": [
        {
          "internalType": "address",
          "name": "to",
          "type": "address"
        },
        {
          "internalType": "uint256",
          "name": "applyId",
          "type": "uint256"
        }
      ],
      "name": "unstake",
      "outputs": [],
      "stateMutability": "nonpayable",
      "type": "function"
    }
  ],
  "transactionHash": "0x0ada82f6fd8969a171fc143c2b7c47899068ae7aecaffe56200e0cfc868da684",
  "args": [
    "0x8eDEc66661A2367EbfDE72Fd7177153c4C6700c3"
  ],
  "numDeployments": 1,
  "solcInputHash": "9a98349b1af262659f0ed29f363e553e",
  "bytecode": "0x60e060405261012c67ffffffffffffffff1660809067ffffffffffffffff16815250600560c0908152503480156200003657600080fd5b50604051620026f9380380620026f983398181016040528101906200005c919062000115565b8073ffffffffffffffffffffffffffffffffffffffff1660a08173ffffffffffffffffffffffffffffffffffffffff16815250505062000147565b600080fd5b600073ffffffffffffffffffffffffffffffffffffffff82169050919050565b6000620000c9826200009c565b9050919050565b6000620000dd82620000bc565b9050919050565b620000ef81620000d0565b8114620000fb57600080fd5b50565b6000815190506200010f81620000e4565b92915050565b6000602082840312156200012e576200012d62000097565b5b60006200013e84828501620000fe565b91505092915050565b60805160a05160c05161256662000193600039600081816103ed01526106210152600081816105fd015281816106da0152610907015260008181610411015261088c01526125666000f3fe608060405234801561001057600080fd5b50600436106101005760003560e01c8063c2a672e011610097578063f155c6bf11610066578063f155c6bf146102c2578063f23a6e61146102f2578063f9a64cc014610322578063fea47c491461035357610100565b8063c2a672e01461023c578063c3b44ef414610258578063ce5ba45014610288578063d4967282146102a457610100565b80637a766460116100d35780637a766460146101a257806382bfefc8146101d2578063a694fc3a146101f0578063bc197c811461020c57610100565b806301ffc9a7146101055780631d3c613a14610135578063242c8e691461015357806371bdf9ea14610171575b600080fd5b61011f600480360381019061011a9190611673565b610371565b60405161012c91906116bb565b60405180910390f35b61013d6103eb565b60405161014a91906116ef565b60405180910390f35b61015b61040f565b604051610168919061172d565b60405180910390f35b61018b60048036038101906101869190611774565b610433565b604051610199929190611962565b60405180910390f35b6101bc60048036038101906101b791906119c5565b6105bc565b6040516101c991906116ef565b60405180910390f35b6101da6105fb565b6040516101e79190611a51565b60405180910390f35b61020a60048036038101906102059190611a6c565b61061f565b005b61022660048036038101906102219190611ca7565b6107d6565b6040516102339190611d85565b60405180910390f35b61025660048036038101906102519190611da0565b6107eb565b005b610272600480360381019061026d9190611da0565b610a31565b60405161027f9190611e0f565b60405180910390f35b6102a2600480360381019061029d9190611a6c565b610a92565b005b6102ac610cb3565b6040516102b991906116ef565b60405180910390f35b6102dc60048036038101906102d791906119c5565b610cc4565b6040516102e991906116ef565b60405180910390f35b61030c60048036038101906103079190611e2a565b610d14565b6040516103199190611d85565b60405180910390f35b61033c60048036038101906103379190611ec1565b610d29565b60405161034a929190611ff2565b60405180910390f35b61035b610ecf565b60405161036891906116ef565b60405180910390f35b60007f4e2312e0000000000000000000000000000000000000000000000000000000007bffffffffffffffffffffffffffffffffffffffffffffffffffffffff1916827bffffffffffffffffffffffffffffffffffffffffffffffffffffffff191614806103e457506103e382610ed4565b5b9050919050565b7f000000000000000000000000000000000000000000000000000000000000000081565b7f000000000000000000000000000000000000000000000000000000000000000081565b6060806000610440610cb3565b9050600081146105b457808510156105b35780848661045f9190612058565b1115610474578481610471919061208c565b93505b8367ffffffffffffffff81111561048e5761048d611aaf565b5b6040519080825280602002602001820160405280156104bc5781602001602082028036833780820191505090505b5092508367ffffffffffffffff8111156104d9576104d8611aaf565b5b6040519080825280602002602001820160405280156105075781602001602082028036833780820191505090505b50915060005b848110156105b15761053481876105249190612058565b6000610f3e90919063ffffffff16565b858381518110610547576105466120c0565b5b60200260200101858481518110610561576105606120c0565b5b60200260200101828152508273ffffffffffffffffffffffffffffffffffffffff1673ffffffffffffffffffffffffffffffffffffffff16815250505080806105a9906120ef565b91505061050d565b505b5b509250929050565b60006105d2826000610f6a90919063ffffffff16565b6105df57600090506105f6565b6105f3826000610f9a90919063ffffffff16565b90505b919050565b7f000000000000000000000000000000000000000000000000000000000000000081565b7f00000000000000000000000000000000000000000000000000000000000000008161064a336105bc565b6106549190612058565b1115610695576040517f08c379a000000000000000000000000000000000000000000000000000000000815260040161068c90612194565b60405180910390fd5b600081116106d8576040517f08c379a00000000000000000000000000000000000000000000000000000000081526004016106cf90612200565b60405180910390fd5b7f000000000000000000000000000000000000000000000000000000000000000073ffffffffffffffffffffffffffffffffffffffff1663f242432a33306000856040518563ffffffff1660e01b81526004016107389493929190612266565b600060405180830381600087803b15801561075257600080fd5b505af1158015610766573d6000803e3d6000fd5b505050506000610775336105bc565b90506107983383836107879190612058565b6000610fcd9092919063ffffffff16565b507f9e71bc8eea02a63969f509818f2dafb9254532904319f9dbda79b67bd34a5f3d33836040516107ca9291906122be565b60405180910390a15050565b600063bc197c8160e01b905095945050505050565b61083c81600460003373ffffffffffffffffffffffffffffffffffffffff1673ffffffffffffffffffffffffffffffffffffffff16815260200190815260200160002061100290919063ffffffff16565b61087b576040517f08c379a000000000000000000000000000000000000000000000000000000000815260040161087290612333565b60405180910390fd5b60006108873383610a31565b9050427f000000000000000000000000000000000000000000000000000000000000000067ffffffffffffffff1682602001516108c49190612058565b1115610905576040517f08c379a00000000000000000000000000000000000000000000000000000000081526004016108fc9061239f565b60405180910390fd5b7f000000000000000000000000000000000000000000000000000000000000000073ffffffffffffffffffffffffffffffffffffffff1663f242432a3085600085600001516040518563ffffffff1660e01b81526004016109699493929190612266565b600060405180830381600087803b15801561098357600080fd5b505af1158015610997573d6000803e3d6000fd5b505050506109ec82600460003373ffffffffffffffffffffffffffffffffffffffff1673ffffffffffffffffffffffffffffffffffffffff16815260200190815260200160002061102590919063ffffffff16565b507f7fc4727e062e336010f2c282598ef5f14facb3de68cf8195c2f23e1454b2b74e33838360000151604051610a24939291906123bf565b60405180910390a1505050565b610a396115ed565b610a8a82600460008673ffffffffffffffffffffffffffffffffffffffff1673ffffffffffffffffffffffffffffffffffffffff16815260200190815260200160002061107090919063ffffffff16565b905092915050565b60008111610ad5576040517f08c379a0000000000000000000000000000000000000000000000000000000008152600401610acc90612200565b60405180910390fd5b6000610ae0336105bc565b905080821115610b25576040517f08c379a0000000000000000000000000000000000000000000000000000000008152600401610b1c90612468565b60405180910390fd5b6000600360003373ffffffffffffffffffffffffffffffffffffffff1673ffffffffffffffffffffffffffffffffffffffff16815260200190815260200160002054905060008383610b77919061208c565b905060008103610b9b57610b9533600061111790919063ffffffff16565b50610bb3565b610bb133826000610fcd9092919063ffffffff16565b505b610c1a82604051806040016040528087815260200142815250600460003373ffffffffffffffffffffffffffffffffffffffff1673ffffffffffffffffffffffffffffffffffffffff1681526020019081526020016000206111479092919063ffffffff16565b50600360003373ffffffffffffffffffffffffffffffffffffffff1673ffffffffffffffffffffffffffffffffffffffff1681526020019081526020016000206000815480929190610c6b906120ef565b91905055507fb3a097b9b09df137b8d0b2cd75a0006fdbeb32e0cc39366c7fa0929d1ce9fc2133838642604051610ca59493929190612488565b60405180910390a150505050565b6000610cbf6000611198565b905090565b6000610d0d600460008473ffffffffffffffffffffffffffffffffffffffff1673ffffffffffffffffffffffffffffffffffffffff1681526020019081526020016000206111ad565b9050919050565b600063f23a6e6160e01b905095945050505050565b6060806000610d3786610cc4565b905060008114610ec65780851015610ec557808486610d569190612058565b1115610d6b578481610d68919061208c565b93505b8367ffffffffffffffff811115610d8557610d84611aaf565b5b604051908082528060200260200182016040528015610db35781602001602082028036833780820191505090505b5092508367ffffffffffffffff811115610dd057610dcf611aaf565b5b604051908082528060200260200182016040528015610e0957816020015b610df66115ed565b815260200190600190039081610dee5790505b50915060005b84811015610ec357610e738187610e269190612058565b600460008a73ffffffffffffffffffffffffffffffffffffffff1673ffffffffffffffffffffffffffffffffffffffff1681526020019081526020016000206111c290919063ffffffff16565b858381518110610e8657610e856120c0565b5b60200260200101858481518110610ea057610e9f6120c0565b5b602002602001018290528281525050508080610ebb906120ef565b915050610e0f565b505b5b50935093915050565b600081565b60007f01ffc9a7000000000000000000000000000000000000000000000000000000007bffffffffffffffffffffffffffffffffffffffffffffffffffffffff1916827bffffffffffffffffffffffffffffffffffffffffffffffffffffffff1916149050919050565b600080600080610f518660000186611230565b915091508160001c8160001c9350935050509250929050565b6000610f92836000018373ffffffffffffffffffffffffffffffffffffffff1660001b611270565b905092915050565b6000610fc2836000018373ffffffffffffffffffffffffffffffffffffffff1660001b611290565b60001c905092915050565b6000610ff9846000018473ffffffffffffffffffffffffffffffffffffffff1660001b8460001b611310565b90509392505050565b600061101d8260001b8460000161134b90919063ffffffff16565b905092915050565b6000826002016000838152602001908152602001600020600080820160009055600182016000905550506110688260001b8460000161136290919063ffffffff16565b905092915050565b6110786115ed565b6000836002016000848152602001908152602001600020604051806040016040529081600082015481526020016001820154815250509050600081602001511480156110cb57506110c98484611002565b155b1561110d57826040517f3a054bd400000000000000000000000000000000000000000000000000000000815260040161110491906116ef565b60405180910390fd5b8091505092915050565b600061113f836000018373ffffffffffffffffffffffffffffffffffffffff1660001b611379565b905092915050565b600081846002016000858152602001908152602001600020600082015181600001556020820151816001015590505061118f8360001b856000016113b290919063ffffffff16565b90509392505050565b60006111a6826000016113c9565b9050919050565b60006111bb826000016113de565b9050919050565b60006111cc6115ed565b60006111e484866000016113f390919063ffffffff16565b90508060001c8560020160008360001c81526020019081526020016000208060405180604001604052908160008201548152602001600182015481525050905092509250509250929050565b600080600061124b84866000016113f390919063ffffffff16565b9050808560020160008381526020019081526020016000205492509250509250929050565b6000611288828460000161134b90919063ffffffff16565b905092915050565b6000808360020160008481526020019081526020016000205490506000801b811480156112c457506112c28484611270565b155b1561130657826040517f02b566860000000000000000000000000000000000000000000000000000000081526004016112fd91906124e6565b60405180910390fd5b8091505092915050565b6000818460020160008581526020019081526020016000208190555061134283856000016113b290919063ffffffff16565b90509392505050565b600061135a836000018361140a565b905092915050565b6000611371836000018361142d565b905092915050565b6000826002016000838152602001908152602001600020600090556113aa828460000161136290919063ffffffff16565b905092915050565b60006113c18360000183611541565b905092915050565b60006113d7826000016113de565b9050919050565b60006113ec826000016115b1565b9050919050565b600061140283600001836115c2565b905092915050565b600080836001016000848152602001908152602001600020541415905092915050565b6000808360010160008481526020019081526020016000205490506000811461153557600060018261145f919061208c565b9050600060018660000180549050611477919061208c565b90508082146114e6576000866000018281548110611498576114976120c0565b5b90600052602060002001549050808760000184815481106114bc576114bb6120c0565b5b90600052602060002001819055508387600101600083815260200190815260200160002081905550505b856000018054806114fa576114f9612501565b5b60019003818190600052602060002001600090559055856001016000868152602001908152602001600020600090556001935050505061153b565b60009150505b92915050565b600061154d838361140a565b6115a65782600001829080600181540180825580915050600190039060005260206000200160009091909190915055826000018054905083600101600084815260200190815260200160002081905550600190506115ab565b600090505b92915050565b600081600001805490509050919050565b60008260000182815481106115da576115d96120c0565b5b9060005260206000200154905092915050565b604051806040016040528060008152602001600081525090565b6000604051905090565b600080fd5b600080fd5b60007fffffffff0000000000000000000000000000000000000000000000000000000082169050919050565b6116508161161b565b811461165b57600080fd5b50565b60008135905061166d81611647565b92915050565b60006020828403121561168957611688611611565b5b60006116978482850161165e565b91505092915050565b60008115159050919050565b6116b5816116a0565b82525050565b60006020820190506116d060008301846116ac565b92915050565b6000819050919050565b6116e9816116d6565b82525050565b600060208201905061170460008301846116e0565b92915050565b600067ffffffffffffffff82169050919050565b6117278161170a565b82525050565b6000602082019050611742600083018461171e565b92915050565b611751816116d6565b811461175c57600080fd5b50565b60008135905061176e81611748565b92915050565b6000806040838503121561178b5761178a611611565b5b60006117998582860161175f565b92505060206117aa8582860161175f565b9150509250929050565b600081519050919050565b600082825260208201905092915050565b6000819050602082019050919050565b600073ffffffffffffffffffffffffffffffffffffffff82169050919050565b600061180b826117e0565b9050919050565b61181b81611800565b82525050565b600061182d8383611812565b60208301905092915050565b6000602082019050919050565b6000611851826117b4565b61185b81856117bf565b9350611866836117d0565b8060005b8381101561189757815161187e8882611821565b975061188983611839565b92505060018101905061186a565b5085935050505092915050565b600081519050919050565b600082825260208201905092915050565b6000819050602082019050919050565b6118d9816116d6565b82525050565b60006118eb83836118d0565b60208301905092915050565b6000602082019050919050565b600061190f826118a4565b61191981856118af565b9350611924836118c0565b8060005b8381101561195557815161193c88826118df565b9750611947836118f7565b925050600181019050611928565b5085935050505092915050565b6000604082019050818103600083015261197c8185611846565b905081810360208301526119908184611904565b90509392505050565b6119a281611800565b81146119ad57600080fd5b50565b6000813590506119bf81611999565b92915050565b6000602082840312156119db576119da611611565b5b60006119e9848285016119b0565b91505092915050565b6000819050919050565b6000611a17611a12611a0d846117e0565b6119f2565b6117e0565b9050919050565b6000611a29826119fc565b9050919050565b6000611a3b82611a1e565b9050919050565b611a4b81611a30565b82525050565b6000602082019050611a666000830184611a42565b92915050565b600060208284031215611a8257611a81611611565b5b6000611a908482850161175f565b91505092915050565b600080fd5b6000601f19601f8301169050919050565b7f4e487b7100000000000000000000000000000000000000000000000000000000600052604160045260246000fd5b611ae782611a9e565b810181811067ffffffffffffffff82111715611b0657611b05611aaf565b5b80604052505050565b6000611b19611607565b9050611b258282611ade565b919050565b600067ffffffffffffffff821115611b4557611b44611aaf565b5b602082029050602081019050919050565b600080fd5b6000611b6e611b6984611b2a565b611b0f565b90508083825260208201905060208402830185811115611b9157611b90611b56565b5b835b81811015611bba5780611ba6888261175f565b845260208401935050602081019050611b93565b5050509392505050565b600082601f830112611bd957611bd8611a99565b5b8135611be9848260208601611b5b565b91505092915050565b600080fd5b600067ffffffffffffffff821115611c1257611c11611aaf565b5b611c1b82611a9e565b9050602081019050919050565b82818337600083830152505050565b6000611c4a611c4584611bf7565b611b0f565b905082815260208101848484011115611c6657611c65611bf2565b5b611c71848285611c28565b509392505050565b600082601f830112611c8e57611c8d611a99565b5b8135611c9e848260208601611c37565b91505092915050565b600080600080600060a08688031215611cc357611cc2611611565b5b6000611cd1888289016119b0565b9550506020611ce2888289016119b0565b945050604086013567ffffffffffffffff811115611d0357611d02611616565b5b611d0f88828901611bc4565b935050606086013567ffffffffffffffff811115611d3057611d2f611616565b5b611d3c88828901611bc4565b925050608086013567ffffffffffffffff811115611d5d57611d5c611616565b5b611d6988828901611c79565b9150509295509295909350565b611d7f8161161b565b82525050565b6000602082019050611d9a6000830184611d76565b92915050565b60008060408385031215611db757611db6611611565b5b6000611dc5858286016119b0565b9250506020611dd68582860161175f565b9150509250929050565b604082016000820151611df660008501826118d0565b506020820151611e0960208501826118d0565b50505050565b6000604082019050611e246000830184611de0565b92915050565b600080600080600060a08688031215611e4657611e45611611565b5b6000611e54888289016119b0565b9550506020611e65888289016119b0565b9450506040611e768882890161175f565b9350506060611e878882890161175f565b925050608086013567ffffffffffffffff811115611ea857611ea7611616565b5b611eb488828901611c79565b9150509295509295909350565b600080600060608486031215611eda57611ed9611611565b5b6000611ee8868287016119b0565b9350506020611ef98682870161175f565b9250506040611f0a8682870161175f565b9150509250925092565b600081519050919050565b600082825260208201905092915050565b6000819050602082019050919050565b604082016000820151611f5660008501826118d0565b506020820151611f6960208501826118d0565b50505050565b6000611f7b8383611f40565b60408301905092915050565b6000602082019050919050565b6000611f9f82611f14565b611fa98185611f1f565b9350611fb483611f30565b8060005b83811015611fe5578151611fcc8882611f6f565b9750611fd783611f87565b925050600181019050611fb8565b5085935050505092915050565b6000604082019050818103600083015261200c8185611904565b905081810360208301526120208184611f94565b90509392505050565b7f4e487b7100000000000000000000000000000000000000000000000000000000600052601160045260246000fd5b6000612063826116d6565b915061206e836116d6565b925082820190508082111561208657612085612029565b5b92915050565b6000612097826116d6565b91506120a2836116d6565b92508282039050818111156120ba576120b9612029565b5b92915050565b7f4e487b7100000000000000000000000000000000000000000000000000000000600052603260045260246000fd5b60006120fa826116d6565b91507fffffffffffffffffffffffffffffffffffffffffffffffffffffffffffffffff820361212c5761212b612029565b5b600182019050919050565b600082825260208201905092915050565b7f7374616b652065786365656473206d6178207374616b65000000000000000000600082015250565b600061217e601783612137565b915061218982612148565b602082019050919050565b600060208201905081810360008301526121ad81612171565b9050919050565b7f616d6f756e74206d7573742062652067726561746572207468616e2030000000600082015250565b60006121ea601d83612137565b91506121f5826121b4565b602082019050919050565b60006020820190508181036000830152612219816121dd565b9050919050565b61222981611800565b82525050565b600082825260208201905092915050565b50565b600061225060008361222f565b915061225b82612240565b600082019050919050565b600060a08201905061227b6000830187612220565b6122886020830186612220565b61229560408301856116e0565b6122a260608301846116e0565b81810360808301526122b381612243565b905095945050505050565b60006040820190506122d36000830185612220565b6122e060208301846116e0565b9392505050565b7f6e6f6e6578697374656e74206170706c79000000000000000000000000000000600082015250565b600061231d601183612137565b9150612328826122e7565b602082019050919050565b6000602082019050818103600083015261234c81612310565b9050919050565b7f756e7374616b65206c6f636b74696d65206e6f74206578706972656400000000600082015250565b6000612389601c83612137565b915061239482612353565b602082019050919050565b600060208201905081810360008301526123b88161237c565b9050919050565b60006060820190506123d46000830186612220565b6123e160208301856116e0565b6123ee60408301846116e0565b949350505050565b7f616d6f756e74206d757374206265206c657373207468616e206f72206571756160008201527f6c20746f207374616b6573000000000000000000000000000000000000000000602082015250565b6000612452602b83612137565b915061245d826123f6565b604082019050919050565b6000602082019050818103600083015261248181612445565b9050919050565b600060808201905061249d6000830187612220565b6124aa60208301866116e0565b6124b760408301856116e0565b6124c460608301846116e0565b95945050505050565b6000819050919050565b6124e0816124cd565b82525050565b60006020820190506124fb60008301846124d7565b92915050565b7f4e487b7100000000000000000000000000000000000000000000000000000000600052603160045260246000fdfea264697066735822122018012c0a76b4001599a31c24468077fa86e5a2ba1209b5bf11c70c5145bf2acc64736f6c63430008140033",
  "devdoc": {
    "errors": {
      "EnumerableMapNonexistentKey(bytes32)": [
        {
          "details": "Query for a nonexistent map key."
        }
      ]
    },
    "kind": "dev",
    "methods": {
      "supportsInterface(bytes4)": {
        "details": "See {IERC165-supportsInterface}."
      }
    },
    "version": 1
  },
  "userdoc": {
    "kind": "user",
    "methods": {},
    "version": 1
  },
  "storageLayout": {
    "storage": [
      {
        "astId": 8473,
        "contract": "contracts/core/VigorStoneStake.sol:VigorStoneStake",
        "label": "stakes",
        "offset": 0,
        "slot": "0",
        "type": "t_struct(AddressToUintMap)6327_storage"
      },
      {
        "astId": 8477,
        "contract": "contracts/core/VigorStoneStake.sol:VigorStoneStake",
        "label": "applyIds",
        "offset": 0,
        "slot": "3",
        "type": "t_mapping(t_address,t_uint256)"
      },
      {
        "astId": 8482,
        "contract": "contracts/core/VigorStoneStake.sol:VigorStoneStake",
        "label": "applies",
        "offset": 0,
        "slot": "4",
        "type": "t_mapping(t_address,t_struct(UintToApply)9007_storage)"
      }
    ],
    "types": {
      "t_address": {
        "encoding": "inplace",
        "label": "address",
        "numberOfBytes": "20"
      },
      "t_array(t_bytes32)dyn_storage": {
        "base": "t_bytes32",
        "encoding": "dynamic_array",
        "label": "bytes32[]",
        "numberOfBytes": "32"
      },
      "t_bytes32": {
        "encoding": "inplace",
        "label": "bytes32",
        "numberOfBytes": "32"
      },
      "t_mapping(t_address,t_struct(UintToApply)9007_storage)": {
        "encoding": "mapping",
        "key": "t_address",
        "label": "mapping(address => struct EnumerableApply.UintToApply)",
        "numberOfBytes": "32",
        "value": "t_struct(UintToApply)9007_storage"
      },
      "t_mapping(t_address,t_uint256)": {
        "encoding": "mapping",
        "key": "t_address",
        "label": "mapping(address => uint256)",
        "numberOfBytes": "32",
        "value": "t_uint256"
      },
      "t_mapping(t_bytes32,t_bytes32)": {
        "encoding": "mapping",
        "key": "t_bytes32",
        "label": "mapping(bytes32 => bytes32)",
        "numberOfBytes": "32",
        "value": "t_bytes32"
      },
      "t_mapping(t_bytes32,t_uint256)": {
        "encoding": "mapping",
        "key": "t_bytes32",
        "label": "mapping(bytes32 => uint256)",
        "numberOfBytes": "32",
        "value": "t_uint256"
      },
      "t_mapping(t_uint256,t_struct(ApplyInfo)8998_storage)": {
        "encoding": "mapping",
        "key": "t_uint256",
        "label": "mapping(uint256 => struct EnumerableApply.ApplyInfo)",
        "numberOfBytes": "32",
        "value": "t_struct(ApplyInfo)8998_storage"
      },
      "t_struct(AddressToUintMap)6327_storage": {
        "encoding": "inplace",
        "label": "struct EnumerableMap.AddressToUintMap",
        "members": [
          {
            "astId": 6326,
            "contract": "contracts/core/VigorStoneStake.sol:VigorStoneStake",
            "label": "_inner",
            "offset": 0,
            "slot": "0",
            "type": "t_struct(Bytes32ToBytes32Map)5669_storage"
          }
        ],
        "numberOfBytes": "96"
      },
      "t_struct(ApplyInfo)8998_storage": {
        "encoding": "inplace",
        "label": "struct EnumerableApply.ApplyInfo",
        "members": [
          {
            "astId": 8995,
            "contract": "contracts/core/VigorStoneStake.sol:VigorStoneStake",
            "label": "amount",
            "offset": 0,
            "slot": "0",
            "type": "t_uint256"
          },
          {
            "astId": 8997,
            "contract": "contracts/core/VigorStoneStake.sol:VigorStoneStake",
            "label": "applyTime",
            "offset": 0,
            "slot": "1",
            "type": "t_uint256"
          }
        ],
        "numberOfBytes": "64"
      },
      "t_struct(Bytes32Set)6967_storage": {
        "encoding": "inplace",
        "label": "struct EnumerableSet.Bytes32Set",
        "members": [
          {
            "astId": 6966,
            "contract": "contracts/core/VigorStoneStake.sol:VigorStoneStake",
            "label": "_inner",
            "offset": 0,
            "slot": "0",
            "type": "t_struct(Set)6773_storage"
          }
        ],
        "numberOfBytes": "64"
      },
      "t_struct(Bytes32ToBytes32Map)5669_storage": {
        "encoding": "inplace",
        "label": "struct EnumerableMap.Bytes32ToBytes32Map",
        "members": [
          {
            "astId": 5664,
            "contract": "contracts/core/VigorStoneStake.sol:VigorStoneStake",
            "label": "_keys",
            "offset": 0,
            "slot": "0",
            "type": "t_struct(Bytes32Set)6967_storage"
          },
          {
            "astId": 5668,
            "contract": "contracts/core/VigorStoneStake.sol:VigorStoneStake",
            "label": "_values",
            "offset": 0,
            "slot": "2",
            "type": "t_mapping(t_bytes32,t_bytes32)"
          }
        ],
        "numberOfBytes": "96"
      },
      "t_struct(Set)6773_storage": {
        "encoding": "inplace",
        "label": "struct EnumerableSet.Set",
        "members": [
          {
            "astId": 6768,
            "contract": "contracts/core/VigorStoneStake.sol:VigorStoneStake",
            "label": "_values",
            "offset": 0,
            "slot": "0",
            "type": "t_array(t_bytes32)dyn_storage"
          },
          {
            "astId": 6772,
            "contract": "contracts/core/VigorStoneStake.sol:VigorStoneStake",
            "label": "_positions",
            "offset": 0,
            "slot": "1",
            "type": "t_mapping(t_bytes32,t_uint256)"
          }
        ],
        "numberOfBytes": "64"
      },
      "t_struct(UintToApply)9007_storage": {
        "encoding": "inplace",
        "label": "struct EnumerableApply.UintToApply",
        "members": [
          {
            "astId": 9001,
            "contract": "contracts/core/VigorStoneStake.sol:VigorStoneStake",
            "label": "_keys",
            "offset": 0,
            "slot": "0",
            "type": "t_struct(Bytes32Set)6967_storage"
          },
          {
            "astId": 9006,
            "contract": "contracts/core/VigorStoneStake.sol:VigorStoneStake",
            "label": "_values",
            "offset": 0,
            "slot": "2",
            "type": "t_mapping(t_uint256,t_struct(ApplyInfo)8998_storage)"
          }
        ],
        "numberOfBytes": "96"
      },
      "t_uint256": {
        "encoding": "inplace",
        "label": "uint256",
        "numberOfBytes": "32"
      }
    }
  }
}